{
  "_format": "hh-sol-artifact-1",
  "contractName": "GameData",
  "sourceName": "contracts/GameData.sol",
  "abi": [
    {
      "inputs": [],
      "stateMutability": "nonpayable",
      "type": "constructor"
    },
    {
      "inputs": [],
      "name": "getInitialPath",
      "outputs": [
        {
          "components": [
            {
              "internalType": "enum GameData.PathType",
              "name": "pathType",
              "type": "uint8"
            },
            {
              "internalType": "uint256",
              "name": "minGold",
              "type": "uint256"
            },
            {
              "internalType": "uint256",
              "name": "maxGold",
              "type": "uint256"
            },
            {
              "internalType": "uint256",
              "name": "percentKey",
              "type": "uint256"
            },
            {
              "internalType": "uint256",
              "name": "percentTreasure",
              "type": "uint256"
            },
            {
              "internalType": "uint256",
              "name": "percentDeath",
              "type": "uint256"
            },
            {
              "internalType": "enum GameData.PathType[3]",
              "name": "nextPathTypes",
              "type": "uint8[3]"
            }
          ],
          "internalType": "struct GameData.PathData",
          "name": "",
          "type": "tuple"
        }
      ],
      "stateMutability": "view",
      "type": "function"
    },
    {
      "inputs": [
        {
          "internalType": "enum GameData.PathType",
          "name": "pathType",
          "type": "uint8"
        }
      ],
      "name": "getPathDataFromType",
      "outputs": [
        {
          "components": [
            {
              "internalType": "enum GameData.PathType",
              "name": "pathType",
              "type": "uint8"
            },
            {
              "internalType": "uint256",
              "name": "minGold",
              "type": "uint256"
            },
            {
              "internalType": "uint256",
              "name": "maxGold",
              "type": "uint256"
            },
            {
              "internalType": "uint256",
              "name": "percentKey",
              "type": "uint256"
            },
            {
              "internalType": "uint256",
              "name": "percentTreasure",
              "type": "uint256"
            },
            {
              "internalType": "uint256",
              "name": "percentDeath",
              "type": "uint256"
            },
            {
              "internalType": "enum GameData.PathType[3]",
              "name": "nextPathTypes",
              "type": "uint8[3]"
            }
          ],
          "internalType": "struct GameData.PathData",
          "name": "",
          "type": "tuple"
        }
      ],
      "stateMutability": "view",
      "type": "function"
    },
    {
      "inputs": [
        {
          "internalType": "uint256",
          "name": "",
          "type": "uint256"
        }
      ],
      "name": "uri",
      "outputs": [
        {
          "internalType": "string",
          "name": "",
          "type": "string"
        }
      ],
      "stateMutability": "view",
      "type": "function"
    }
  ],
  "bytecode": "0x60806040523480156200001157600080fd5b506040805160e081019091528060008152602001600081526020016000815260200160008152602001600081526020016000815260200160405180606001604052806001600d811115620000695762000069620010df565b600d8111156200007d576200007d620010df565b81526020016002815260200160039052905260086000808152602081019190915260400160002081518154829060ff1916600183600d811115620000c557620000c5620010df565b02179055506020820151816001015560408201518160020155606082015181600301556080820151816004015560a0820151816005015560c0820151816006019060036200011592919062000f6a565b50506040805160e081019091529050806001815260200161019081526020016101f48152602001600f8152602001600a81526020016032815260200160405180606001604052806008600d811115620001725762000172620010df565b600d811115620001865762000186620010df565b8152602001600681526020016004905290526008600060018152602081019190915260400160002081518154829060ff1916600183600d811115620001cf57620001cf620010df565b02179055506020820151816001015560408201518160020155606082015181600301556080820151816004015560a0820151816005015560c0820151816006019060036200021f92919062000f6a565b50506040805160e081019091529050806002815260200160c88152602001610190815260200160058152602001600a81526020016019815260200160405180606001604052806009600d8111156200027b576200027b620010df565b600d8111156200028f576200028f620010df565b8152602001600181526020016008905290526008600060028152602081019190915260400160002081518154829060ff1916600183600d811115620002d857620002d8620010df565b02179055506020820151816001015560408201518160020155606082015181600301556080820151816004015560a0820151816005015560c0820151816006019060036200032892919062000f6a565b50506040805160e0810190915290508060038152602001603281526020016064815260200160198152602001600081526020016000815260200160405180606001604052806007600d811115620003835762000383620010df565b600d811115620003975762000397620010df565b8152602001600a8152602001600b905290526008600060038152602081019190915260400160002081518154829060ff1916600183600d811115620003e057620003e0620010df565b02179055506020820151816001015560408201518160020155606082015181600301556080820151816004015560a0820151816005015560c0820151816006019060036200043092919062000f6a565b50506040805160e08101909152905080600481526020016064815260200160c881526020016019815260200160058152602001600f815260200160405180606001604052806001600d8111156200048b576200048b620010df565b600d8111156200049f576200049f620010df565b815260200160098152602001600a905290526008600060048152602081019190915260400160002081518154829060ff1916600183600d811115620004e857620004e8620010df565b02179055506020820151816001015560408201518160020155606082015181600301556080820151816004015560a0820151816005015560c0820151816006019060036200053892919062000f6a565b50506040805160e081019091529050806005815260200161032081526020016103e881526020016046815260200160008152602001601e815260200160405180606001604052806009600d811115620005955762000595620010df565b600d811115620005a957620005a9620010df565b8152602001600181526020016006905290526008600060058152602081019190915260400160002081518154829060ff1916600183600d811115620005f257620005f2620010df565b02179055506020820151816001015560408201518160020155606082015181600301556080820151816004015560a0820151816005015560c0820151816006019060036200064292919062000f6a565b50506040805160e081019091529050806006815260200161019081526020016101f48152602001600f8152602001600a8152602001601e815260200160405180606001604052806007600d8111156200069f576200069f620010df565b600d811115620006b357620006b3620010df565b8152602001600381526020016005905290526008600060068152602081019190915260400160002081518154829060ff1916600183600d811115620006fc57620006fc620010df565b02179055506020820151816001015560408201518160020155606082015181600301556080820151816004015560a0820151816005015560c0820151816006019060036200074c92919062000f6a565b50506040805160e08101909152905080600781526020016064815260200160c88152602001600f8152602001600a81526020016000815260200160405180606001604052806005600d811115620007a757620007a7620010df565b600d811115620007bb57620007bb620010df565b815260200160068152602001600b905290526008600060078152602081019190915260400160002081518154829060ff1916600183600d811115620008045762000804620010df565b02179055506020820151816001015560408201518160020155606082015181600301556080820151816004015560a0820151816005015560c0820151816006019060036200085492919062000f6a565b50506040805160e081019091529050806008815260200160c8815260200161012c8152602001600f8152602001603281526020016032815260200160405180606001604052806005600d811115620008b057620008b0620010df565b600d811115620008c457620008c4620010df565b8152602001600c8152602001600d9052905260086000818152602081019190915260400160002081518154829060ff1916600183600d8111156200090c576200090c620010df565b02179055506020820151816001015560408201518160020155606082015181600301556080820151816004015560a0820151816005015560c0820151816006019060036200095c92919062000f6a565b50506040805160e081019091529050806009815260200161019081526020016101f48152602001600f8152602001600a81526020016023815260200160405180606001604052806008600d811115620009b957620009b9620010df565b600d811115620009cd57620009cd620010df565b8152602001600b8152602001600d905290526008600060098152602081019190915260400160002081518154829060ff1916600183600d81111562000a165762000a16620010df565b02179055506020820151816001015560408201518160020155606082015181600301556080820151816004015560a0820151816005015560c08201518160060190600362000a6692919062000f6a565b50506040805160e08101909152905080600a81526020016064815260200160c88152602001600f8152602001603c81526020016005815260200160405180606001604052806005600d81111562000ac15762000ac1620010df565b600d81111562000ad55762000ad5620010df565b815260200160048152602001600c9052905260086000600a8152602081019190915260400160002081518154829060ff1916600183600d81111562000b1e5762000b1e620010df565b02179055506020820151816001015560408201518160020155606082015181600301556080820151816004015560a0820151816005015560c08201518160060190600362000b6e92919062000f6a565b50506040805160e08101909152905080600b81526020016103e881526020016109c48152602001600f8152602001600a8152602001601e815260200160405180606001604052806004600d81111562000bcb5762000bcb620010df565b600d81111562000bdf5762000bdf620010df565b8152602001600c815260200160079052905260086000600b8152602081019190915260400160002081518154829060ff1916600183600d81111562000c285762000c28620010df565b02179055506020820151816001015560408201518160020155606082015181600301556080820151816004015560a0820151816005015560c08201518160060190600362000c7892919062000f6a565b50506040805160e08101909152905080600c81526020016103e881526020016109c48152602001600f8152602001600f81526020016028815260200160405180606001604052806005600d81111562000cd55762000cd5620010df565b600d81111562000ce95762000ce9620010df565b8152602001600c8152602001600d9052905260086000600c8152602081019190915260400160002081518154829060ff1916600183600d81111562000d325762000d32620010df565b02179055506020820151816001015560408201518160020155606082015181600301556080820151816004015560a0820151816005015560c08201518160060190600362000d8292919062000f6a565b50506040805160e08101909152905080600d8152602001611388815260200161c35081526020016000815260200160648152602001601981526020016040518060600160405280600d8081111562000dde5762000dde620010df565b600d81111562000df25762000df2620010df565b8152602001600d8152602001600d9052905260086000600d8152602081019190915260400160002081518154829060ff1916600183600d81111562000e3b5762000e3b620010df565b02179055506020820151816001015560408201518160020155606082015181600301556080820151816004015560a0820151816005015560c08201518160060190600362000e8b92919062000f6a565b5050600080525060086020527f5eff886ea0ce6ca488a3d6e336d6c0f75f46d19b42c06ce5ee98e42c96d256c7805460018054909160ff1690829060ff19168183600d81111562000ee05762000ee0620010df565b02179055506001820154816001015560028201548160020155600382015481600301556004820154816004015560058201548160050155600682018160060190600362000f2f92919062001015565b509050506040518060800160405280604c81526020016200169e604c9139805162000f63916000916020909101906200104b565b5062001131565b600183019183908215620010035791602002820160005b8382111562000fd257835183826101000a81548160ff0219169083600d81111562000fb05762000fb0620010df565b0217905550926020019260010160208160000104928301926001030262000f81565b8015620010015782816101000a81549060ff021916905560010160208160000104928301926001030262000fd2565b505b5062001011929150620010c8565b5090565b600183019183908215620010035791601f016020900482015b82811115620010035782548255916001019190600101906200102e565b8280546200105990620010f5565b90600052602060002090601f0160209004810192826200107d576000855562001003565b82601f106200109857805160ff191683800117855562001003565b8280016001018555821562001003579182015b8281111562001003578251825591602001919060010190620010ab565b5b80821115620010115760008155600101620010c9565b634e487b7160e01b600052602160045260246000fd5b600181811c908216806200110a57607f821691505b6020821081036200112b57634e487b7160e01b600052602260045260246000fd5b50919050565b61055d80620011416000396000f3fe608060405234801561001057600080fd5b50600436106100415760003560e01c80630e89341c146100465780633928d57b1461006f578063835dcac414610084575b600080fd5b61005961005436600461039f565b610097565b60405161006691906103b8565b60405180910390f35b61007761012b565b6040516100669190610445565b6100776100923660046104c5565b610219565b6060600080546100a6906104ed565b80601f01602080910402602001604051908101604052809291908181526020018280546100d2906104ed565b801561011f5780601f106100f45761010080835404028352916020019161011f565b820191906000526020600020905b81548152906001019060200180831161010257829003601f168201915b50505050509050919050565b61013361033e565b6040805160e0810190915260018054829060ff16600d8111156101585761015861040d565b600d8111156101695761016961040d565b815260200160018201548152602001600282015481526020016003820154815260200160048201548152602001600582015481526020016006820160038060200260405190810160405280929190826003801561020b576020028201916000905b82829054906101000a900460ff16600d8111156101e9576101e961040d565b8152602060019283018181049485019490930390920291018084116101ca5790505b505050505081525050905090565b61022161033e565b6008600083600d8111156102375761023761040d565b600d8111156102485761024861040d565b815260208101919091526040908101600020815160e081019092528054829060ff16600d81111561027b5761027b61040d565b600d81111561028c5761028c61040d565b815260200160018201548152602001600282015481526020016003820154815260200160048201548152602001600582015481526020016006820160038060200260405190810160405280929190826003801561032e576020028201916000905b82829054906101000a900460ff16600d81111561030c5761030c61040d565b8152602060019283018181049485019490930390920291018084116102ed5790505b5050505050815250509050919050565b6040805160e081019091528060008152602001600081526020016000815260200160008152602001600081526020016000815260200161037c610381565b905290565b60405180606001604052806003906020820280368337509192915050565b6000602082840312156103b157600080fd5b5035919050565b600060208083528351808285015260005b818110156103e5578581018301518582016040015282016103c9565b818111156103f7576000604083870101525b50601f01601f1916929092016040019392505050565b634e487b7160e01b600052602160045260246000fd5b600e811061044157634e487b7160e01b600052602160045260246000fd5b9052565b600061012082019050610459828451610423565b6020808401518184015260408401516040840152606084015160608401526080840151608084015260a084015160a084015260c084015160c0840160005b60038110156104bb576104ab828451610423565b9183019190830190600101610497565b5050505092915050565b6000602082840312156104d757600080fd5b8135600e81106104e657600080fd5b9392505050565b600181811c9082168061050157607f821691505b60208210810361052157634e487b7160e01b600052602260045260246000fd5b5091905056fea264697066735822122080c0469492f2c3c20a893c660c97511373d04d333c955135eac0c1546bcb5ddc64736f6c634300080d0033697066733a2f2f6261667962656963696673633371617a6f717361676564326a766c337978783676696f6261346463686363793269357175326a6c6b7a7a373764752f7b69647d2e6a736f6e",
  "linkReferences": {},
  "deployedLinkReferences": {}
}