{
  "_format": "hh-sol-artifact-1",
  "contractName": "GameData",
  "sourceName": "contracts/GameData.sol",
  "abi": [
    {
      "inputs": [],
      "stateMutability": "nonpayable",
      "type": "constructor"
    },
    {
      "inputs": [],
      "name": "getInitialPath",
      "outputs": [
        {
          "components": [
            {
              "internalType": "enum GameData.PathType",
              "name": "pathType",
              "type": "uint8"
            },
            {
              "internalType": "string",
              "name": "pathName",
              "type": "string"
            },
            {
              "internalType": "string",
              "name": "pathDescription",
              "type": "string"
            },
            {
              "internalType": "string",
              "name": "deathDescription",
              "type": "string"
            },
            {
              "internalType": "uint256",
              "name": "minGold",
              "type": "uint256"
            },
            {
              "internalType": "uint256",
              "name": "maxGold",
              "type": "uint256"
            },
            {
              "internalType": "uint256",
              "name": "percentKey",
              "type": "uint256"
            },
            {
              "internalType": "uint256",
              "name": "percentTreasure",
              "type": "uint256"
            },
            {
              "internalType": "uint256",
              "name": "percentDeath",
              "type": "uint256"
            },
            {
              "internalType": "enum GameData.PathType[3]",
              "name": "nextPathTypes",
              "type": "uint8[3]"
            }
          ],
          "internalType": "struct GameData.PathData",
          "name": "",
          "type": "tuple"
        }
      ],
      "stateMutability": "view",
      "type": "function"
    },
    {
      "inputs": [
        {
          "internalType": "enum GameData.PathType",
          "name": "pathType",
          "type": "uint8"
        }
      ],
      "name": "getPathDataFromType",
      "outputs": [
        {
          "components": [
            {
              "internalType": "enum GameData.PathType",
              "name": "pathType",
              "type": "uint8"
            },
            {
              "internalType": "string",
              "name": "pathName",
              "type": "string"
            },
            {
              "internalType": "string",
              "name": "pathDescription",
              "type": "string"
            },
            {
              "internalType": "string",
              "name": "deathDescription",
              "type": "string"
            },
            {
              "internalType": "uint256",
              "name": "minGold",
              "type": "uint256"
            },
            {
              "internalType": "uint256",
              "name": "maxGold",
              "type": "uint256"
            },
            {
              "internalType": "uint256",
              "name": "percentKey",
              "type": "uint256"
            },
            {
              "internalType": "uint256",
              "name": "percentTreasure",
              "type": "uint256"
            },
            {
              "internalType": "uint256",
              "name": "percentDeath",
              "type": "uint256"
            },
            {
              "internalType": "enum GameData.PathType[3]",
              "name": "nextPathTypes",
              "type": "uint8[3]"
            }
          ],
          "internalType": "struct GameData.PathData",
          "name": "",
          "type": "tuple"
        }
      ],
      "stateMutability": "view",
      "type": "function"
    },
    {
      "inputs": [
        {
          "internalType": "enum GameData.PathType",
          "name": "pathType",
          "type": "uint8"
        }
      ],
      "name": "getPathNameFromType",
      "outputs": [
        {
          "internalType": "string",
          "name": "",
          "type": "string"
        }
      ],
      "stateMutability": "view",
      "type": "function"
    }
  ],
  "bytecode": "0x60806040523480156200001157600080fd5b5060408051610140810190915280600081526020016040518060400160405280600981526020016854686520436861736d60b81b815250815260200160405180610100016040528060d3815260200162002be060d3913981526020016040518060600160405280602681526020016200291e602691398152602001600081526020016000815260200160008152602001600081526020016000815260200160405180606001604052806001600d811115620000d057620000d062001c48565b600d811115620000e457620000e462001c48565b815260200160028152602001600390529052600a6000808152602081019190915260400160002081518154829060ff1916600183600d8111156200012c576200012c62001c48565b021790555060208281015180516200014b926001850192019062001a43565b50604082015180516200016991600284019160209091019062001a43565b50606082015180516200018791600384019160209091019062001a43565b506080820151600482015560a0820151600582015560c0820151600682015560e082015160078201556101008201516008820155610120820151620001d3906009830190600362001ad2565b5050604080516101408101909152905080600181526020016040518060400160405280600c81526020016b46726167696c65206361766560a01b81525081526020016040518060c00160405280609f8152602001620037be609f913981526020016040518060e0016040528060b981526020016200365260b99139815260200161019081526020016101f48152602001600f8152602001600a81526020016032815260200160405180606001604052806006600d81111562000299576200029962001c48565b600d811115620002ad57620002ad62001c48565b815260200160038152602001600490529052600a600060018152602081019190915260400160002081518154829060ff1916600183600d811115620002f657620002f662001c48565b0217905550602082810151805162000315926001850192019062001a43565b50604082015180516200033391600284019160209091019062001a43565b50606082015180516200035191600384019160209091019062001a43565b506080820151600482015560a0820151600582015560c0820151600682015560e0820151600782015561010082015160088201556101208201516200039d906009830190600362001ad2565b5050604080516101408101909152905080600281526020016040518060400160405280600c81526020016b42726f6b656e20747261636b60a01b815250815260200160405180610100016040528060d3815260200162002a7060d39139815260200160405180610100016040528060ce81526020016200272a60ce9139815260200160c88152602001610190815260200160058152602001600a81526020016019815260200160405180606001604052806009600d81111562000464576200046462001c48565b600d81111562000478576200047862001c48565b815260200160018152602001600290529052600a600060028152602081019190915260400160002081518154829060ff1916600183600d811115620004c157620004c162001c48565b02179055506020828101518051620004e0926001850192019062001a43565b5060408201518051620004fe91600284019160209091019062001a43565b50606082015180516200051c91600384019160209091019062001a43565b506080820151600482015560a0820151600582015560c0820151600682015560e08201516007820155610100820151600882015561012082015162000568906009830190600362001ad2565b5050604080516101408101909152905080600381526020016040518060400160405280600b81526020016a135a5b99481d1d5b9b995b60aa1b815250815260200160405180610120016040528060fd81526020016200337f60fd91398152602001604051806020016040528060008152508152602001603281526020016064815260200160198152602001600081526020016000815260200160405180606001604052806007600d81111562000622576200062262001c48565b600d81111562000636576200063662001c48565b8152602001600a8152602001600b90529052600a600060038152602081019190915260400160002081518154829060ff1916600183600d8111156200067f576200067f62001c48565b021790555060208281015180516200069e926001850192019062001a43565b5060408201518051620006bc91600284019160209091019062001a43565b5060608201518051620006da91600384019160209091019062001a43565b506080820151600482015560a0820151600582015560c0820151600682015560e08201516007820155610100820151600882015561012082015162000726906009830190600362001ad2565b5050604080516101408101909152905080600481526020016040518060400160405280600b81526020016a4e6172726f77206361766560a81b8152508152602001604051806101800160405280610154815260200162002cb36101549139815260200160405180610160016040528061013c81526020016200385d61013c913981526020016064815260200160c881526020016019815260200160058152602001600f815260200160405180606001604052806001600d811115620007ef57620007ef62001c48565b600d81111562000803576200080362001c48565b815260200160098152602001600a90529052600a600060048152602081019190915260400160002081518154829060ff1916600183600d8111156200084c576200084c62001c48565b021790555060208281015180516200086b926001850192019062001a43565b50604082015180516200088991600284019160209091019062001a43565b5060608201518051620008a791600384019160209091019062001a43565b506080820151600482015560a0820151600582015560c0820151600682015560e082015160078201556101008201516008820155610120820151620008f3906009830190600362001ad2565b5050604080516101408101909152905080600581526020016040518060400160405280600d81526020016c536d656c6c206f66206669726560981b81525081526020016040518061014001604052806101018152602001620026296101019139815260200160405180610100016040528060d4815260200162002e4860d49139815260200161032081526020016103e881526020016046815260200160008152602001601e815260200160405180606001604052806006600d811115620009be57620009be62001c48565b600d811115620009d257620009d262001c48565b815260200160018152602001600990529052600a600060058152602081019190915260400160002081518154829060ff1916600183600d81111562000a1b5762000a1b62001c48565b0217905550602082810151805162000a3a926001850192019062001a43565b506040820151805162000a5891600284019160209091019062001a43565b506060820151805162000a7691600384019160209091019062001a43565b506080820151600482015560a0820151600582015560c0820151600682015560e08201516007820155610100820151600882015561012082015162000ac2906009830190600362001ad2565b5050604080516101408101909152905080600681526020016040518060400160405280600a81526020016927b632103630b23232b960b11b815250815260200160405180608001604052806041815260200162002e076041913981526020016040518060c00160405280609d815260200162002b43609d9139815260200161019081526020016101f48152602001600f8152602001600a8152602001601e815260200160405180606001604052806007600d81111562000b865762000b8662001c48565b600d81111562000b9a5762000b9a62001c48565b815260200160038152602001600590529052600a600060068152602081019190915260400160002081518154829060ff1916600183600d81111562000be35762000be362001c48565b0217905550602082810151805162000c02926001850192019062001a43565b506040820151805162000c2091600284019160209091019062001a43565b506060820151805162000c3e91600384019160209091019062001a43565b506080820151600482015560a0820151600582015560c0820151600682015560e08201516007820155610100820151600882015561012082015162000c8a906009830190600362001ad2565b5050604080516101408101909152905080600781526020016040518060400160405280600c81526020016b27b6321031b7b93934b237b960a11b81525081526020016040518060800160405280604b815260200162003522604b913981526020016040518060200160405280600081525081526020016064815260200160c88152602001600f8152602001600a81526020016000815260200160405180606001604052806005600d81111562000d445762000d4462001c48565b600d81111562000d585762000d5862001c48565b815260200160068152602001600c90529052600a600060078152602081019190915260400160002081518154829060ff1916600183600d81111562000da15762000da162001c48565b0217905550602082810151805162000dc0926001850192019062001a43565b506040820151805162000dde91600284019160209091019062001a43565b506060820151805162000dfc91600384019160209091019062001a43565b506080820151600482015560a0820151600582015560c0820151600682015560e08201516007820155610100820151600882015561012082015162000e48906009830190600362001ad2565b5050604080516101408101909152905080600881526020016040518060400160405280600b81526020016a135d5cdade481cdb595b1b60aa1b815250815260200160405180610120016040528060ed81526020016200315b60ed913981526020016040518060e0016040528060a681526020016200347c60a69139815260200160c8815260200161012c8152602001600f8152602001603281526020016032815260200160405180606001604052806005600d81111562000f0d5762000f0d62001c48565b600d81111562000f215762000f2162001c48565b8152602001600c8152602001600d90529052600a600060088152602081019190915260400160002081518154829060ff1916600183600d81111562000f6a5762000f6a62001c48565b0217905550602082810151805162000f89926001850192019062001a43565b506040820151805162000fa791600284019160209091019062001a43565b506060820151805162000fc591600384019160209091019062001a43565b506080820151600482015560a0820151600582015560c0820151600682015560e08201516007820155610100820151600882015561012082015162001011906009830190600362001ad2565b5050604080516101408101909152905080600981526020016040518060400160405280600c81526020016b4c6f6f736520706c616e6b7360a01b81525081526020016040518060c00160405280609d8152602001620030be609d913981526020016040518061016001604052806101268152602001620027f86101269139815260200161019081526020016101f48152602001600f8152602001600a81526020016023815260200160405180606001604052806005600d811115620010da57620010da62001c48565b600d811115620010ee57620010ee62001c48565b8152602001600c8152602001600d90529052600a600060098152602081019190915260400160002081518154829060ff1916600183600d81111562001137576200113762001c48565b0217905550602082810151805162001156926001850192019062001a43565b50604082015180516200117491600284019160209091019062001a43565b50606082015180516200119291600384019160209091019062001a43565b506080820151600482015560a0820151600582015560c0820151600682015560e082015160078201556101008201516008820155610120820151620011de906009830190600362001ad2565b5050604080516101408101909152905080600a81526020016040518060400160405280600c81526020016b119c9a595b991b1e481c985d60a21b815250815260200160405180610100016040528060c981526020016200324860c9913981526020016040518060e0016040528060c0815260200162002ffe60c0913981526020016064815260200160c88152602001600f8152602001603c81526020016005815260200160405180606001604052806005600d811115620012a357620012a362001c48565b600d811115620012b757620012b762001c48565b815260200160048152602001600c90529052600a6000818152602081019190915260400160002081518154829060ff1916600183600d811115620012ff57620012ff62001c48565b021790555060208281015180516200131e926001850192019062001a43565b50604082015180516200133c91600284019160209091019062001a43565b50606082015180516200135a91600384019160209091019062001a43565b506080820151600482015560a0820151600582015560c0820151600682015560e082015160078201556101008201516008820155610120820151620013a6906009830190600362001ad2565b5050604080516101408101909152905080600b81526020016040518060400160405280601381526020017f536f756e6473206f66206d75726d7572696e670000000000000000000000000081525081526020016040518060e0016040528060b381526020016200370b60b39139815260200160405180610120016040528060e581526020016200356d60e5913981526020016103e881526020016109c48152602001600f8152602001600a8152602001601e815260200160405180606001604052806004600d8111156200147e576200147e62001c48565b600d81111562001492576200149262001c48565b8152602001600c8152602001600790529052600a6000600b8152602081019190915260400160002081518154829060ff1916600183600d811115620014db57620014db62001c48565b02179055506020828101518051620014fa926001850192019062001a43565b50604082015180516200151891600284019160209091019062001a43565b50606082015180516200153691600384019160209091019062001a43565b506080820151600482015560a0820151600582015560c0820151600682015560e08201516007820155610100820151600882015561012082015162001582906009830190600362001ad2565b5050604080516101408101909152905080600c81526020016040518060400160405280600681526020016511195cd95c9d60d21b81525081526020016040518060a00160405280606e815260200162003311606e9139815260200160405180610120016040528060e2815260200162002f1c60e2913981526020016103e881526020016109c48152602001600f8152602001600f8152602001601e815260200160405180606001604052806005600d81111562001643576200164362001c48565b600d81111562001657576200165762001c48565b8152602001600c8152602001600d90529052600a6000600c8152602081019190915260400160002081518154829060ff1916600183600d811115620016a057620016a062001c48565b02179055506020828101518051620016bf926001850192019062001a43565b5060408201518051620016dd91600284019160209091019062001a43565b5060608201518051620016fb91600384019160209091019062001a43565b506080820151600482015560a0820151600582015560c0820151600682015560e08201516007820155610100820151600882015561012082015162001747906009830190600362001ad2565b5050604080516101408101909152905080600d81526020016040518060400160405280600681526020016550616c61636560d01b81525081526020016040518060400160405280601481526020017f596f7520656e746572207468652070616c616365000000000000000000000000815250815260200160405180610160016040528061012c81526020016200294461012c91398152602001611388815260200161c35081526020016000815260200160648152602001600081526020016040518060600160405280600d8081111562001825576200182562001c48565b600d81111562001839576200183962001c48565b8152602001600d8152602001600d90529052600a6000600d8152602081019190915260400160002081518154829060ff1916600183600d81111562001882576200188262001c48565b02179055506020828101518051620018a1926001850192019062001a43565b5060408201518051620018bf91600284019160209091019062001a43565b5060608201518051620018dd91600384019160209091019062001a43565b506080820151600482015560a0820151600582015560c0820151600682015560e08201516007820155610100820151600882015561012082015162001929906009830190600362001ad2565b50506000808052600a6020527f13da86008ba1c6922daee3e07db95305ef49ebced9f5467a0b8613fcc6b343e38054825491935060ff1690829060ff1916600183600d8111156200197e576200197e62001c48565b02179055506001820181600101908054620019999062001c5e565b620019a692919062001b78565b506002820181600201908054620019bd9062001c5e565b620019ca92919062001b78565b506003820181600301908054620019e19062001c5e565b620019ee92919062001b78565b506004820154816004015560058201548160050155600682015481600601556007820154816007015560088201548160080155600982018160090190600362001a3992919062001bfc565b5090505062001c9a565b82805462001a519062001c5e565b90600052602060002090601f01602090048101928262001a75576000855562001ac0565b82601f1062001a9057805160ff191683800117855562001ac0565b8280016001018555821562001ac0579182015b8281111562001ac057825182559160200191906001019062001aa3565b5062001ace92915062001c31565b5090565b60018301918390821562001ac05791602002820160005b8382111562001b3a57835183826101000a81548160ff0219169083600d81111562001b185762001b1862001c48565b0217905550926020019260010160208160000104928301926001030262001ae9565b801562001b695782816101000a81549060ff021916905560010160208160000104928301926001030262001b3a565b505062001ace92915062001c31565b82805462001b869062001c5e565b90600052602060002090601f01602090048101928262001baa576000855562001ac0565b82601f1062001bbd578054855562001ac0565b8280016001018555821562001ac057600052602060002091601f016020900482015b8281111562001ac057825482559160010191906001019062001bdf565b60018301918390821562001ac05791601f016020900482018281111562001ac057825482559160010191906001019062001bdf565b5b8082111562001ace576000815560010162001c32565b634e487b7160e01b600052602160045260246000fd5b600181811c9082168062001c7357607f821691505b60208210810362001c9457634e487b7160e01b600052602260045260246000fd5b50919050565b61097f8062001caa6000396000f3fe608060405234801561001057600080fd5b50600436106100415760003560e01c80633928d57b1461004657806365e20d1414610064578063835dcac414610084575b600080fd5b61004e610097565b60405161005b919061080f565b60405180910390f35b6100776100723660046108d4565b61033c565b60405161005b91906108fc565b61004e6100923660046108d4565b610406565b61009f6106e2565b60408051610140810190915260008054829060ff16600d8111156100c5576100c5610759565b600d8111156100d6576100d6610759565b81526020016001820180546100ea9061090f565b80601f01602080910402602001604051908101604052809291908181526020018280546101169061090f565b80156101635780601f1061013857610100808354040283529160200191610163565b820191906000526020600020905b81548152906001019060200180831161014657829003601f168201915b5050505050815260200160028201805461017c9061090f565b80601f01602080910402602001604051908101604052809291908181526020018280546101a89061090f565b80156101f55780601f106101ca576101008083540402835291602001916101f5565b820191906000526020600020905b8154815290600101906020018083116101d857829003601f168201915b5050505050815260200160038201805461020e9061090f565b80601f016020809104026020016040519081016040528092919081815260200182805461023a9061090f565b80156102875780601f1061025c57610100808354040283529160200191610287565b820191906000526020600020905b81548152906001019060200180831161026a57829003601f168201915b5050505050815260200160048201548152602001600582015481526020016006820154815260200160078201548152602001600882015481526020016009820160038060200260405190810160405280929190826003801561032e576020028201916000905b82829054906101000a900460ff16600d81111561030c5761030c610759565b8152602060019283018181049485019490930390920291018084116102ed5790505b505050505081525050905090565b6060600a600083600d81111561035457610354610759565b600d81111561036557610365610759565b815260200190815260200160002060010180546103819061090f565b80601f01602080910402602001604051908101604052809291908181526020018280546103ad9061090f565b80156103fa5780601f106103cf576101008083540402835291602001916103fa565b820191906000526020600020905b8154815290600101906020018083116103dd57829003601f168201915b50505050509050919050565b61040e6106e2565b600a600083600d81111561042457610424610759565b600d81111561043557610435610759565b815260208101919091526040908101600020815161014081019092528054829060ff16600d81111561046957610469610759565b600d81111561047a5761047a610759565b815260200160018201805461048e9061090f565b80601f01602080910402602001604051908101604052809291908181526020018280546104ba9061090f565b80156105075780601f106104dc57610100808354040283529160200191610507565b820191906000526020600020905b8154815290600101906020018083116104ea57829003601f168201915b505050505081526020016002820180546105209061090f565b80601f016020809104026020016040519081016040528092919081815260200182805461054c9061090f565b80156105995780601f1061056e57610100808354040283529160200191610599565b820191906000526020600020905b81548152906001019060200180831161057c57829003601f168201915b505050505081526020016003820180546105b29061090f565b80601f01602080910402602001604051908101604052809291908181526020018280546105de9061090f565b801561062b5780601f106106005761010080835404028352916020019161062b565b820191906000526020600020905b81548152906001019060200180831161060e57829003601f168201915b505050505081526020016004820154815260200160058201548152602001600682015481526020016007820154815260200160088201548152602001600982016003806020026040519081016040528092919082600380156106d2576020028201916000905b82829054906101000a900460ff16600d8111156106b0576106b0610759565b8152602060019283018181049485019490930390920291018084116106915790505b5050505050815250509050919050565b6040805161014081019091528060008152602001606081526020016060815260200160608152602001600081526020016000815260200160008152602001600081526020016000815260200161073661073b565b905290565b60405180606001604052806003906020820280368337509192915050565b634e487b7160e01b600052602160045260246000fd5b600e811061078d57634e487b7160e01b600052602160045260246000fd5b9052565b6000815180845260005b818110156107b75760208185018101518683018201520161079b565b818111156107c9576000602083870101525b50601f01601f19169290920160200192915050565b8060005b6003811015610809576107f684835161076f565b60209384019391909101906001016107e2565b50505050565b6020815261082160208201835161076f565b60006020830151610180604084015261083e6101a0840182610791565b90506040840151601f198085840301606086015261085c8383610791565b925060608601519150808584030160808601525061087a8282610791565b915050608084015160a084015260a084015160c084015260c084015160e084015260e08401516101008181860152808601519150506101208181860152808601519150506108cc6101408501826107de565b509392505050565b6000602082840312156108e657600080fd5b8135600e81106108f557600080fd5b9392505050565b6020815260006108f56020830184610791565b600181811c9082168061092357607f821691505b60208210810361094357634e487b7160e01b600052602260045260246000fd5b5091905056fea264697066735822122009de5d7c2fd31c584d8e07287105aa9764efea2ddce4583a34b4104a7d46df7064736f6c634300080d003354686520636f6d666f7274696e6720736d656c6c206f66206120636f6f6b2773206669726520656e746963657320796f752e20596f752066696e6420796f75722077617920746f206120636176652077697468206120736f667420676c6f772c20616e6420736565206120667269656e646c7920776f6d616e20636f6f6b696e672072617420616e6420726f6f7420766567657461626c6573206f7665722074686520666972652e205368652073686172657320736f6d6520666f6f64207769746820796f7520616e642074616c6b732c206576656e7475616c6c7920706f696e74696e6720796f7520696e2074686520726967687420646972656374696f6e2e596f752073706f7420736f6d652062726f6b656e206d696e65206361727420747261636b7320616e64207468696e6b206d617962652074686579206f6e6365206c6564206261636b20746f2074686520737572666163652e2054686520747261636b73206765742068656176696c792065726f64656420617320796f7520636c696d62206869676865722e2e2e206576656e7475616c6c7920636f6c6c617073696e672e20596f752066616c6c206f666620746865207369646520746f2074686520726f636b732062656c6f772e5768696c65206578706c6f72696e67207468657365206c617267652c206d6f73746c7920656d7074792063617665732c20796f75207374756d626c652075706f6e20736f6d6520776f6f64656e20706c616e6b732e204f6e652069732077617270656420617420616e20616e676c6520736f20617320746f20637265617465206120737072696e672e20596f7520676967676c6520617320796f75206a756d7020757020616e6420646f776e2e2054616b696e6720796f7572206c617267657374206a756d70207965742c2074686520776f6f642067697665732077617920617320796f75206a756d7020696e20746865206169722077697468206e6f7468696e672062757420736861727020726f636b7320746f20627265616b20796f75722066616c6c2e4572726f723a2063616e6e6f742064696520617420746865207374617274696e672061726561596f7520656e746572207468652070616c6163652c206f6e6c7920746f2066696e64206974206973206f76657272756e207769746820636c6f616b65642066696775726573206368616e74696e6720696e206120636972636c652e20416c6c2065796573207475726e20746f776172647320796f7520616e6420746865206368616e74696e672067657473206c6f756465722e2041206e756d626572206f66206c617267652063726561747572657320666f726d2066726f6d207468652073616e642061726f756e6420796f752c20616e64207374617274206368617267696e672c206772616262696e6720616e6420736d6f74686572696e6720796f752e20596f752074727920746f206272656174682c206275742063616e206f6e6c7920696e68616c652073616e642e596f752073706f7420736f6d652062726f6b656e206d696e65206361727420747261636b7320616e64207468696e6b206d617962652074686579206f6e6365206c6564206261636b20746f2074686520737572666163652e20556e666f7274756e6174656c792c20746865207061746820686173206265656e207765616b656e65642066726f6d2065726f73696f6e20616e64206173207468652067726f756e64206769766573207761792c20796f7520736c696465206261636b20746f20776865726520796f752063616d652066726f6d2e54696d65206861732064656772616465642074686973206f6c64206c6164646572206d6f7265207468616e206669727374207065726365697665642e20274d61796265206974276c6c206c61737420756e74696c20492072656163682074686520746f703f2720796f7520686f70652c20627574207468656e2073637265616d20617320697420636f6c6c61707365732062656e6561746820796f752e596f75206177616b656e2061742074686520626f74746f6d206f662061206465657020756e7363616c61626c6520636861736d207769746820636176657320696e20616c6c20646972656374696f6e732e2053696c656e63652066696c6c73207468652073706163652061726f756e6420796f752e20596f752063616e207365652063697479206c69676874732061746f702074686520737572666163652e2049742077696c6c2062652061206c6f6e67206a6f75726e657920746f2066696e6420796f757220776179206261636b2075702e546869732063617665206973207061727469616c6c7920626f617264656420757020616e64206c6f6f6b73206c696b6520697420636f756c6420636f6c6c617073652c2062757420796f75206d616e61676520746f2073717565657a65207468726f7567682e20596f7520726f756e642074686520636f726e657220616e64206c6574206f75742061207465727269666965642073717565616c20617320796f7520636f6d65206661636520746f206661636520776974682061206769616e74207370696465722e204c75636b696c7920666f7220796f752c20697427732061736c65657020666f72206e6f772061667465722061206c61726765206d65616c2e202a67756c702a20596f75206361726566756c6c7920736964657374657020746865206769616e74207765627320616e64206d616b6520796f757220776179206f757420746865206f7468657220736964652e546865206f6c64206c61646465722067726f616e7320616e642073717565616b7320617320796f7520636c696d6220757020746f20636f6e74696e7565206f6e2e54686520736d656c6c206f6620736d6f6b6520616e6420736f756e64206f66206c6175676874657220676976657320796f7520686f70652074686174207468657265206d61792062652070656f706c65206e65617262792077696c6c696e6720746f2068656c702e20556e666f7274756e6174656c792c207468656972206c61756768746572207475726e7320746f206361636b6c696e6720617320796f752067657420636c6f73657220616e6420746865792064656369646520796f75277265207468656972206e657874207461726765742e596f752077616c6b206163726f7373207468652064657365727420666f7220686f75727320616e642066696e616c6c79207365652061206c616b6520616e642070616c61636520696e207468652064697374616e63652e20417320796f752067657420636c6f7365722c20796f75207265616c697a652074686520686561742064616e63696e67206f6666207468652073616e6420686173206265656e20706c6179696e6720747269636b73206f6e20796f752c2062757420697420697320746f6f206c6174652e20596f7520636f6c6c617073652066726f6d207468697273742e596f75206865617220612073717565616b20616e64206c6f6f6b20646f776e2e2041206c617267652c2061646f7261626c6520726174207365656d7320746f20626520747279696e6720746f20636f6d6d756e6963617465207769746820796f752e20596f7520666f6c6c6f7720697420646f776e206120706174687761792c2062757420656e642075702067657474696e67206c656420696e746f20612070697420747261702e2057686f20776f756c6420686176652074686f756768743f5768696c65206578706c6f72696e67207468657365206c617267652c206d6f73746c7920656d7074792063617665732c20796f75207374756d626c652075706f6e20736f6d6520776f6f64656e20706c616e6b732e20536f6d65207365656d206c6f6f73652c20616e6420796f752070756c6c206f6e6520757020746f2072657665616c20612074756e6e656c2074686174206c65616473206f75742e596f7520666f6c6c6f772061206d75736b7920736d656c6c20616e642061727269766520617420736f6d65206d757368726f6f6d732067726f77696e6720696e206d616e2d6d61646520626f78657320696e20612063616e646c652d6c69742073656374696f6e206f66206120636176652e20416e206f6c6420707269736f6e657220706f6c6974656c79206f666665727320796f75206f6e652e20596f752074616b65207468652073757374656e616e636520616e64207468616e6b2068696d2c20617320686520706f696e747320796f7520746f776172647320612068696464656e20706174687761792e596f75206865617220612073717565616b20616e64206c6f6f6b20646f776e2e2041206c617267652c2061646f7261626c6520726174207365656d7320746f20626520747279696e6720746f20636f6d6d756e6963617465207769746820796f752e204974207475726e7320616e642073637574746c65732061686561642c207468656e2073746f707320746f206c6f6f6b20617420796f7520616e64207370696e7320696e206120636972636c652e20596f752064656369646520746f20666f6c6c6f772069742e596f752077616c6b20616c6f6e67207468652064657365727420666f7220736f6d652074696d6520616e64206576656e7475616c6c792073656520612070616c61636520696e207468652064697374616e63652c20616e642061206369747920667572746865722061686561642e546865206d696e6573206865726520617265206f6c6420616e64206162616e646f6e6564206e6f772074686174207468656972207265736f75726365732068617665206265656e206861727665737465642e205468652074756e6e656c732073747265746368206f6e20666f722077686174207365656d73206c696b6520686f7572732c2062757420796f75206d616b6520796f757220776179207468726f75676820746865206461726b6e6573732e20546865206d696e65206f70656e7320757020746f2077686174207365656d7320746f20626520616e206f70656e2061726561206f6620616e20756e64657267726f756e6420707269736f6e2e596f7520666f6c6c6f772061206d75736b7920736d656c6c20746f20736f6d652063617665206d757368726f6f6d732c20616e6420796f75722068756e67657220676574732074686520626574746572206f6620796f752e20596f7520726567726574206974206d6f6d656e7473206c61746572206173207061696e2073746172747320746f2073686f6f74207468726f75676820796f7572206775742e20506f69736f6e21596f752077616c6b207468726f7567682061206c6f6e672c206475737479206f6c6420636f727269646f7220616e642070617373207468726f75676820612073747572647920646f6f722e596f7520736e65616b2061726f756e64206c6f6f6b696e6720666f722074686520736f75726365206f6620746865206d75726d7572696e672c20616e642066696e6420612067726f7570206f662067756172647320706c6179696e6720646963652e204e6f7420736e65616b696c7920656e6f7567682c206173206120677561726420696e20746865206c6f6f6b6f757420746f77657220626c6f7773206120686f726e20616e6420616c6c20746865206f7468657220677561726473207475726e20746f776172647320796f7520616e6420647261772074686569722073776f7264732e54686520726f636b732061626f7665206c6f6f6b20736861727020616e642066726167696c652e204f6e652066616c6c7320746f207468652067726f756e64206168656164206f6620796f752c2073686174746572696e672061732069742068697473207468652067726f756e642e20596f75206c6f6f6b207570206173206f6e6520636f6d657320637261636b6c696e6720646f776e2c20616e64206974277320746865206c617374207468696e6720796f75207365652e596f7520736e65616b2061726f756e64206c6f6f6b696e6720666f722074686520736f75726365206f6620746865206d75726d7572696e672c20616e642073656520612067726f7570206f662072616767656420707269736f6e65727320656e7465727461696e696e67207468656d73656c766573207769746820736f6d65206b696e64206f6620626f6e652d746f7373696e672067616d652e20596f7520736e65616b20627920756e64657465637465642e27537572652c2049276c6c20636865636b206f757420746869732066726167696c65206c6f6f6b696e6720636176652e2720796f75207361792c20617320736861727020726f636b732066616c6c2061726f756e6420796f75206c696b65207370696b79206465617468207261696e2e20536f6d65686f7720796f75206d616e61676520796f757220776179207468726f75676820756e736361746865642e546865206e6172726f7720636176652067657473207468696e6e657220616e64207468696e6e657220617320796f752076656e74757265207468726f7567682e20596f752073717565657a6520796f757220776179207468726f7567682061207475726e20616e642073637261706520796f7572206b6e65652e204974206765747320736f206e6172726f77207468617420796f752063616e207475726e20796f757220686561642e20596f752074727920746f20726576657273652c2062757420796f757220666f6f742069732063617567687420616e642074686520636176652073746172747320746f2066696c6c20776974682077617465722e204166746572206661696c656420617474656d70747320746f207374727567676c6520667265652c20796f752064726f776e20696e2074686520636176652e",
  "linkReferences": {},
  "deployedLinkReferences": {}
}