{
  "_format": "hh-sol-artifact-1",
  "contractName": "Game",
  "sourceName": "contracts/Game.sol",
  "abi": [
    {
      "inputs": [
        {
          "internalType": "address",
          "name": "_gameItemsAddress",
          "type": "address"
        },
        {
          "internalType": "address",
          "name": "_owner",
          "type": "address"
        }
      ],
      "stateMutability": "nonpayable",
      "type": "constructor"
    },
    {
      "inputs": [],
      "name": "NULL",
      "outputs": [
        {
          "internalType": "enum GameData.PathType",
          "name": "",
          "type": "uint8"
        }
      ],
      "stateMutability": "view",
      "type": "function"
    },
    {
      "inputs": [],
      "name": "PATHS_TO_CHOOSE",
      "outputs": [
        {
          "internalType": "uint256",
          "name": "",
          "type": "uint256"
        }
      ],
      "stateMutability": "view",
      "type": "function"
    },
    {
      "inputs": [
        {
          "internalType": "uint256",
          "name": "choiceId",
          "type": "uint256"
        }
      ],
      "name": "choosePath",
      "outputs": [],
      "stateMutability": "payable",
      "type": "function"
    },
    {
      "inputs": [
        {
          "internalType": "address",
          "name": "player",
          "type": "address"
        }
      ],
      "name": "fetchCurrentPath",
      "outputs": [
        {
          "components": [
            {
              "internalType": "enum GameData.PathType",
              "name": "pathType",
              "type": "uint8"
            },
            {
              "internalType": "uint256",
              "name": "minGold",
              "type": "uint256"
            },
            {
              "internalType": "uint256",
              "name": "maxGold",
              "type": "uint256"
            },
            {
              "internalType": "uint256",
              "name": "percentKey",
              "type": "uint256"
            },
            {
              "internalType": "uint256",
              "name": "percentTreasure",
              "type": "uint256"
            },
            {
              "internalType": "uint256",
              "name": "percentDeath",
              "type": "uint256"
            },
            {
              "internalType": "enum GameData.PathType[3]",
              "name": "nextPathTypes",
              "type": "uint8[3]"
            }
          ],
          "internalType": "struct GameData.PathData",
          "name": "",
          "type": "tuple"
        }
      ],
      "stateMutability": "view",
      "type": "function"
    },
    {
      "inputs": [
        {
          "internalType": "address",
          "name": "player",
          "type": "address"
        }
      ],
      "name": "fetchPathHistory",
      "outputs": [
        {
          "components": [
            {
              "internalType": "uint256",
              "name": "pathId",
              "type": "uint256"
            },
            {
              "internalType": "enum GameData.PathType",
              "name": "pathType",
              "type": "uint8"
            },
            {
              "internalType": "uint256",
              "name": "gold",
              "type": "uint256"
            },
            {
              "internalType": "address payable",
              "name": "player",
              "type": "address"
            },
            {
              "internalType": "bool",
              "name": "key",
              "type": "bool"
            },
            {
              "internalType": "bool",
              "name": "treasure",
              "type": "bool"
            },
            {
              "internalType": "bool",
              "name": "death",
              "type": "bool"
            }
          ],
          "internalType": "struct Game.Path[]",
          "name": "",
          "type": "tuple[]"
        }
      ],
      "stateMutability": "view",
      "type": "function"
    },
    {
      "inputs": [],
      "name": "gameItemsAddress",
      "outputs": [
        {
          "internalType": "address",
          "name": "",
          "type": "address"
        }
      ],
      "stateMutability": "view",
      "type": "function"
    },
    {
      "inputs": [
        {
          "internalType": "address",
          "name": "player",
          "type": "address"
        }
      ],
      "name": "getBalanceOfGold",
      "outputs": [
        {
          "internalType": "uint256",
          "name": "gold",
          "type": "uint256"
        }
      ],
      "stateMutability": "view",
      "type": "function"
    },
    {
      "inputs": [
        {
          "internalType": "address",
          "name": "player",
          "type": "address"
        }
      ],
      "name": "getBalanceOfKey",
      "outputs": [
        {
          "internalType": "uint256",
          "name": "key",
          "type": "uint256"
        }
      ],
      "stateMutability": "view",
      "type": "function"
    },
    {
      "inputs": [
        {
          "internalType": "address",
          "name": "player",
          "type": "address"
        }
      ],
      "name": "getBalanceOfTreasure",
      "outputs": [
        {
          "internalType": "uint256",
          "name": "treasure",
          "type": "uint256"
        }
      ],
      "stateMutability": "view",
      "type": "function"
    },
    {
      "inputs": [],
      "name": "getInitialPath",
      "outputs": [
        {
          "components": [
            {
              "internalType": "enum GameData.PathType",
              "name": "pathType",
              "type": "uint8"
            },
            {
              "internalType": "uint256",
              "name": "minGold",
              "type": "uint256"
            },
            {
              "internalType": "uint256",
              "name": "maxGold",
              "type": "uint256"
            },
            {
              "internalType": "uint256",
              "name": "percentKey",
              "type": "uint256"
            },
            {
              "internalType": "uint256",
              "name": "percentTreasure",
              "type": "uint256"
            },
            {
              "internalType": "uint256",
              "name": "percentDeath",
              "type": "uint256"
            },
            {
              "internalType": "enum GameData.PathType[3]",
              "name": "nextPathTypes",
              "type": "uint8[3]"
            }
          ],
          "internalType": "struct GameData.PathData",
          "name": "",
          "type": "tuple"
        }
      ],
      "stateMutability": "view",
      "type": "function"
    },
    {
      "inputs": [
        {
          "internalType": "enum GameData.PathType",
          "name": "pathType",
          "type": "uint8"
        }
      ],
      "name": "getPathDataFromType",
      "outputs": [
        {
          "components": [
            {
              "internalType": "enum GameData.PathType",
              "name": "pathType",
              "type": "uint8"
            },
            {
              "internalType": "uint256",
              "name": "minGold",
              "type": "uint256"
            },
            {
              "internalType": "uint256",
              "name": "maxGold",
              "type": "uint256"
            },
            {
              "internalType": "uint256",
              "name": "percentKey",
              "type": "uint256"
            },
            {
              "internalType": "uint256",
              "name": "percentTreasure",
              "type": "uint256"
            },
            {
              "internalType": "uint256",
              "name": "percentDeath",
              "type": "uint256"
            },
            {
              "internalType": "enum GameData.PathType[3]",
              "name": "nextPathTypes",
              "type": "uint8[3]"
            }
          ],
          "internalType": "struct GameData.PathData",
          "name": "",
          "type": "tuple"
        }
      ],
      "stateMutability": "view",
      "type": "function"
    },
    {
      "inputs": [
        {
          "internalType": "address",
          "name": "player",
          "type": "address"
        }
      ],
      "name": "hasWon",
      "outputs": [
        {
          "internalType": "bool",
          "name": "_hasWon",
          "type": "bool"
        }
      ],
      "stateMutability": "view",
      "type": "function"
    },
    {
      "inputs": [
        {
          "internalType": "address",
          "name": "player",
          "type": "address"
        }
      ],
      "name": "isDead",
      "outputs": [
        {
          "internalType": "bool",
          "name": "_isDead",
          "type": "bool"
        }
      ],
      "stateMutability": "view",
      "type": "function"
    },
    {
      "inputs": [
        {
          "internalType": "address",
          "name": "player",
          "type": "address"
        }
      ],
      "name": "isInGame",
      "outputs": [
        {
          "internalType": "bool",
          "name": "_isInGame",
          "type": "bool"
        }
      ],
      "stateMutability": "view",
      "type": "function"
    },
    {
      "inputs": [
        {
          "internalType": "address",
          "name": "",
          "type": "address"
        },
        {
          "internalType": "address",
          "name": "",
          "type": "address"
        },
        {
          "internalType": "uint256[]",
          "name": "",
          "type": "uint256[]"
        },
        {
          "internalType": "uint256[]",
          "name": "",
          "type": "uint256[]"
        },
        {
          "internalType": "bytes",
          "name": "",
          "type": "bytes"
        }
      ],
      "name": "onERC1155BatchReceived",
      "outputs": [
        {
          "internalType": "bytes4",
          "name": "",
          "type": "bytes4"
        }
      ],
      "stateMutability": "nonpayable",
      "type": "function"
    },
    {
      "inputs": [
        {
          "internalType": "address",
          "name": "",
          "type": "address"
        },
        {
          "internalType": "address",
          "name": "",
          "type": "address"
        },
        {
          "internalType": "uint256",
          "name": "",
          "type": "uint256"
        },
        {
          "internalType": "uint256",
          "name": "",
          "type": "uint256"
        },
        {
          "internalType": "bytes",
          "name": "",
          "type": "bytes"
        }
      ],
      "name": "onERC1155Received",
      "outputs": [
        {
          "internalType": "bytes4",
          "name": "",
          "type": "bytes4"
        }
      ],
      "stateMutability": "nonpayable",
      "type": "function"
    },
    {
      "inputs": [],
      "name": "openTreasureWithKey",
      "outputs": [],
      "stateMutability": "payable",
      "type": "function"
    },
    {
      "inputs": [],
      "name": "owner",
      "outputs": [
        {
          "internalType": "address",
          "name": "",
          "type": "address"
        }
      ],
      "stateMutability": "view",
      "type": "function"
    },
    {
      "inputs": [],
      "name": "startGame",
      "outputs": [],
      "stateMutability": "payable",
      "type": "function"
    },
    {
      "inputs": [
        {
          "internalType": "bytes4",
          "name": "interfaceId",
          "type": "bytes4"
        }
      ],
      "name": "supportsInterface",
      "outputs": [
        {
          "internalType": "bool",
          "name": "",
          "type": "bool"
        }
      ],
      "stateMutability": "view",
      "type": "function"
    },
    {
      "inputs": [
        {
          "internalType": "uint256",
          "name": "",
          "type": "uint256"
        }
      ],
      "name": "uri",
      "outputs": [
        {
          "internalType": "string",
          "name": "",
          "type": "string"
        }
      ],
      "stateMutability": "view",
      "type": "function"
    }
  ],
  "bytecode": "0x60806040523480156200001157600080fd5b50604051620034b3380380620034b3833981016040819052620000349162001164565b600160009081556040805160e081019091529081908152602001600081526020016000815260200160008152602001600081526020016000815260200160405180606001604052806001600d8111156200009257620000926200119c565b600d811115620000a657620000a66200119c565b81526020016002815260200160039052905260096000808152602081019190915260400160002081518154829060ff1916600183600d811115620000ee57620000ee6200119c565b02179055506020820151816001015560408201518160020155606082015181600301556080820151816004015560a0820151816005015560c0820151816006019060036200013e92919062000fd2565b50506040805160e081019091529050806001815260200161019081526020016101f48152602001600f8152602001600a81526020016032815260200160405180606001604052806008600d8111156200019b576200019b6200119c565b600d811115620001af57620001af6200119c565b8152602001600681526020016004905290526009600060018152602081019190915260400160002081518154829060ff1916600183600d811115620001f857620001f86200119c565b02179055506020820151816001015560408201518160020155606082015181600301556080820151816004015560a0820151816005015560c0820151816006019060036200024892919062000fd2565b50506040805160e081019091529050806002815260200160c88152602001610190815260200160058152602001600a81526020016019815260200160405180606001604052806009600d811115620002a457620002a46200119c565b600d811115620002b857620002b86200119c565b8152602001600181526020016008905290526009600060028152602081019190915260400160002081518154829060ff1916600183600d8111156200030157620003016200119c565b02179055506020820151816001015560408201518160020155606082015181600301556080820151816004015560a0820151816005015560c0820151816006019060036200035192919062000fd2565b50506040805160e0810190915290508060038152602001603281526020016064815260200160198152602001600081526020016000815260200160405180606001604052806007600d811115620003ac57620003ac6200119c565b600d811115620003c057620003c06200119c565b8152602001600a8152602001600b905290526009600060038152602081019190915260400160002081518154829060ff1916600183600d8111156200040957620004096200119c565b02179055506020820151816001015560408201518160020155606082015181600301556080820151816004015560a0820151816005015560c0820151816006019060036200045992919062000fd2565b50506040805160e08101909152905080600481526020016064815260200160c881526020016019815260200160058152602001600f815260200160405180606001604052806001600d811115620004b457620004b46200119c565b600d811115620004c857620004c86200119c565b815260200160098152602001600a905290526009600060048152602081019190915260400160002081518154829060ff1916600183600d8111156200051157620005116200119c565b02179055506020820151816001015560408201518160020155606082015181600301556080820151816004015560a0820151816005015560c0820151816006019060036200056192919062000fd2565b50506040805160e081019091529050806005815260200161032081526020016103e881526020016046815260200160008152602001601e815260200160405180606001604052806009600d811115620005be57620005be6200119c565b600d811115620005d257620005d26200119c565b8152602001600181526020016006905290526009600060058152602081019190915260400160002081518154829060ff1916600183600d8111156200061b576200061b6200119c565b02179055506020820151816001015560408201518160020155606082015181600301556080820151816004015560a0820151816005015560c0820151816006019060036200066b92919062000fd2565b50506040805160e081019091529050806006815260200161019081526020016101f48152602001600f8152602001600a8152602001601e815260200160405180606001604052806007600d811115620006c857620006c86200119c565b600d811115620006dc57620006dc6200119c565b8152602001600381526020016005905290526009600060068152602081019190915260400160002081518154829060ff1916600183600d8111156200072557620007256200119c565b02179055506020820151816001015560408201518160020155606082015181600301556080820151816004015560a0820151816005015560c0820151816006019060036200077592919062000fd2565b50506040805160e08101909152905080600781526020016064815260200160c88152602001600f8152602001600a81526020016000815260200160405180606001604052806005600d811115620007d057620007d06200119c565b600d811115620007e457620007e46200119c565b815260200160068152602001600b905290526009600060078152602081019190915260400160002081518154829060ff1916600183600d8111156200082d576200082d6200119c565b02179055506020820151816001015560408201518160020155606082015181600301556080820151816004015560a0820151816005015560c0820151816006019060036200087d92919062000fd2565b50506040805160e081019091529050806008815260200160c8815260200161012c8152602001600f8152602001603281526020016032815260200160405180606001604052806005600d811115620008d957620008d96200119c565b600d811115620008ed57620008ed6200119c565b8152602001600c8152602001600d905290526009600060088152602081019190915260400160002081518154829060ff1916600183600d8111156200093657620009366200119c565b02179055506020820151816001015560408201518160020155606082015181600301556080820151816004015560a0820151816005015560c0820151816006019060036200098692919062000fd2565b50506040805160e081019091529050806009815260200161019081526020016101f4815260200160468152602001600a81526020016023815260200160405180606001604052806008600d811115620009e357620009e36200119c565b600d811115620009f757620009f76200119c565b8152602001600b8152602001600d9052905260096000818152602081019190915260400160002081518154829060ff1916600183600d81111562000a3f5762000a3f6200119c565b02179055506020820151816001015560408201518160020155606082015181600301556080820151816004015560a0820151816005015560c08201518160060190600362000a8f92919062000fd2565b50506040805160e08101909152905080600a81526020016064815260200160c88152602001600f8152602001603c81526020016005815260200160405180606001604052806005600d81111562000aea5762000aea6200119c565b600d81111562000afe5762000afe6200119c565b815260200160048152602001600c9052905260096000600a8152602081019190915260400160002081518154829060ff1916600183600d81111562000b475762000b476200119c565b02179055506020820151816001015560408201518160020155606082015181600301556080820151816004015560a0820151816005015560c08201518160060190600362000b9792919062000fd2565b50506040805160e08101909152905080600b81526020016103e881526020016109c48152602001600f8152602001600a8152602001601e815260200160405180606001604052806004600d81111562000bf45762000bf46200119c565b600d81111562000c085762000c086200119c565b8152602001600c815260200160079052905260096000600b8152602081019190915260400160002081518154829060ff1916600183600d81111562000c515762000c516200119c565b02179055506020820151816001015560408201518160020155606082015181600301556080820151816004015560a0820151816005015560c08201518160060190600362000ca192919062000fd2565b50506040805160e08101909152905080600c81526020016103e881526020016109c48152602001600f8152602001600f81526020016028815260200160405180606001604052806005600d81111562000cfe5762000cfe6200119c565b600d81111562000d125762000d126200119c565b8152602001600c8152602001600d9052905260096000600c8152602081019190915260400160002081518154829060ff1916600183600d81111562000d5b5762000d5b6200119c565b02179055506020820151816001015560408201518160020155606082015181600301556080820151816004015560a0820151816005015560c08201518160060190600362000dab92919062000fd2565b50506040805160e08101909152905080600d8152602001611388815260200161c35081526020016000815260200160648152602001601981526020016040518060600160405280600d8081111562000e075762000e076200119c565b600d81111562000e1b5762000e1b6200119c565b8152602001600d8152602001600d9052905260096000600d8152602081019190915260400160002081518154829060ff1916600183600d81111562000e645762000e646200119c565b02179055506020820151816001015560408201518160020155606082015181600301556080820151816004015560a0820151816005015560c08201518160060190600362000eb492919062000fd2565b5050600080525060096020527fec8156718a8372b1db44bb411437d0870f3e3790d4a08526d024ce1b0b668f6b805460028054909160ff1690829060ff1916600183600d81111562000f0a5762000f0a6200119c565b02179055506001820154816001015560028201548160020155600382015481600301556004820154816004015560058201548160050155600682018160060190600362000f599291906200107d565b509050506040518060800160405280604c815260200162003467604c9139805162000f8d91600191602090910190620010b3565b50600b80546001600160a01b039384166001600160a01b03199182168117909255600c80549390941692811692909217909255600d80549091169091179055620011ee565b6001830191839082156200106b5791602002820160005b838211156200103a57835183826101000a81548160ff0219169083600d8111156200101857620010186200119c565b0217905550926020019260010160208160000104928301926001030262000fe9565b8015620010695782816101000a81549060ff02191690556001016020816000010492830192600103026200103a565b505b506200107992915062001130565b5090565b6001830191839082156200106b5791601f016020900482015b828111156200106b57825482559160010191906001019062001096565b828054620010c190620011b2565b90600052602060002090601f016020900481019282620010e557600085556200106b565b82601f106200110057805160ff19168380011785556200106b565b828001600101855582156200106b579182015b828111156200106b57825182559160200191906001019062001113565b5b8082111562001079576000815560010162001131565b80516001600160a01b03811681146200115f57600080fd5b919050565b600080604083850312156200117857600080fd5b620011838362001147565b9150620011936020840162001147565b90509250929050565b634e487b7160e01b600052602160045260246000fd5b600181811c90821680620011c757607f821691505b602082108103620011e857634e487b7160e01b600052602260045260246000fd5b50919050565b61226980620011fe6000396000f3fe60806040526004361061012a5760003560e01c8063a52b2b88116100ab578063bcddf3891161006f578063bcddf38914610368578063d65ab5f214610388578063ef55264314610390578063f23a6e61146103b0578063f26be3fc146103dc578063fe693f1e146103fe57600080fd5b8063a52b2b88146102a3578063a94320a7146102c3578063b0917b87146102d6578063b75746ca146102f6578063bc197c811461032357600080fd5b8063569174cf116100f2578063569174cf14610201578063607d3c771461020b57806376e033c71461022b578063835dcac41461024b5780638da5cb5b1461026b57600080fd5b806301ffc9a71461012f5780630e89341c14610164578063106630ba1461019157806328349c8f146101bf5780633928d57b146101df575b600080fd5b34801561013b57600080fd5b5061014f61014a366004611c08565b610413565b60405190151581526020015b60405180910390f35b34801561017057600080fd5b5061018461017f366004611c32565b61044a565b60405161015b9190611c4b565b34801561019d57600080fd5b506101b16101ac366004611cbc565b6104de565b60405190815260200161015b565b3480156101cb57600080fd5b5061014f6101da366004611cbc565b6105cd565b3480156101eb57600080fd5b506101f4610606565b60405161015b9190611d0f565b6102096106f4565b005b34801561021757600080fd5b506101b1610226366004611cbc565b610c7e565b34801561023757600080fd5b5061014f610246366004611cbc565b610cd5565b34801561025757600080fd5b506101f4610266366004611d8f565b610cde565b34801561027757600080fd5b50600c5461028b906001600160a01b031681565b6040516001600160a01b03909116815260200161015b565b3480156102af57600080fd5b5061014f6102be366004611cbc565b610e03565b6102096102d1366004611c32565b610e0c565b3480156102e257600080fd5b506101b16102f1366004611cbc565b611551565b34801561030257600080fd5b50610316610311366004611cbc565b6115a8565b60405161015b9190611db0565b34801561032f57600080fd5b5061034f61033e366004611f81565b63bc197c8160e01b95945050505050565b6040516001600160e01b0319909116815260200161015b565b34801561037457600080fd5b50600b5461028b906001600160a01b031681565b6102096117fd565b34801561039c57600080fd5b506101f46103ab366004611cbc565b611930565b3480156103bc57600080fd5b5061034f6103cb36600461202b565b63f23a6e6160e01b95945050505050565b3480156103e857600080fd5b506103f1600081565b60405161015b9190612090565b34801561040a57600080fd5b506101b1600381565b60006001600160e01b03198216630271189760e51b148061044457506301ffc9a760e01b6001600160e01b03198316145b92915050565b6060600180546104599061209e565b80601f01602080910402602001604051908101604052809291908181526020018280546104859061209e565b80156104d25780601f106104a7576101008083540402835291602001916104d2565b820191906000526020600020905b8154815290600101906020018083116104b557829003601f168201915b50505050509050919050565b600d546040805163df8b193760e01b8152905160009283926001600160a01b039091169162fdd58e918691849163df8b19379160048083019260209291908290030181865afa158015610535573d6000803e3d6000fd5b505050506040513d601f19601f8201168201806040525081019061055991906120d2565b6040516001600160e01b031960e085901b1681526001600160a01b0390921660048301526024820152604401602060405180830381865afa1580156105a2573d6000803e3d6000fd5b505050506040513d601f19601f820116820180604052508101906105c691906120d2565b9392505050565b600060025b6001600160a01b03831660009081526010602052604090205460ff1660038111156105ff576105ff611cd7565b1492915050565b61060e611af1565b6040805160e0810190915260028054829060ff16600d81111561063357610633611cd7565b600d81111561064457610644611cd7565b81526020016001820154815260200160028201548152602001600382015481526020016004820154815260200160058201548152602001600682016003806020026040519081016040528092919082600380156106e6576020028201916000905b82829054906101000a900460ff16600d8111156106c4576106c4611cd7565b8152602060019283018181049485019490930390920291018084116106a55790505b505050505081525050905090565b60026000540361071f5760405162461bcd60e51b8152600401610716906120eb565b60405180910390fd5b60026000908155600d546040805163df8b193760e01b815290516001600160a01b039092169162fdd58e913391849163df8b19379160048083019260209291908290030181865afa158015610778573d6000803e3d6000fd5b505050506040513d601f19601f8201168201806040525081019061079c91906120d2565b6040516001600160e01b031960e085901b1681526001600160a01b0390921660048301526024820152604401602060405180830381865afa1580156107e5573d6000803e3d6000fd5b505050506040513d601f19601f8201168201806040525081019061080991906120d2565b116108565760405162461bcd60e51b815260206004820152601c60248201527f596f752068617665206e6f20547265617375726520746f206f70656e000000006044820152606401610716565b600d5460408051632dc387b360e01b815290516000926001600160a01b03169162fdd58e9133918491632dc387b3916004808201926020929091908290030181865afa1580156108aa573d6000803e3d6000fd5b505050506040513d601f19601f820116820180604052508101906108ce91906120d2565b6040516001600160e01b031960e085901b1681526001600160a01b0390921660048301526024820152604401602060405180830381865afa158015610917573d6000803e3d6000fd5b505050506040513d601f19601f8201168201806040525081019061093b91906120d2565b116109965760405162461bcd60e51b815260206004820152602560248201527f596f752068617665206e6f204b657920746f206f70656e20796f757220547265604482015264617375726560d81b6064820152608401610716565b6040805160028082526060820183526000926020830190803683375050600d5460408051632dc387b360e01b815290519394506001600160a01b0390911692632dc387b3925060048083019260209291908290030181865afa158015610a00573d6000803e3d6000fd5b505050506040513d601f19601f82011682018060405250810190610a2491906120d2565b81600081518110610a3757610a37612122565b602090810291909101810191909152600d546040805163df8b193760e01b815290516001600160a01b039092169263df8b1937926004808401938290030181865afa158015610a8a573d6000803e3d6000fd5b505050506040513d601f19601f82011682018060405250810190610aae91906120d2565b81600181518110610ac157610ac1612122565b602090810291909101015260408051600280825260608201909252600091816020016020820280368337019050509050600181600081518110610b0657610b06612122565b602002602001018181525050600181600181518110610b2757610b27612122565b6020908102919091010152600d5460405163e26c3c8d60e01b81526001600160a01b039091169063e26c3c8d90610b6690339086908690600401612173565b600060405180830381600087803b158015610b8057600080fd5b505af1158015610b94573d6000803e3d6000fd5b5050600d54604080516307c97dc760e31b815290516001600160a01b0390921693506323a36d2b925033918491633e4bee389160048083019260209291908290030181865afa158015610beb573d6000803e3d6000fd5b505050506040513d601f19601f82011682018060405250810190610c0f91906120d2565b6040516001600160e01b031960e085901b1681526001600160a01b03909216600483015260248201526127106044820152606401600060405180830381600087803b158015610c5d57600080fd5b505af1158015610c71573d6000803e3d6000fd5b5050600160005550505050565b600d54604080516307c97dc760e31b8152905160009283926001600160a01b039091169162fdd58e9186918491633e4bee389160048083019260209291908290030181865afa158015610535573d6000803e3d6000fd5b600060016105d2565b610ce6611af1565b6009600083600d811115610cfc57610cfc611cd7565b600d811115610d0d57610d0d611cd7565b815260208101919091526040908101600020815160e081019092528054829060ff16600d811115610d4057610d40611cd7565b600d811115610d5157610d51611cd7565b8152602001600182015481526020016002820154815260200160038201548152602001600482015481526020016005820154815260200160068201600380602002604051908101604052809291908260038015610df3576020028201916000905b82829054906101000a900460ff16600d811115610dd157610dd1611cd7565b815260206001928301818104948501949093039092029101808411610db25790505b5050505050815250509050919050565b600060036105d2565b600260005403610e2e5760405162461bcd60e51b8152600401610716906120eb565b600260005560013360009081526010602052604090205460ff166003811115610e5957610e59611cd7565b14610e945760405162461bcd60e51b815260206004820152600b60248201526a6e6f7420696e2067616d6560a81b6044820152606401610716565b60038110610ee45760405162461bcd60e51b815260206004820152601c60248201527f596f75206d7573742073656c65637420612076616c69642070617468000000006044820152606401610716565b610ef2600a80546001019055565b6000610efd600a5490565b336000908152600f602052604080822081516060810192839052939450919291600601906003908285855b82829054906101000a900460ff16600d811115610f4757610f47611cd7565b815260206001928301818104948501949093039092029101808411610f28579050505050505090506000818460038110610f8357610f83612122565b602002015190506000610f9582610cde565b90506000610fa36004611a35565b90506000806000808560a00151606486600081518110610fc557610fc5612122565b6020026020010151610fd791906121b3565b1090508015610fff57336000908152601060205260409020805460ff191660021790556113b3565b602086015160408701516110149082906121eb565b8660018151811061102757611027612122565b602002602001015161103991906121b3565b6110439190612202565b9350856060015160648660028151811061105f5761105f612122565b602002602001015161107191906121b3565b109250856080015160648660038151811061108e5761108e612122565b60200260200101516110a091906121b3565b6040805160038082526080820190925292909110935060009190602082016060803683375050600d54604080516307c97dc760e31b815290519394506001600160a01b0390911692633e4bee38925060048083019260209291908290030181865afa158015611113573d6000803e3d6000fd5b505050506040513d601f19601f8201168201806040525081019061113791906120d2565b8160008151811061114a5761114a612122565b602090810291909101810191909152600d5460408051632dc387b360e01b815290516001600160a01b0390921692632dc387b3926004808401938290030181865afa15801561119d573d6000803e3d6000fd5b505050506040513d601f19601f820116820180604052508101906111c191906120d2565b816001815181106111d4576111d4612122565b602090810291909101810191909152600d546040805163df8b193760e01b815290516001600160a01b039092169263df8b1937926004808401938290030181865afa158015611227573d6000803e3d6000fd5b505050506040513d601f19601f8201168201806040525081019061124b91906120d2565b8160028151811061125e5761125e612122565b60209081029190910101526040805160038082526080820190925260009181602001602082028036833701905050905085816000815181106112a2576112a2612122565b602002602001018181525050846112ba5760006112bd565b60015b60ff16816001815181106112d3576112d3612122565b602002602001018181525050836112eb5760006112ee565b60015b60ff168160028151811061130457611304612122565b6020908102919091010152600d5460405163f0f31b1d60e01b81526001600160a01b039091169063f0f31b1d9061134390339086908690600401612173565b600060405180830381600087803b15801561135d57600080fd5b505af1158015611371573d6000803e3d6000fd5b50600d925061137e915050565b89600d81111561139057611390611cd7565b036113b057336000908152601060205260409020805460ff191660031790555b50505b336000908152600f602052604090208651815488929190829060ff1916600183600d8111156113e4576113e4611cd7565b02179055506020820151816001015560408201518160020155606082015181600301556080820151816004015560a0820151816005015560c082015181600601906003611432929190611b34565b509050506040518060e001604052808a815260200188600d81111561145957611459611cd7565b81526020808201879052336040808401919091528615156060840152851515608084015284151560a09093019290925260008c8152600e825291909120825181559082015160018083018054909160ff199091169083600d8111156114c0576114c0611cd7565b021790555060408201516002820155606082015160039091018054608084015160a085015160c0909501511515600160b01b0260ff60b01b19951515600160a81b029590951661ffff60a81b19911515600160a01b026001600160a81b03199093166001600160a01b0390951694909417919091171691909117919091179055505060016000555050505050505050565b600d5460408051632dc387b360e01b8152905160009283926001600160a01b039091169162fdd58e9186918491632dc387b39160048083019260209291908290030181865afa158015610535573d6000803e3d6000fd5b606060006115b5600a5490565b905060008060005b83811015611620576001600160a01b038616600e60006115de846001612202565b81526020810191909152604001600020600301546001600160a01b03160361160e5761160b600184612202565b92505b806116188161221a565b9150506115bd565b5060008267ffffffffffffffff81111561163c5761163c611e4a565b6040519080825280602002602001820160405280156116a357816020015b6040805160e08101825260008082526020808301829052928201819052606082018190526080820181905260a0820181905260c0820152825260001990920191018161165a5790505b50905060005b848110156117f3576001600160a01b038716600e60006116ca846001612202565b81526020810191909152604001600020600301546001600160a01b0316036117e1576000600e816116fc846001612202565b81526020808201929092526040908101600090812054808252600e845290829020825160e081019093528054835260018101549194509283919083019060ff16600d81111561174d5761174d611cd7565b600d81111561175e5761175e611cd7565b8152600282015460208201526003909101546001600160a01b038116604083015260ff600160a01b8204811615156060840152600160a81b8204811615156080840152600160b01b90910416151560a09091015284518590879081106117c6576117c6612122565b60209081029190910101526117dc600186612202565b945050505b806117eb8161221a565b9150506116a9565b5095945050505050565b60026000540361181f5760405162461bcd60e51b8152600401610716906120eb565b600260005560013360009081526010602052604090205460ff16600381111561184a5761184a611cd7565b036118895760405162461bcd60e51b815260206004820152600f60248201526e616c726561647920696e2067616d6560881b6044820152606401610716565b611891610606565b336000908152600f6020526040902081518154829060ff1916600183600d8111156118be576118be611cd7565b02179055506020820151816001015560408201518160020155606082015181600301556080820151816004015560a0820151816005015560c08201518160060190600361190c929190611b34565b5050336000908152601060205260408120805460ff19166001908117909155905550565b611938611af1565b6001600160a01b0382166000908152600f602052604090819020815160e081019092528054829060ff16600d81111561197357611973611cd7565b600d81111561198457611984611cd7565b8152602001600182015481526020016002820154815260200160038201548152602001600482015481526020016005820154815260200160068201600380602002604051908101604052809291908260038015610df3576020028201916000905b82829054906101000a900460ff16600d811115611a0457611a04611cd7565b8152602060019283018181049485019490930390920291018084116119e55790505050505050815250509050919050565b60608167ffffffffffffffff811115611a5057611a50611e4a565b604051908082528060200260200182016040528015611a79578160200160208202803683370190505b50905060005b82811015611aeb57604080514460208201524291810191909152606081018290526080016040516020818303038152906040528051906020012060001c828281518110611ace57611ace612122565b602090810291909101015280611ae38161221a565b915050611a7f565b50919050565b6040805160e0810190915280600081526020016000815260200160008152602001600081526020016000815260200160008152602001611b2f611bd5565b905290565b600183019183908215611bc55791602002820160005b83821115611b9657835183826101000a81548160ff0219169083600d811115611b7557611b75611cd7565b02179055509260200192600101602081600001049283019260010302611b4a565b8015611bc35782816101000a81549060ff0219169055600101602081600001049283019260010302611b96565b505b50611bd1929150611bf3565b5090565b60405180606001604052806003906020820280368337509192915050565b5b80821115611bd15760008155600101611bf4565b600060208284031215611c1a57600080fd5b81356001600160e01b0319811681146105c657600080fd5b600060208284031215611c4457600080fd5b5035919050565b600060208083528351808285015260005b81811015611c7857858101830151858201604001528201611c5c565b81811115611c8a576000604083870101525b50601f01601f1916929092016040019392505050565b80356001600160a01b0381168114611cb757600080fd5b919050565b600060208284031215611cce57600080fd5b6105c682611ca0565b634e487b7160e01b600052602160045260246000fd5b600e8110611d0b57634e487b7160e01b600052602160045260246000fd5b9052565b600061012082019050611d23828451611ced565b6020808401518184015260408401516040840152606084015160608401526080840151608084015260a084015160a084015260c084015160c0840160005b6003811015611d8557611d75828451611ced565b9183019190830190600101611d61565b5050505092915050565b600060208284031215611da157600080fd5b8135600e81106105c657600080fd5b602080825282518282018190526000919060409081850190868401855b82811015611e3d5781518051855286810151611deb88870182611ced565b5080860151858701526060808201516001600160a01b03169086015260808082015115159086015260a08082015115159086015260c09081015115159085015260e09093019290850190600101611dcd565b5091979650505050505050565b634e487b7160e01b600052604160045260246000fd5b604051601f8201601f1916810167ffffffffffffffff81118282101715611e8957611e89611e4a565b604052919050565b600082601f830112611ea257600080fd5b8135602067ffffffffffffffff821115611ebe57611ebe611e4a565b8160051b611ecd828201611e60565b9283528481018201928281019087851115611ee757600080fd5b83870192505b84831015611f0657823582529183019190830190611eed565b979650505050505050565b600082601f830112611f2257600080fd5b813567ffffffffffffffff811115611f3c57611f3c611e4a565b611f4f601f8201601f1916602001611e60565b818152846020838601011115611f6457600080fd5b816020850160208301376000918101602001919091529392505050565b600080600080600060a08688031215611f9957600080fd5b611fa286611ca0565b9450611fb060208701611ca0565b9350604086013567ffffffffffffffff80821115611fcd57600080fd5b611fd989838a01611e91565b94506060880135915080821115611fef57600080fd5b611ffb89838a01611e91565b9350608088013591508082111561201157600080fd5b5061201e88828901611f11565b9150509295509295909350565b600080600080600060a0868803121561204357600080fd5b61204c86611ca0565b945061205a60208701611ca0565b93506040860135925060608601359150608086013567ffffffffffffffff81111561208457600080fd5b61201e88828901611f11565b602081016104448284611ced565b600181811c908216806120b257607f821691505b602082108103611aeb57634e487b7160e01b600052602260045260246000fd5b6000602082840312156120e457600080fd5b5051919050565b6020808252601f908201527f5265656e7472616e637947756172643a207265656e7472616e742063616c6c00604082015260600190565b634e487b7160e01b600052603260045260246000fd5b600081518084526020808501945080840160005b838110156121685781518752958201959082019060010161214c565b509495945050505050565b6001600160a01b038416815260606020820181905260009061219790830185612138565b82810360408401526121a98185612138565b9695505050505050565b6000826121d057634e487b7160e01b600052601260045260246000fd5b500690565b634e487b7160e01b600052601160045260246000fd5b6000828210156121fd576121fd6121d5565b500390565b60008219821115612215576122156121d5565b500190565b60006001820161222c5761222c6121d5565b506001019056fea2646970667358221220b2df12aedac51af3c505fa704df1db576847559267bdbcfee850356eaecb00f464736f6c634300080d0033697066733a2f2f6261667962656963696673633371617a6f717361676564326a766c337978783676696f6261346463686363793269357175326a6c6b7a7a373764752f7b69647d2e6a736f6e",
  "linkReferences": {},
  "deployedLinkReferences": {}
}