{
  "_format": "hh-sol-artifact-1",
  "contractName": "Game",
  "sourceName": "contracts/Game.sol",
  "abi": [
    {
      "inputs": [
        {
          "internalType": "address",
          "name": "_gameItemsAddress",
          "type": "address"
        },
        {
          "internalType": "address",
          "name": "_owner",
          "type": "address"
        }
      ],
      "stateMutability": "nonpayable",
      "type": "constructor"
    },
    {
      "inputs": [],
      "name": "NULL",
      "outputs": [
        {
          "internalType": "enum GameData.PathType",
          "name": "",
          "type": "uint8"
        }
      ],
      "stateMutability": "view",
      "type": "function"
    },
    {
      "inputs": [],
      "name": "PATHS_TO_CHOOSE",
      "outputs": [
        {
          "internalType": "uint256",
          "name": "",
          "type": "uint256"
        }
      ],
      "stateMutability": "view",
      "type": "function"
    },
    {
      "inputs": [
        {
          "internalType": "uint256",
          "name": "choiceId",
          "type": "uint256"
        }
      ],
      "name": "choosePath",
      "outputs": [],
      "stateMutability": "payable",
      "type": "function"
    },
    {
      "inputs": [
        {
          "internalType": "address",
          "name": "player",
          "type": "address"
        }
      ],
      "name": "fetchCurrentPath",
      "outputs": [
        {
          "components": [
            {
              "internalType": "enum GameData.PathType",
              "name": "pathType",
              "type": "uint8"
            },
            {
              "internalType": "uint256",
              "name": "minGold",
              "type": "uint256"
            },
            {
              "internalType": "uint256",
              "name": "maxGold",
              "type": "uint256"
            },
            {
              "internalType": "uint256",
              "name": "percentKey",
              "type": "uint256"
            },
            {
              "internalType": "uint256",
              "name": "percentTreasure",
              "type": "uint256"
            },
            {
              "internalType": "uint256",
              "name": "percentDeath",
              "type": "uint256"
            },
            {
              "internalType": "enum GameData.PathType[3]",
              "name": "nextPathTypes",
              "type": "uint8[3]"
            }
          ],
          "internalType": "struct GameData.PathData",
          "name": "",
          "type": "tuple"
        }
      ],
      "stateMutability": "view",
      "type": "function"
    },
    {
      "inputs": [
        {
          "internalType": "address",
          "name": "player",
          "type": "address"
        }
      ],
      "name": "fetchPathHistory",
      "outputs": [
        {
          "components": [
            {
              "internalType": "uint256",
              "name": "pathId",
              "type": "uint256"
            },
            {
              "internalType": "enum GameData.PathType",
              "name": "pathType",
              "type": "uint8"
            },
            {
              "internalType": "uint256",
              "name": "gold",
              "type": "uint256"
            },
            {
              "internalType": "address payable",
              "name": "player",
              "type": "address"
            },
            {
              "internalType": "bool",
              "name": "key",
              "type": "bool"
            },
            {
              "internalType": "bool",
              "name": "treasure",
              "type": "bool"
            },
            {
              "internalType": "bool",
              "name": "death",
              "type": "bool"
            }
          ],
          "internalType": "struct Game.Path[]",
          "name": "",
          "type": "tuple[]"
        }
      ],
      "stateMutability": "view",
      "type": "function"
    },
    {
      "inputs": [],
      "name": "gameItemsAddress",
      "outputs": [
        {
          "internalType": "address",
          "name": "",
          "type": "address"
        }
      ],
      "stateMutability": "view",
      "type": "function"
    },
    {
      "inputs": [
        {
          "internalType": "address",
          "name": "player",
          "type": "address"
        }
      ],
      "name": "getBalanceOfGold",
      "outputs": [
        {
          "internalType": "uint256",
          "name": "gold",
          "type": "uint256"
        }
      ],
      "stateMutability": "view",
      "type": "function"
    },
    {
      "inputs": [
        {
          "internalType": "address",
          "name": "player",
          "type": "address"
        }
      ],
      "name": "getBalanceOfKey",
      "outputs": [
        {
          "internalType": "uint256",
          "name": "key",
          "type": "uint256"
        }
      ],
      "stateMutability": "view",
      "type": "function"
    },
    {
      "inputs": [
        {
          "internalType": "address",
          "name": "player",
          "type": "address"
        }
      ],
      "name": "getBalanceOfTreasure",
      "outputs": [
        {
          "internalType": "uint256",
          "name": "treasure",
          "type": "uint256"
        }
      ],
      "stateMutability": "view",
      "type": "function"
    },
    {
      "inputs": [],
      "name": "getInitialPath",
      "outputs": [
        {
          "components": [
            {
              "internalType": "enum GameData.PathType",
              "name": "pathType",
              "type": "uint8"
            },
            {
              "internalType": "uint256",
              "name": "minGold",
              "type": "uint256"
            },
            {
              "internalType": "uint256",
              "name": "maxGold",
              "type": "uint256"
            },
            {
              "internalType": "uint256",
              "name": "percentKey",
              "type": "uint256"
            },
            {
              "internalType": "uint256",
              "name": "percentTreasure",
              "type": "uint256"
            },
            {
              "internalType": "uint256",
              "name": "percentDeath",
              "type": "uint256"
            },
            {
              "internalType": "enum GameData.PathType[3]",
              "name": "nextPathTypes",
              "type": "uint8[3]"
            }
          ],
          "internalType": "struct GameData.PathData",
          "name": "",
          "type": "tuple"
        }
      ],
      "stateMutability": "view",
      "type": "function"
    },
    {
      "inputs": [
        {
          "internalType": "enum GameData.PathType",
          "name": "pathType",
          "type": "uint8"
        }
      ],
      "name": "getPathDataFromType",
      "outputs": [
        {
          "components": [
            {
              "internalType": "enum GameData.PathType",
              "name": "pathType",
              "type": "uint8"
            },
            {
              "internalType": "uint256",
              "name": "minGold",
              "type": "uint256"
            },
            {
              "internalType": "uint256",
              "name": "maxGold",
              "type": "uint256"
            },
            {
              "internalType": "uint256",
              "name": "percentKey",
              "type": "uint256"
            },
            {
              "internalType": "uint256",
              "name": "percentTreasure",
              "type": "uint256"
            },
            {
              "internalType": "uint256",
              "name": "percentDeath",
              "type": "uint256"
            },
            {
              "internalType": "enum GameData.PathType[3]",
              "name": "nextPathTypes",
              "type": "uint8[3]"
            }
          ],
          "internalType": "struct GameData.PathData",
          "name": "",
          "type": "tuple"
        }
      ],
      "stateMutability": "view",
      "type": "function"
    },
    {
      "inputs": [
        {
          "internalType": "address",
          "name": "player",
          "type": "address"
        }
      ],
      "name": "hasWon",
      "outputs": [
        {
          "internalType": "bool",
          "name": "_hasWon",
          "type": "bool"
        }
      ],
      "stateMutability": "view",
      "type": "function"
    },
    {
      "inputs": [
        {
          "internalType": "address",
          "name": "player",
          "type": "address"
        }
      ],
      "name": "isDead",
      "outputs": [
        {
          "internalType": "bool",
          "name": "_isDead",
          "type": "bool"
        }
      ],
      "stateMutability": "view",
      "type": "function"
    },
    {
      "inputs": [
        {
          "internalType": "address",
          "name": "player",
          "type": "address"
        }
      ],
      "name": "isInGame",
      "outputs": [
        {
          "internalType": "bool",
          "name": "_isInGame",
          "type": "bool"
        }
      ],
      "stateMutability": "view",
      "type": "function"
    },
    {
      "inputs": [
        {
          "internalType": "address",
          "name": "",
          "type": "address"
        },
        {
          "internalType": "address",
          "name": "",
          "type": "address"
        },
        {
          "internalType": "uint256[]",
          "name": "",
          "type": "uint256[]"
        },
        {
          "internalType": "uint256[]",
          "name": "",
          "type": "uint256[]"
        },
        {
          "internalType": "bytes",
          "name": "",
          "type": "bytes"
        }
      ],
      "name": "onERC1155BatchReceived",
      "outputs": [
        {
          "internalType": "bytes4",
          "name": "",
          "type": "bytes4"
        }
      ],
      "stateMutability": "nonpayable",
      "type": "function"
    },
    {
      "inputs": [
        {
          "internalType": "address",
          "name": "",
          "type": "address"
        },
        {
          "internalType": "address",
          "name": "",
          "type": "address"
        },
        {
          "internalType": "uint256",
          "name": "",
          "type": "uint256"
        },
        {
          "internalType": "uint256",
          "name": "",
          "type": "uint256"
        },
        {
          "internalType": "bytes",
          "name": "",
          "type": "bytes"
        }
      ],
      "name": "onERC1155Received",
      "outputs": [
        {
          "internalType": "bytes4",
          "name": "",
          "type": "bytes4"
        }
      ],
      "stateMutability": "nonpayable",
      "type": "function"
    },
    {
      "inputs": [],
      "name": "owner",
      "outputs": [
        {
          "internalType": "address",
          "name": "",
          "type": "address"
        }
      ],
      "stateMutability": "view",
      "type": "function"
    },
    {
      "inputs": [],
      "name": "startGame",
      "outputs": [],
      "stateMutability": "payable",
      "type": "function"
    },
    {
      "inputs": [
        {
          "internalType": "bytes4",
          "name": "interfaceId",
          "type": "bytes4"
        }
      ],
      "name": "supportsInterface",
      "outputs": [
        {
          "internalType": "bool",
          "name": "",
          "type": "bool"
        }
      ],
      "stateMutability": "view",
      "type": "function"
    },
    {
      "inputs": [
        {
          "internalType": "uint256",
          "name": "",
          "type": "uint256"
        }
      ],
      "name": "uri",
      "outputs": [
        {
          "internalType": "string",
          "name": "",
          "type": "string"
        }
      ],
      "stateMutability": "view",
      "type": "function"
    }
  ],
  "bytecode": "0x60806040523480156200001157600080fd5b5060405162002ebc38038062002ebc833981016040819052620000349162001164565b600160009081556040805160e081019091529081908152602001600081526020016000815260200160008152602001600081526020016000815260200160405180606001604052806001600d8111156200009257620000926200119c565b600d811115620000a657620000a66200119c565b81526020016002815260200160039052905260096000808152602081019190915260400160002081518154829060ff1916600183600d811115620000ee57620000ee6200119c565b02179055506020820151816001015560408201518160020155606082015181600301556080820151816004015560a0820151816005015560c0820151816006019060036200013e92919062000fd2565b50506040805160e081019091529050806001815260200161019081526020016101f48152602001600f8152602001600a81526020016032815260200160405180606001604052806008600d8111156200019b576200019b6200119c565b600d811115620001af57620001af6200119c565b8152602001600681526020016004905290526009600060018152602081019190915260400160002081518154829060ff1916600183600d811115620001f857620001f86200119c565b02179055506020820151816001015560408201518160020155606082015181600301556080820151816004015560a0820151816005015560c0820151816006019060036200024892919062000fd2565b50506040805160e081019091529050806002815260200160c88152602001610190815260200160058152602001600a81526020016019815260200160405180606001604052806009600d811115620002a457620002a46200119c565b600d811115620002b857620002b86200119c565b8152602001600181526020016008905290526009600060028152602081019190915260400160002081518154829060ff1916600183600d8111156200030157620003016200119c565b02179055506020820151816001015560408201518160020155606082015181600301556080820151816004015560a0820151816005015560c0820151816006019060036200035192919062000fd2565b50506040805160e0810190915290508060038152602001603281526020016064815260200160198152602001600081526020016000815260200160405180606001604052806007600d811115620003ac57620003ac6200119c565b600d811115620003c057620003c06200119c565b8152602001600a8152602001600b905290526009600060038152602081019190915260400160002081518154829060ff1916600183600d8111156200040957620004096200119c565b02179055506020820151816001015560408201518160020155606082015181600301556080820151816004015560a0820151816005015560c0820151816006019060036200045992919062000fd2565b50506040805160e08101909152905080600481526020016064815260200160c881526020016019815260200160058152602001600f815260200160405180606001604052806001600d811115620004b457620004b46200119c565b600d811115620004c857620004c86200119c565b815260200160098152602001600a905290526009600060048152602081019190915260400160002081518154829060ff1916600183600d8111156200051157620005116200119c565b02179055506020820151816001015560408201518160020155606082015181600301556080820151816004015560a0820151816005015560c0820151816006019060036200056192919062000fd2565b50506040805160e081019091529050806005815260200161032081526020016103e881526020016046815260200160008152602001601e815260200160405180606001604052806009600d811115620005be57620005be6200119c565b600d811115620005d257620005d26200119c565b8152602001600181526020016006905290526009600060058152602081019190915260400160002081518154829060ff1916600183600d8111156200061b576200061b6200119c565b02179055506020820151816001015560408201518160020155606082015181600301556080820151816004015560a0820151816005015560c0820151816006019060036200066b92919062000fd2565b50506040805160e081019091529050806006815260200161019081526020016101f48152602001600f8152602001600a8152602001601e815260200160405180606001604052806007600d811115620006c857620006c86200119c565b600d811115620006dc57620006dc6200119c565b8152602001600381526020016005905290526009600060068152602081019190915260400160002081518154829060ff1916600183600d8111156200072557620007256200119c565b02179055506020820151816001015560408201518160020155606082015181600301556080820151816004015560a0820151816005015560c0820151816006019060036200077592919062000fd2565b50506040805160e08101909152905080600781526020016064815260200160c88152602001600f8152602001600a81526020016000815260200160405180606001604052806005600d811115620007d057620007d06200119c565b600d811115620007e457620007e46200119c565b815260200160068152602001600b905290526009600060078152602081019190915260400160002081518154829060ff1916600183600d8111156200082d576200082d6200119c565b02179055506020820151816001015560408201518160020155606082015181600301556080820151816004015560a0820151816005015560c0820151816006019060036200087d92919062000fd2565b50506040805160e081019091529050806008815260200160c8815260200161012c8152602001600f8152602001603281526020016032815260200160405180606001604052806005600d811115620008d957620008d96200119c565b600d811115620008ed57620008ed6200119c565b8152602001600c8152602001600d905290526009600060088152602081019190915260400160002081518154829060ff1916600183600d8111156200093657620009366200119c565b02179055506020820151816001015560408201518160020155606082015181600301556080820151816004015560a0820151816005015560c0820151816006019060036200098692919062000fd2565b50506040805160e081019091529050806009815260200161019081526020016101f48152602001600f8152602001600a81526020016023815260200160405180606001604052806008600d811115620009e357620009e36200119c565b600d811115620009f757620009f76200119c565b8152602001600b8152602001600d9052905260096000818152602081019190915260400160002081518154829060ff1916600183600d81111562000a3f5762000a3f6200119c565b02179055506020820151816001015560408201518160020155606082015181600301556080820151816004015560a0820151816005015560c08201518160060190600362000a8f92919062000fd2565b50506040805160e08101909152905080600a81526020016064815260200160c88152602001600f8152602001603c81526020016005815260200160405180606001604052806005600d81111562000aea5762000aea6200119c565b600d81111562000afe5762000afe6200119c565b815260200160048152602001600c9052905260096000600a8152602081019190915260400160002081518154829060ff1916600183600d81111562000b475762000b476200119c565b02179055506020820151816001015560408201518160020155606082015181600301556080820151816004015560a0820151816005015560c08201518160060190600362000b9792919062000fd2565b50506040805160e08101909152905080600b81526020016103e881526020016109c48152602001600f8152602001600a8152602001601e815260200160405180606001604052806004600d81111562000bf45762000bf46200119c565b600d81111562000c085762000c086200119c565b8152602001600c815260200160079052905260096000600b8152602081019190915260400160002081518154829060ff1916600183600d81111562000c515762000c516200119c565b02179055506020820151816001015560408201518160020155606082015181600301556080820151816004015560a0820151816005015560c08201518160060190600362000ca192919062000fd2565b50506040805160e08101909152905080600c81526020016103e881526020016109c48152602001600f8152602001600f81526020016028815260200160405180606001604052806005600d81111562000cfe5762000cfe6200119c565b600d81111562000d125762000d126200119c565b8152602001600c8152602001600d9052905260096000600c8152602081019190915260400160002081518154829060ff1916600183600d81111562000d5b5762000d5b6200119c565b02179055506020820151816001015560408201518160020155606082015181600301556080820151816004015560a0820151816005015560c08201518160060190600362000dab92919062000fd2565b50506040805160e08101909152905080600d8152602001611388815260200161c35081526020016000815260200160648152602001601981526020016040518060600160405280600d8081111562000e075762000e076200119c565b600d81111562000e1b5762000e1b6200119c565b8152602001600d8152602001600d9052905260096000600d8152602081019190915260400160002081518154829060ff1916600183600d81111562000e645762000e646200119c565b02179055506020820151816001015560408201518160020155606082015181600301556080820151816004015560a0820151816005015560c08201518160060190600362000eb492919062000fd2565b5050600080525060096020527fec8156718a8372b1db44bb411437d0870f3e3790d4a08526d024ce1b0b668f6b805460028054909160ff1690829060ff1916600183600d81111562000f0a5762000f0a6200119c565b02179055506001820154816001015560028201548160020155600382015481600301556004820154816004015560058201548160050155600682018160060190600362000f599291906200107d565b509050506040518060800160405280604c815260200162002e70604c9139805162000f8d91600191602090910190620010b3565b50600b80546001600160a01b039384166001600160a01b03199182168117909255600c80549390941692811692909217909255600d80549091169091179055620011ee565b6001830191839082156200106b5791602002820160005b838211156200103a57835183826101000a81548160ff0219169083600d8111156200101857620010186200119c565b0217905550926020019260010160208160000104928301926001030262000fe9565b8015620010695782816101000a81549060ff02191690556001016020816000010492830192600103026200103a565b505b506200107992915062001130565b5090565b6001830191839082156200106b5791601f016020900482015b828111156200106b57825482559160010191906001019062001096565b828054620010c190620011b2565b90600052602060002090601f016020900481019282620010e557600085556200106b565b82601f106200110057805160ff19168380011785556200106b565b828001600101855582156200106b579182015b828111156200106b57825182559160200191906001019062001113565b5b8082111562001079576000815560010162001131565b80516001600160a01b03811681146200115f57600080fd5b919050565b600080604083850312156200117857600080fd5b620011838362001147565b9150620011936020840162001147565b90509250929050565b634e487b7160e01b600052602160045260246000fd5b600181811c90821680620011c757607f821691505b602082108103620011e857634e487b7160e01b600052602260045260246000fd5b50919050565b611c7280620011fe6000396000f3fe60806040526004361061011f5760003560e01c8063a94320a7116100a0578063d65ab5f211610064578063d65ab5f214610375578063ef5526431461037d578063f23a6e611461039d578063f26be3fc146103c9578063fe693f1e146103eb57600080fd5b8063a94320a7146102ae578063b0917b87146102c3578063b75746ca146102e3578063bc197c8114610310578063bcddf3891461035557600080fd5b8063607d3c77116100e7578063607d3c77146101f657806376e033c714610216578063835dcac4146102365780638da5cb5b14610256578063a52b2b881461028e57600080fd5b806301ffc9a7146101245780630e89341c14610159578063106630ba1461018657806328349c8f146101b45780633928d57b146101d4575b600080fd5b34801561013057600080fd5b5061014461013f366004611621565b610400565b60405190151581526020015b60405180910390f35b34801561016557600080fd5b5061017961017436600461164b565b610437565b6040516101509190611664565b34801561019257600080fd5b506101a66101a13660046116d5565b6104cb565b604051908152602001610150565b3480156101c057600080fd5b506101446101cf3660046116d5565b6105ba565b3480156101e057600080fd5b506101e96105f3565b6040516101509190611728565b34801561020257600080fd5b506101a66102113660046116d5565b6106e1565b34801561022257600080fd5b506101446102313660046116d5565b610738565b34801561024257600080fd5b506101e96102513660046117a8565b610741565b34801561026257600080fd5b50600c54610276906001600160a01b031681565b6040516001600160a01b039091168152602001610150565b34801561029a57600080fd5b506101446102a93660046116d5565b610866565b6102c16102bc36600461164b565b61086f565b005b3480156102cf57600080fd5b506101a66102de3660046116d5565b610f3a565b3480156102ef57600080fd5b506103036102fe3660046116d5565b610f91565b60405161015091906117c9565b34801561031c57600080fd5b5061033c61032b36600461199a565b63bc197c8160e01b95945050505050565b6040516001600160e01b03199091168152602001610150565b34801561036157600080fd5b50600b54610276906001600160a01b031681565b6102c16111e6565b34801561038957600080fd5b506101e96103983660046116d5565b611349565b3480156103a957600080fd5b5061033c6103b8366004611a44565b63f23a6e6160e01b95945050505050565b3480156103d557600080fd5b506103de600081565b6040516101509190611aa9565b3480156103f757600080fd5b506101a6600381565b60006001600160e01b03198216630271189760e51b148061043157506301ffc9a760e01b6001600160e01b03198316145b92915050565b60606001805461044690611ab7565b80601f016020809104026020016040519081016040528092919081815260200182805461047290611ab7565b80156104bf5780601f10610494576101008083540402835291602001916104bf565b820191906000526020600020905b8154815290600101906020018083116104a257829003601f168201915b50505050509050919050565b600d546040805163df8b193760e01b8152905160009283926001600160a01b039091169162fdd58e918691849163df8b19379160048083019260209291908290030181865afa158015610522573d6000803e3d6000fd5b505050506040513d601f19601f820116820180604052508101906105469190611aeb565b6040516001600160e01b031960e085901b1681526001600160a01b0390921660048301526024820152604401602060405180830381865afa15801561058f573d6000803e3d6000fd5b505050506040513d601f19601f820116820180604052508101906105b39190611aeb565b9392505050565b600060025b6001600160a01b03831660009081526010602052604090205460ff1660038111156105ec576105ec6116f0565b1492915050565b6105fb61150a565b6040805160e0810190915260028054829060ff16600d811115610620576106206116f0565b600d811115610631576106316116f0565b81526020016001820154815260200160028201548152602001600382015481526020016004820154815260200160058201548152602001600682016003806020026040519081016040528092919082600380156106d3576020028201916000905b82829054906101000a900460ff16600d8111156106b1576106b16116f0565b8152602060019283018181049485019490930390920291018084116106925790505b505050505081525050905090565b600d54604080516307c97dc760e31b8152905160009283926001600160a01b039091169162fdd58e9186918491633e4bee389160048083019260209291908290030181865afa158015610522573d6000803e3d6000fd5b600060016105bf565b61074961150a565b6009600083600d81111561075f5761075f6116f0565b600d811115610770576107706116f0565b815260208101919091526040908101600020815160e081019092528054829060ff16600d8111156107a3576107a36116f0565b600d8111156107b4576107b46116f0565b8152602001600182015481526020016002820154815260200160038201548152602001600482015481526020016005820154815260200160068201600380602002604051908101604052809291908260038015610856576020028201916000905b82829054906101000a900460ff16600d811115610834576108346116f0565b8152602060019283018181049485019490930390920291018084116108155790505b5050505050815250509050919050565b600060036105bf565b6002600054036108c65760405162461bcd60e51b815260206004820152601f60248201527f5265656e7472616e637947756172643a207265656e7472616e742063616c6c0060448201526064015b60405180910390fd5b60026000556108d9600a80546001019055565b60006108e4600a5490565b336000908152600f602052604080822081516060810192839052939450919291600601906003908285855b82829054906101000a900460ff16600d81111561092e5761092e6116f0565b81526020600192830181810494850194909303909202910180841161090f57905050505050509050600081846003811061096a5761096a611b04565b60200201519050600061097c82610741565b9050600061098a600461144e565b90506000806000808560a001516064866000815181106109ac576109ac611b04565b60200260200101516109be9190611b1a565b10905080156109e657336000908152601060205260409020805460ff19166002179055610d9c565b602086015160408701516109fb908290611b52565b86600181518110610a0e57610a0e611b04565b6020026020010151610a209190611b1a565b610a2a9190611b69565b93508560600151606486600281518110610a4657610a46611b04565b6020026020010151610a589190611b1a565b1092508560800151606486600381518110610a7557610a75611b04565b6020026020010151610a879190611b1a565b6040805160038082526080820190925292909110935060009190602082016060803683375050600d54604080516307c97dc760e31b815290519394506001600160a01b0390911692633e4bee38925060048083019260209291908290030181865afa158015610afa573d6000803e3d6000fd5b505050506040513d601f19601f82011682018060405250810190610b1e9190611aeb565b81600081518110610b3157610b31611b04565b602090810291909101810191909152600d5460408051632dc387b360e01b815290516001600160a01b0390921692632dc387b3926004808401938290030181865afa158015610b84573d6000803e3d6000fd5b505050506040513d601f19601f82011682018060405250810190610ba89190611aeb565b81600181518110610bbb57610bbb611b04565b602090810291909101810191909152600d546040805163df8b193760e01b815290516001600160a01b039092169263df8b1937926004808401938290030181865afa158015610c0e573d6000803e3d6000fd5b505050506040513d601f19601f82011682018060405250810190610c329190611aeb565b81600281518110610c4557610c45611b04565b6020908102919091010152604080516003808252608082019092526000918160200160208202803683370190505090508581600081518110610c8957610c89611b04565b60200260200101818152505084610ca1576000610ca4565b60015b60ff1681600181518110610cba57610cba611b04565b60200260200101818152505083610cd2576000610cd5565b60015b60ff1681600281518110610ceb57610ceb611b04565b6020908102919091010152600d54604051631759616b60e11b81526001600160a01b0390911690632eb2c2d690610d2c903090339087908790600401611bbc565b600060405180830381600087803b158015610d4657600080fd5b505af1158015610d5a573d6000803e3d6000fd5b50600d9250610d67915050565b89600d811115610d7957610d796116f0565b03610d9957336000908152601060205260409020805460ff191660031790555b50505b336000908152600f602052604090208651815488929190829060ff1916600183600d811115610dcd57610dcd6116f0565b02179055506020820151816001015560408201518160020155606082015181600301556080820151816004015560a0820151816005015560c082015181600601906003610e1b92919061154d565b509050506040518060e001604052808a815260200188600d811115610e4257610e426116f0565b81526020808201879052336040808401919091528615156060840152851515608084015284151560a09093019290925260008c8152600e825291909120825181559082015160018083018054909160ff199091169083600d811115610ea957610ea96116f0565b021790555060408201516002820155606082015160039091018054608084015160a085015160c0909501511515600160b01b0260ff60b01b19951515600160a81b029590951661ffff60a81b19911515600160a01b026001600160a81b03199093166001600160a01b0390951694909417919091171691909117919091179055505060016000555050505050505050565b600d5460408051632dc387b360e01b8152905160009283926001600160a01b039091169162fdd58e9186918491632dc387b39160048083019260209291908290030181865afa158015610522573d6000803e3d6000fd5b60606000610f9e600a5490565b905060008060005b83811015611009576001600160a01b038616600e6000610fc7846001611b69565b81526020810191909152604001600020600301546001600160a01b031603610ff757610ff4600184611b69565b92505b8061100181611c23565b915050610fa6565b5060008267ffffffffffffffff81111561102557611025611863565b60405190808252806020026020018201604052801561108c57816020015b6040805160e08101825260008082526020808301829052928201819052606082018190526080820181905260a0820181905260c082015282526000199092019101816110435790505b50905060005b848110156111dc576001600160a01b038716600e60006110b3846001611b69565b81526020810191909152604001600020600301546001600160a01b0316036111ca576000600e816110e5846001611b69565b81526020808201929092526040908101600090812054808252600e845290829020825160e081019093528054835260018101549194509283919083019060ff16600d811115611136576111366116f0565b600d811115611147576111476116f0565b8152600282015460208201526003909101546001600160a01b038116604083015260ff600160a01b8204811615156060840152600160a81b8204811615156080840152600160b01b90910416151560a09091015284518590879081106111af576111af611b04565b60209081029190910101526111c5600186611b69565b945050505b806111d481611c23565b915050611092565b5095945050505050565b6002600054036112385760405162461bcd60e51b815260206004820152601f60248201527f5265656e7472616e637947756172643a207265656e7472616e742063616c6c0060448201526064016108bd565b600260005560013360009081526010602052604090205460ff166003811115611263576112636116f0565b036112a25760405162461bcd60e51b815260206004820152600f60248201526e616c726561647920696e2067616d6560881b60448201526064016108bd565b6112aa6105f3565b336000908152600f6020526040902081518154829060ff1916600183600d8111156112d7576112d76116f0565b02179055506020820151816001015560408201518160020155606082015181600301556080820151816004015560a0820151816005015560c08201518160060190600361132592919061154d565b5050336000908152601060205260408120805460ff19166001908117909155905550565b61135161150a565b6001600160a01b0382166000908152600f602052604090819020815160e081019092528054829060ff16600d81111561138c5761138c6116f0565b600d81111561139d5761139d6116f0565b8152602001600182015481526020016002820154815260200160038201548152602001600482015481526020016005820154815260200160068201600380602002604051908101604052809291908260038015610856576020028201916000905b82829054906101000a900460ff16600d81111561141d5761141d6116f0565b8152602060019283018181049485019490930390920291018084116113fe5790505050505050815250509050919050565b60608167ffffffffffffffff81111561146957611469611863565b604051908082528060200260200182016040528015611492578160200160208202803683370190505b50905060005b8281101561150457604080514460208201524291810191909152606081018290526080016040516020818303038152906040528051906020012060001c8282815181106114e7576114e7611b04565b6020908102919091010152806114fc81611c23565b915050611498565b50919050565b6040805160e08101909152806000815260200160008152602001600081526020016000815260200160008152602001600081526020016115486115ee565b905290565b6001830191839082156115de5791602002820160005b838211156115af57835183826101000a81548160ff0219169083600d81111561158e5761158e6116f0565b02179055509260200192600101602081600001049283019260010302611563565b80156115dc5782816101000a81549060ff02191690556001016020816000010492830192600103026115af565b505b506115ea92915061160c565b5090565b60405180606001604052806003906020820280368337509192915050565b5b808211156115ea576000815560010161160d565b60006020828403121561163357600080fd5b81356001600160e01b0319811681146105b357600080fd5b60006020828403121561165d57600080fd5b5035919050565b600060208083528351808285015260005b8181101561169157858101830151858201604001528201611675565b818111156116a3576000604083870101525b50601f01601f1916929092016040019392505050565b80356001600160a01b03811681146116d057600080fd5b919050565b6000602082840312156116e757600080fd5b6105b3826116b9565b634e487b7160e01b600052602160045260246000fd5b600e811061172457634e487b7160e01b600052602160045260246000fd5b9052565b60006101208201905061173c828451611706565b6020808401518184015260408401516040840152606084015160608401526080840151608084015260a084015160a084015260c084015160c0840160005b600381101561179e5761178e828451611706565b918301919083019060010161177a565b5050505092915050565b6000602082840312156117ba57600080fd5b8135600e81106105b357600080fd5b602080825282518282018190526000919060409081850190868401855b82811015611856578151805185528681015161180488870182611706565b5080860151858701526060808201516001600160a01b03169086015260808082015115159086015260a08082015115159086015260c09081015115159085015260e090930192908501906001016117e6565b5091979650505050505050565b634e487b7160e01b600052604160045260246000fd5b604051601f8201601f1916810167ffffffffffffffff811182821017156118a2576118a2611863565b604052919050565b600082601f8301126118bb57600080fd5b8135602067ffffffffffffffff8211156118d7576118d7611863565b8160051b6118e6828201611879565b928352848101820192828101908785111561190057600080fd5b83870192505b8483101561191f57823582529183019190830190611906565b979650505050505050565b600082601f83011261193b57600080fd5b813567ffffffffffffffff81111561195557611955611863565b611968601f8201601f1916602001611879565b81815284602083860101111561197d57600080fd5b816020850160208301376000918101602001919091529392505050565b600080600080600060a086880312156119b257600080fd5b6119bb866116b9565b94506119c9602087016116b9565b9350604086013567ffffffffffffffff808211156119e657600080fd5b6119f289838a016118aa565b94506060880135915080821115611a0857600080fd5b611a1489838a016118aa565b93506080880135915080821115611a2a57600080fd5b50611a378882890161192a565b9150509295509295909350565b600080600080600060a08688031215611a5c57600080fd5b611a65866116b9565b9450611a73602087016116b9565b93506040860135925060608601359150608086013567ffffffffffffffff811115611a9d57600080fd5b611a378882890161192a565b602081016104318284611706565b600181811c90821680611acb57607f821691505b60208210810361150457634e487b7160e01b600052602260045260246000fd5b600060208284031215611afd57600080fd5b5051919050565b634e487b7160e01b600052603260045260246000fd5b600082611b3757634e487b7160e01b600052601260045260246000fd5b500690565b634e487b7160e01b600052601160045260246000fd5b600082821015611b6457611b64611b3c565b500390565b60008219821115611b7c57611b7c611b3c565b500190565b600081518084526020808501945080840160005b83811015611bb157815187529582019590820190600101611b95565b509495945050505050565b6001600160a01b0385811682528416602082015260a060408201819052600090611be890830185611b81565b8281036060840152611bfa8185611b81565b8381036080909401939093525050600381526203078360ec1b6020820152604001949350505050565b600060018201611c3557611c35611b3c565b506001019056fea26469706673582212206b27ce8b644887d009983b3413949ec7f8e38a8c403f1a342c40492074418f5564736f6c634300080d0033697066733a2f2f6261667962656963696673633371617a6f717361676564326a766c337978783676696f6261346463686363793269357175326a6c6b7a7a373764752f7b69647d2e6a736f6e",
  "linkReferences": {},
  "deployedLinkReferences": {}
}