{
  "_format": "hh-sol-artifact-1",
  "contractName": "Game",
  "sourceName": "contracts/Game.sol",
  "abi": [
    {
      "inputs": [
        {
          "internalType": "address",
          "name": "_gameItemsAddress",
          "type": "address"
        },
        {
          "internalType": "address",
          "name": "_owner",
          "type": "address"
        }
      ],
      "stateMutability": "nonpayable",
      "type": "constructor"
    },
    {
      "anonymous": false,
      "inputs": [
        {
          "indexed": true,
          "internalType": "uint256",
          "name": "pathId",
          "type": "uint256"
        },
        {
          "indexed": true,
          "internalType": "enum GameData.PathType",
          "name": "pathType",
          "type": "uint8"
        },
        {
          "indexed": false,
          "internalType": "uint256",
          "name": "gold",
          "type": "uint256"
        },
        {
          "indexed": false,
          "internalType": "address",
          "name": "player",
          "type": "address"
        },
        {
          "indexed": false,
          "internalType": "bool",
          "name": "key",
          "type": "bool"
        },
        {
          "indexed": false,
          "internalType": "bool",
          "name": "treasure",
          "type": "bool"
        },
        {
          "indexed": false,
          "internalType": "bool",
          "name": "death",
          "type": "bool"
        }
      ],
      "name": "PathCreated",
      "type": "event"
    },
    {
      "inputs": [],
      "name": "NULL",
      "outputs": [
        {
          "internalType": "enum GameData.PathType",
          "name": "",
          "type": "uint8"
        }
      ],
      "stateMutability": "view",
      "type": "function"
    },
    {
      "inputs": [],
      "name": "PATHS_TO_CHOOSE",
      "outputs": [
        {
          "internalType": "uint256",
          "name": "",
          "type": "uint256"
        }
      ],
      "stateMutability": "view",
      "type": "function"
    },
    {
      "inputs": [
        {
          "internalType": "uint256",
          "name": "choiceId",
          "type": "uint256"
        }
      ],
      "name": "choosePath",
      "outputs": [],
      "stateMutability": "payable",
      "type": "function"
    },
    {
      "inputs": [
        {
          "internalType": "address",
          "name": "player",
          "type": "address"
        }
      ],
      "name": "fetchCurrentPath",
      "outputs": [
        {
          "components": [
            {
              "internalType": "enum GameData.PathType",
              "name": "pathType",
              "type": "uint8"
            },
            {
              "internalType": "string",
              "name": "pathName",
              "type": "string"
            },
            {
              "internalType": "string",
              "name": "pathDescription",
              "type": "string"
            },
            {
              "internalType": "string",
              "name": "deathDescription",
              "type": "string"
            },
            {
              "internalType": "uint256",
              "name": "minGold",
              "type": "uint256"
            },
            {
              "internalType": "uint256",
              "name": "maxGold",
              "type": "uint256"
            },
            {
              "internalType": "uint256",
              "name": "percentKey",
              "type": "uint256"
            },
            {
              "internalType": "uint256",
              "name": "percentTreasure",
              "type": "uint256"
            },
            {
              "internalType": "uint256",
              "name": "percentDeath",
              "type": "uint256"
            },
            {
              "internalType": "enum GameData.PathType[3]",
              "name": "nextPathTypes",
              "type": "uint8[3]"
            }
          ],
          "internalType": "struct GameData.PathData",
          "name": "",
          "type": "tuple"
        }
      ],
      "stateMutability": "view",
      "type": "function"
    },
    {
      "inputs": [
        {
          "internalType": "address",
          "name": "player",
          "type": "address"
        }
      ],
      "name": "fetchNextPathChoice",
      "outputs": [
        {
          "components": [
            {
              "internalType": "enum GameData.PathType",
              "name": "pathType",
              "type": "uint8"
            },
            {
              "internalType": "string",
              "name": "pathName",
              "type": "string"
            },
            {
              "internalType": "string",
              "name": "pathDescription",
              "type": "string"
            },
            {
              "internalType": "string",
              "name": "deathDescription",
              "type": "string"
            },
            {
              "internalType": "uint256",
              "name": "minGold",
              "type": "uint256"
            },
            {
              "internalType": "uint256",
              "name": "maxGold",
              "type": "uint256"
            },
            {
              "internalType": "uint256",
              "name": "percentKey",
              "type": "uint256"
            },
            {
              "internalType": "uint256",
              "name": "percentTreasure",
              "type": "uint256"
            },
            {
              "internalType": "uint256",
              "name": "percentDeath",
              "type": "uint256"
            },
            {
              "internalType": "enum GameData.PathType[3]",
              "name": "nextPathTypes",
              "type": "uint8[3]"
            }
          ],
          "internalType": "struct GameData.PathData[]",
          "name": "",
          "type": "tuple[]"
        }
      ],
      "stateMutability": "view",
      "type": "function"
    },
    {
      "inputs": [
        {
          "internalType": "address",
          "name": "player",
          "type": "address"
        }
      ],
      "name": "fetchPathHistory",
      "outputs": [
        {
          "components": [
            {
              "internalType": "uint256",
              "name": "pathId",
              "type": "uint256"
            },
            {
              "internalType": "enum GameData.PathType",
              "name": "pathType",
              "type": "uint8"
            },
            {
              "internalType": "uint256",
              "name": "gold",
              "type": "uint256"
            },
            {
              "internalType": "address payable",
              "name": "player",
              "type": "address"
            },
            {
              "internalType": "bool",
              "name": "key",
              "type": "bool"
            },
            {
              "internalType": "bool",
              "name": "treasure",
              "type": "bool"
            },
            {
              "internalType": "bool",
              "name": "death",
              "type": "bool"
            }
          ],
          "internalType": "struct Game.Path[]",
          "name": "",
          "type": "tuple[]"
        }
      ],
      "stateMutability": "view",
      "type": "function"
    },
    {
      "inputs": [],
      "name": "gameItemsAddress",
      "outputs": [
        {
          "internalType": "address",
          "name": "",
          "type": "address"
        }
      ],
      "stateMutability": "view",
      "type": "function"
    },
    {
      "inputs": [
        {
          "internalType": "address",
          "name": "player",
          "type": "address"
        }
      ],
      "name": "getBalanceOfGold",
      "outputs": [
        {
          "internalType": "uint256",
          "name": "gold",
          "type": "uint256"
        }
      ],
      "stateMutability": "view",
      "type": "function"
    },
    {
      "inputs": [
        {
          "internalType": "address",
          "name": "player",
          "type": "address"
        }
      ],
      "name": "getBalanceOfKey",
      "outputs": [
        {
          "internalType": "uint256",
          "name": "key",
          "type": "uint256"
        }
      ],
      "stateMutability": "view",
      "type": "function"
    },
    {
      "inputs": [
        {
          "internalType": "address",
          "name": "player",
          "type": "address"
        }
      ],
      "name": "getBalanceOfTreasure",
      "outputs": [
        {
          "internalType": "uint256",
          "name": "treasure",
          "type": "uint256"
        }
      ],
      "stateMutability": "view",
      "type": "function"
    },
    {
      "inputs": [],
      "name": "getInitialPath",
      "outputs": [
        {
          "components": [
            {
              "internalType": "enum GameData.PathType",
              "name": "pathType",
              "type": "uint8"
            },
            {
              "internalType": "string",
              "name": "pathName",
              "type": "string"
            },
            {
              "internalType": "string",
              "name": "pathDescription",
              "type": "string"
            },
            {
              "internalType": "string",
              "name": "deathDescription",
              "type": "string"
            },
            {
              "internalType": "uint256",
              "name": "minGold",
              "type": "uint256"
            },
            {
              "internalType": "uint256",
              "name": "maxGold",
              "type": "uint256"
            },
            {
              "internalType": "uint256",
              "name": "percentKey",
              "type": "uint256"
            },
            {
              "internalType": "uint256",
              "name": "percentTreasure",
              "type": "uint256"
            },
            {
              "internalType": "uint256",
              "name": "percentDeath",
              "type": "uint256"
            },
            {
              "internalType": "enum GameData.PathType[3]",
              "name": "nextPathTypes",
              "type": "uint8[3]"
            }
          ],
          "internalType": "struct GameData.PathData",
          "name": "",
          "type": "tuple"
        }
      ],
      "stateMutability": "view",
      "type": "function"
    },
    {
      "inputs": [
        {
          "internalType": "enum GameData.PathType",
          "name": "pathType",
          "type": "uint8"
        }
      ],
      "name": "getPathDataFromType",
      "outputs": [
        {
          "components": [
            {
              "internalType": "enum GameData.PathType",
              "name": "pathType",
              "type": "uint8"
            },
            {
              "internalType": "string",
              "name": "pathName",
              "type": "string"
            },
            {
              "internalType": "string",
              "name": "pathDescription",
              "type": "string"
            },
            {
              "internalType": "string",
              "name": "deathDescription",
              "type": "string"
            },
            {
              "internalType": "uint256",
              "name": "minGold",
              "type": "uint256"
            },
            {
              "internalType": "uint256",
              "name": "maxGold",
              "type": "uint256"
            },
            {
              "internalType": "uint256",
              "name": "percentKey",
              "type": "uint256"
            },
            {
              "internalType": "uint256",
              "name": "percentTreasure",
              "type": "uint256"
            },
            {
              "internalType": "uint256",
              "name": "percentDeath",
              "type": "uint256"
            },
            {
              "internalType": "enum GameData.PathType[3]",
              "name": "nextPathTypes",
              "type": "uint8[3]"
            }
          ],
          "internalType": "struct GameData.PathData",
          "name": "",
          "type": "tuple"
        }
      ],
      "stateMutability": "view",
      "type": "function"
    },
    {
      "inputs": [
        {
          "internalType": "enum GameData.PathType",
          "name": "pathType",
          "type": "uint8"
        }
      ],
      "name": "getPathNameFromType",
      "outputs": [
        {
          "internalType": "string",
          "name": "",
          "type": "string"
        }
      ],
      "stateMutability": "view",
      "type": "function"
    },
    {
      "inputs": [
        {
          "internalType": "address",
          "name": "player",
          "type": "address"
        }
      ],
      "name": "isDead",
      "outputs": [
        {
          "internalType": "bool",
          "name": "_isDead",
          "type": "bool"
        }
      ],
      "stateMutability": "view",
      "type": "function"
    },
    {
      "inputs": [
        {
          "internalType": "address",
          "name": "player",
          "type": "address"
        }
      ],
      "name": "isInGame",
      "outputs": [
        {
          "internalType": "bool",
          "name": "_isInGame",
          "type": "bool"
        }
      ],
      "stateMutability": "view",
      "type": "function"
    },
    {
      "inputs": [
        {
          "internalType": "address",
          "name": "",
          "type": "address"
        },
        {
          "internalType": "address",
          "name": "",
          "type": "address"
        },
        {
          "internalType": "uint256[]",
          "name": "",
          "type": "uint256[]"
        },
        {
          "internalType": "uint256[]",
          "name": "",
          "type": "uint256[]"
        },
        {
          "internalType": "bytes",
          "name": "",
          "type": "bytes"
        }
      ],
      "name": "onERC1155BatchReceived",
      "outputs": [
        {
          "internalType": "bytes4",
          "name": "",
          "type": "bytes4"
        }
      ],
      "stateMutability": "nonpayable",
      "type": "function"
    },
    {
      "inputs": [
        {
          "internalType": "address",
          "name": "",
          "type": "address"
        },
        {
          "internalType": "address",
          "name": "",
          "type": "address"
        },
        {
          "internalType": "uint256",
          "name": "",
          "type": "uint256"
        },
        {
          "internalType": "uint256",
          "name": "",
          "type": "uint256"
        },
        {
          "internalType": "bytes",
          "name": "",
          "type": "bytes"
        }
      ],
      "name": "onERC1155Received",
      "outputs": [
        {
          "internalType": "bytes4",
          "name": "",
          "type": "bytes4"
        }
      ],
      "stateMutability": "nonpayable",
      "type": "function"
    },
    {
      "inputs": [],
      "name": "owner",
      "outputs": [
        {
          "internalType": "address",
          "name": "",
          "type": "address"
        }
      ],
      "stateMutability": "view",
      "type": "function"
    },
    {
      "inputs": [],
      "name": "startGame",
      "outputs": [],
      "stateMutability": "payable",
      "type": "function"
    },
    {
      "inputs": [
        {
          "internalType": "bytes4",
          "name": "interfaceId",
          "type": "bytes4"
        }
      ],
      "name": "supportsInterface",
      "outputs": [
        {
          "internalType": "bool",
          "name": "",
          "type": "bool"
        }
      ],
      "stateMutability": "view",
      "type": "function"
    }
  ],
  "bytecode": "0x60806040523480156200001157600080fd5b506040516200559a3803806200559a833981016040819052620000349162001cc5565b6001600090815560408051610140810190915290819081526020016040518060400160405280600981526020016854686520436861736d60b81b815250815260200160405180610100016040528060d38152602001620047b760d39139815260200160405180606001604052806026815260200162004592602691398152602001600081526020016000815260200160008152602001600081526020016000815260200160405180606001604052806001600d811115620000f957620000f962001cfd565b600d8111156200010d576200010d62001cfd565b815260200160028152602001600390529052600b6000808152602081019190915260400160002081518154829060ff1916600183600d81111562000155576200015562001cfd565b0217905550602082810151805162000174926001850192019062001aa3565b50604082015180516200019291600284019160209091019062001aa3565b5060608201518051620001b091600384019160209091019062001aa3565b506080820151600482015560a0820151600582015560c0820151600682015560e082015160078201556101008201516008820155610120820151620001fc906009830190600362001b32565b5050604080516101408101909152905080600181526020016040518060400160405280600c81526020016b46726167696c65206361766560a01b81525081526020016040518060c00160405280609f8152602001620053bf609f913981526020016040518060e0016040528060b98152602001620051b260b99139815260200161019081526020016101f48152602001600f8152602001600a8152602001601e815260200160405180606001604052806006600d811115620002c257620002c262001cfd565b600d811115620002d657620002d662001cfd565b815260200160038152602001600490529052600b600060018152602081019190915260400160002081518154829060ff1916600183600d8111156200031f576200031f62001cfd565b021790555060208281015180516200033e926001850192019062001aa3565b50604082015180516200035c91600284019160209091019062001aa3565b50606082015180516200037a91600384019160209091019062001aa3565b506080820151600482015560a0820151600582015560c0820151600682015560e082015160078201556101008201516008820155610120820151620003c6906009830190600362001b32565b5050604080516101408101909152905080600281526020016040518060400160405280600c81526020016b42726f6b656e20747261636b60a01b815250815260200160405180610100016040528060d38152602001620046e460d39139815260200160405180610100016040528060ce81526020016200439e60ce9139815260200160c88152602001610190815260200160058152602001600181526020016019815260200160405180606001604052806003600d8111156200048d576200048d62001cfd565b600d811115620004a157620004a162001cfd565b815260200160018152602001600290529052600b600060028152602081019190915260400160002081518154829060ff1916600183600d811115620004ea57620004ea62001cfd565b0217905550602082810151805162000509926001850192019062001aa3565b50604082015180516200052791600284019160209091019062001aa3565b50606082015180516200054591600384019160209091019062001aa3565b506080820151600482015560a0820151600582015560c0820151600682015560e08201516007820155610100820151600882015561012082015162000591906009830190600362001b32565b5050604080516101408101909152905080600381526020016040518060400160405280600b81526020016a135a5b99481d1d5b9b995b60aa1b815250815260200160405180610120016040528060fd815260200162004edf60fd913981526020016040518060200160405280600081525081526020016064815260200160c8815260200160008152602001600081526020016000815260200160405180606001604052806007600d8111156200064b576200064b62001cfd565b600d8111156200065f576200065f62001cfd565b8152602001600a8152602001600b90529052600b600060038152602081019190915260400160002081518154829060ff1916600183600d811115620006a857620006a862001cfd565b02179055506020828101518051620006c7926001850192019062001aa3565b5060408201518051620006e591600284019160209091019062001aa3565b50606082015180516200070391600384019160209091019062001aa3565b506080820151600482015560a0820151600582015560c0820151600682015560e0820151600782015561010082015160088201556101208201516200074f906009830190600362001b32565b5050604080516101408101909152905080600481526020016040518060400160405280600b81526020016a4e6172726f77206361766560a81b815250815260200160405180610180016040528061015481526020016200488a6101549139815260200160405180610160016040528061013c81526020016200545e61013c913981526020016064815260200160c88152602001600f8152602001600a8152602001601e815260200160405180606001604052806001600d81111562000818576200081862001cfd565b600d8111156200082c576200082c62001cfd565b815260200160098152602001600390529052600b600060048152602081019190915260400160002081518154829060ff1916600183600d81111562000875576200087562001cfd565b0217905550602082810151805162000894926001850192019062001aa3565b5060408201518051620008b291600284019160209091019062001aa3565b5060608201518051620008d091600384019160209091019062001aa3565b506080820151600482015560a0820151600582015560c0820151600682015560e0820151600782015561010082015160088201556101208201516200091c906009830190600362001b32565b5050604080516101408101909152905080600581526020016040518060400160405280600d81526020016c536d656c6c206f66206669726560981b815250815260200160405180610140016040528061010181526020016200429d6101019139815260200160405180610100016040528060d4815260200162004a1f60d49139815260200161032081526020016103e881526020016046815260200160008152602001601e815260200160405180606001604052806006600d811115620009e757620009e762001cfd565b600d811115620009fb57620009fb62001cfd565b815260200160018152602001600390529052600b600060058152602081019190915260400160002081518154829060ff1916600183600d81111562000a445762000a4462001cfd565b0217905550602082810151805162000a63926001850192019062001aa3565b506040820151805162000a8191600284019160209091019062001aa3565b506060820151805162000a9f91600384019160209091019062001aa3565b506080820151600482015560a0820151600582015560c0820151600682015560e08201516007820155610100820151600882015561012082015162000aeb906009830190600362001b32565b5050604080516101408101909152905080600681526020016040518060400160405280600a81526020016927b632103630b23232b960b11b8152508152602001604051806080016040528060418152602001620049de6041913981526020016040518060e0016040528060a181526020016200526b60a19139815260200161019081526020016101f48152602001600f8152602001600a8152602001601e815260200160405180606001604052806007600d81111562000baf5762000baf62001cfd565b600d81111562000bc35762000bc362001cfd565b815260200160038152602001600590529052600b600060068152602081019190915260400160002081518154829060ff1916600183600d81111562000c0c5762000c0c62001cfd565b0217905550602082810151805162000c2b926001850192019062001aa3565b506040820151805162000c4991600284019160209091019062001aa3565b506060820151805162000c6791600384019160209091019062001aa3565b506080820151600482015560a0820151600582015560c0820151600682015560e08201516007820155610100820151600882015561012082015162000cb3906009830190600362001b32565b5050604080516101408101909152905080600781526020016040518060400160405280600c81526020016b27b6321031b7b93934b237b960a11b81525081526020016040518060800160405280604b815260200162005082604b913981526020016040518060200160405280600081525081526020016064815260200160c88152602001600f8152602001600a81526020016000815260200160405180606001604052806005600d81111562000d6d5762000d6d62001cfd565b600d81111562000d815762000d8162001cfd565b815260200160068152602001600c90529052600b600060078152602081019190915260400160002081518154829060ff1916600183600d81111562000dca5762000dca62001cfd565b0217905550602082810151805162000de9926001850192019062001aa3565b506040820151805162000e0791600284019160209091019062001aa3565b506060820151805162000e2591600384019160209091019062001aa3565b506080820151600482015560a0820151600582015560c0820151600682015560e08201516007820155610100820151600882015561012082015162000e71906009830190600362001b32565b5050604080516101408101909152905080600881526020016040518060400160405280600b81526020016a135d5cdade481cdb595b1b60aa1b815250815260200160405180610120016040528060ed815260200162004c5060ed913981526020016040518060e0016040528060a6815260200162004fdc60a69139815260200161019081526020016101f48152602001600f8152602001600a8152602001601e815260200160405180606001604052806005600d81111562000f375762000f3762001cfd565b600d81111562000f4b5762000f4b62001cfd565b8152602001600c8152602001600d90529052600b600060088152602081019190915260400160002081518154829060ff1916600183600d81111562000f945762000f9462001cfd565b0217905550602082810151805162000fb3926001850192019062001aa3565b506040820151805162000fd191600284019160209091019062001aa3565b506060820151805162000fef91600384019160209091019062001aa3565b506080820151600482015560a0820151600582015560c0820151600682015560e0820151600782015561010082015160088201556101208201516200103b906009830190600362001b32565b5050604080516101408101909152905080600981526020016040518060400160405280600c81526020016b4c6f6f736520706c616e6b7360a01b81525081526020016040518060c00160405280609d815260200162004bb3609d9139815260200160405180610160016040528061012681526020016200446c6101269139815260200161019081526020016101f48152602001600f8152602001600a8152602001601e815260200160405180606001604052806005600d81111562001104576200110462001cfd565b600d81111562001118576200111862001cfd565b8152602001600c8152602001600d90529052600b600060098152602081019190915260400160002081518154829060ff1916600183600d81111562001161576200116162001cfd565b0217905550602082810151805162001180926001850192019062001aa3565b50604082015180516200119e91600284019160209091019062001aa3565b5060608201518051620011bc91600384019160209091019062001aa3565b506080820151600482015560a0820151600582015560c0820151600682015560e08201516007820155610100820151600882015561012082015162001208906009830190600362001b32565b5050604080516101408101909152905080600a81526020016040518060400160405280600c81526020016b119c9a595b991b1e481c985d60a21b815250815260200160405180610100016040528060c9815260200162004e1660c9913981526020016040518060e0016040528060c0815260200162004af360c09139815260200161019081526020016101f48152602001600f8152602001600a8152602001601e815260200160405180606001604052806005600d811115620012cf57620012cf62001cfd565b600d811115620012e357620012e362001cfd565b815260200160048152602001600c90529052600b6000600a8152602081019190915260400160002081518154829060ff1916600183600d8111156200132c576200132c62001cfd565b021790555060208281015180516200134b926001850192019062001aa3565b50604082015180516200136991600284019160209091019062001aa3565b50606082015180516200138791600384019160209091019062001aa3565b506080820151600482015560a0820151600582015560c0820151600682015560e082015160078201556101008201516008820155610120820151620013d3906009830190600362001b32565b5050604080516101408101909152905080600b81526020016040518060400160405280601381526020017f536f756e6473206f66206d75726d7572696e670000000000000000000000000081525081526020016040518060e0016040528060b381526020016200530c60b39139815260200160405180610120016040528060e58152602001620050cd60e59139815260200161019081526020016101f48152602001600f8152602001600a8152602001601e815260200160405180606001604052806004600d811115620014ab57620014ab62001cfd565b600d811115620014bf57620014bf62001cfd565b8152602001600c8152602001600790529052600b6000818152602081019190915260400160002081518154829060ff1916600183600d81111562001507576200150762001cfd565b0217905550602082810151805162001526926001850192019062001aa3565b50604082015180516200154491600284019160209091019062001aa3565b50606082015180516200156291600384019160209091019062001aa3565b506080820151600482015560a0820151600582015560c0820151600682015560e082015160078201556101008201516008820155610120820151620015ae906009830190600362001b32565b5050604080516101408101909152905080600c81526020016040518060400160405280600681526020016511195cd95c9d60d21b815250815260200160405180602001604052806000815250815260200160405180610100016040528060d9815260200162004d3d60d99139815260200161019081526020016101f48152602001600f8152602001600a8152602001601e815260200160405180606001604052806005600d81111562001665576200166562001cfd565b600d81111562001679576200167962001cfd565b8152602001600a8152602001600d90529052600b6000600c8152602081019190915260400160002081518154829060ff1916600183600d811115620016c257620016c262001cfd565b02179055506020828101518051620016e1926001850192019062001aa3565b5060408201518051620016ff91600284019160209091019062001aa3565b50606082015180516200171d91600384019160209091019062001aa3565b506080820151600482015560a0820151600582015560c0820151600682015560e08201516007820155610100820151600882015561012082015162001769906009830190600362001b32565b5050604080516101408101909152905080600d81526020016040518060400160405280600681526020016550616c61636560d01b81525081526020016040518060400160405280601481526020017f596f7520656e746572207468652070616c616365000000000000000000000000815250815260200160405180610160016040528061012c8152602001620045b861012c91398152602001611388815260200161c35081526020016000815260200160648152602001600081526020016040518060600160405280600a600d81111562001848576200184862001cfd565b600d8111156200185c576200185c62001cfd565b8152602001600c8152602001600d90529052600b6000600d8152602081019190915260400160002081518154829060ff1916600183600d811115620018a557620018a562001cfd565b02179055506020828101518051620018c4926001850192019062001aa3565b5060408201518051620018e291600284019160209091019062001aa3565b50606082015180516200190091600384019160209091019062001aa3565b506080820151600482015560a0820151600582015560c0820151600682015560e0820151600782015561010082015160088201556101208201516200194c906009830190600362001b32565b50506000805250600b6020527fdf7de25b7f1fd6d0b5205f0e18f1f35bd7b8d84cce336588d184533ce43a6f76805460018054909160ff1690829060ff19168183600d811115620019a157620019a162001cfd565b02179055506001820181600101908054620019bc9062001d13565b620019c992919062001bd8565b506002820181600201908054620019e09062001d13565b620019ed92919062001bd8565b50600382018160030190805462001a049062001d13565b62001a1192919062001bd8565b506004820154816004015560058201548160050155600682015481600601556007820154816007015560088201548160080155600982018160090190600362001a5c92919062001c5c565b5050600d80546001600160a01b039485166001600160a01b03199182168117909255600e8054949095169381169390931790935550600f8054909116909117905562001d4f565b82805462001ab19062001d13565b90600052602060002090601f01602090048101928262001ad5576000855562001b20565b82601f1062001af057805160ff191683800117855562001b20565b8280016001018555821562001b20579182015b8281111562001b2057825182559160200191906001019062001b03565b5062001b2e92915062001c91565b5090565b60018301918390821562001b205791602002820160005b8382111562001b9a57835183826101000a81548160ff0219169083600d81111562001b785762001b7862001cfd565b0217905550926020019260010160208160000104928301926001030262001b49565b801562001bc95782816101000a81549060ff021916905560010160208160000104928301926001030262001b9a565b505062001b2e92915062001c91565b82805462001be69062001d13565b90600052602060002090601f01602090048101928262001c0a576000855562001b20565b82601f1062001c1d578054855562001b20565b8280016001018555821562001b2057600052602060002091601f016020900482015b8281111562001b2057825482559160010191906001019062001c3f565b60018301918390821562001b205791601f016020900482018281111562001b2057825482559160010191906001019062001c3f565b5b8082111562001b2e576000815560010162001c92565b80516001600160a01b038116811462001cc057600080fd5b919050565b6000806040838503121562001cd957600080fd5b62001ce48362001ca8565b915062001cf46020840162001ca8565b90509250929050565b634e487b7160e01b600052602160045260246000fd5b600181811c9082168062001d2857607f821691505b60208210810362001d4957634e487b7160e01b600052602260045260246000fd5b50919050565b61253e8062001d5f6000396000f3fe60806040526004361061011f5760003560e01c8063a94320a7116100a0578063d65ab5f211610064578063d65ab5f214610382578063ef5526431461038a578063f23a6e61146103aa578063f26be3fc146103d6578063fe693f1e146103f857600080fd5b8063a94320a7146102bb578063b0917b87146102d0578063b75746ca146102f0578063bc197c811461031d578063bcddf3891461036257600080fd5b8063607d3c77116100e7578063607d3c77146101f657806365e20d141461021657806376e033c714610243578063835dcac4146102635780638da5cb5b1461028357600080fd5b806301ffc9a714610124578063106630ba1461015957806328349c8f1461018757806329b905a0146101a75780633928d57b146101d4575b600080fd5b34801561013057600080fd5b5061014461013f366004611e0d565b61040d565b60405190151581526020015b60405180910390f35b34801561016557600080fd5b50610179610174366004611e53565b610444565b604051908152602001610150565b34801561019357600080fd5b506101446101a2366004611e53565b610533565b3480156101b357600080fd5b506101c76101c2366004611e53565b61056c565b6040516101509190611fd3565b3480156101e057600080fd5b506101e9610697565b6040516101509190612035565b34801561020257600080fd5b50610179610211366004611e53565b61093c565b34801561022257600080fd5b50610236610231366004612048565b610993565b6040516101509190612069565b34801561024f57600080fd5b5061014461025e366004611e53565b610a5d565b34801561026f57600080fd5b506101e961027e366004612048565b610a66565b34801561028f57600080fd5b50600e546102a3906001600160a01b031681565b6040516001600160a01b039091168152602001610150565b6102ce6102c936600461207c565b610d42565b005b3480156102dc57600080fd5b506101796102eb366004611e53565b611489565b3480156102fc57600080fd5b5061031061030b366004611e53565b6114e0565b6040516101509190612095565b34801561032957600080fd5b50610349610338366004612266565b63bc197c8160e01b95945050505050565b6040516001600160e01b03199091168152602001610150565b34801561036e57600080fd5b50600d546102a3906001600160a01b031681565b6102ce611735565b34801561039657600080fd5b506101e96103a5366004611e53565b6118e9565b3480156103b657600080fd5b506103496103c5366004612310565b63f23a6e6160e01b95945050505050565b3480156103e257600080fd5b506103eb600081565b6040516101509190612375565b34801561040457600080fd5b50610179600381565b60006001600160e01b03198216630271189760e51b148061043e57506301ffc9a760e01b6001600160e01b03198316145b92915050565b600f546040805163df8b193760e01b8152905160009283926001600160a01b039091169162fdd58e918691849163df8b19379160048083019260209291908290030181865afa15801561049b573d6000803e3d6000fd5b505050506040513d601f19601f820116820180604052508101906104bf9190612383565b6040516001600160e01b031960e085901b1681526001600160a01b0390921660048301526024820152604401602060405180830381865afa158015610508573d6000803e3d6000fd5b505050506040513d601f19601f8201168201806040525081019061052c9190612383565b9392505050565b600060025b6001600160a01b03831660009081526012602052604090205460ff16600281111561056557610565611e6e565b1492915050565b6001600160a01b038116600090815260116020526040808220815160608082019384905293929091600901906003908285855b82829054906101000a900460ff16600d8111156105be576105be611e6e565b81526020600192830181810494850194909303909202910180841161059f575094955060009450600393506105f292505050565b60405190808252806020026020018201604052801561062b57816020015b610618611c61565b8152602001906001900390816106105790505b50905060005b600381101561068f57600061065b8483600381106106515761065161239c565b6020020151610a66565b9050808383815181106106705761067061239c565b6020026020010181905250508080610687906123c8565b915050610631565b509392505050565b61069f611c61565b60408051610140810190915260018054829060ff16600d8111156106c5576106c5611e6e565b600d8111156106d6576106d6611e6e565b81526020016001820180546106ea906123e1565b80601f0160208091040260200160405190810160405280929190818152602001828054610716906123e1565b80156107635780601f1061073857610100808354040283529160200191610763565b820191906000526020600020905b81548152906001019060200180831161074657829003601f168201915b5050505050815260200160028201805461077c906123e1565b80601f01602080910402602001604051908101604052809291908181526020018280546107a8906123e1565b80156107f55780601f106107ca576101008083540402835291602001916107f5565b820191906000526020600020905b8154815290600101906020018083116107d857829003601f168201915b5050505050815260200160038201805461080e906123e1565b80601f016020809104026020016040519081016040528092919081815260200182805461083a906123e1565b80156108875780601f1061085c57610100808354040283529160200191610887565b820191906000526020600020905b81548152906001019060200180831161086a57829003601f168201915b5050505050815260200160048201548152602001600582015481526020016006820154815260200160078201548152602001600882015481526020016009820160038060200260405190810160405280929190826003801561092e576020028201916000905b82829054906101000a900460ff16600d81111561090c5761090c611e6e565b8152602060019283018181049485019490930390920291018084116108ed5790505b505050505081525050905090565b600f54604080516307c97dc760e31b8152905160009283926001600160a01b039091169162fdd58e9186918491633e4bee389160048083019260209291908290030181865afa15801561049b573d6000803e3d6000fd5b6060600b600083600d8111156109ab576109ab611e6e565b600d8111156109bc576109bc611e6e565b815260200190815260200160002060010180546109d8906123e1565b80601f0160208091040260200160405190810160405280929190818152602001828054610a04906123e1565b8015610a515780601f10610a2657610100808354040283529160200191610a51565b820191906000526020600020905b815481529060010190602001808311610a3457829003601f168201915b50505050509050919050565b60006001610538565b610a6e611c61565b600b600083600d811115610a8457610a84611e6e565b600d811115610a9557610a95611e6e565b815260208101919091526040908101600020815161014081019092528054829060ff16600d811115610ac957610ac9611e6e565b600d811115610ada57610ada611e6e565b8152602001600182018054610aee906123e1565b80601f0160208091040260200160405190810160405280929190818152602001828054610b1a906123e1565b8015610b675780601f10610b3c57610100808354040283529160200191610b67565b820191906000526020600020905b815481529060010190602001808311610b4a57829003601f168201915b50505050508152602001600282018054610b80906123e1565b80601f0160208091040260200160405190810160405280929190818152602001828054610bac906123e1565b8015610bf95780601f10610bce57610100808354040283529160200191610bf9565b820191906000526020600020905b815481529060010190602001808311610bdc57829003601f168201915b50505050508152602001600382018054610c12906123e1565b80601f0160208091040260200160405190810160405280929190818152602001828054610c3e906123e1565b8015610c8b5780601f10610c6057610100808354040283529160200191610c8b565b820191906000526020600020905b815481529060010190602001808311610c6e57829003601f168201915b50505050508152602001600482015481526020016005820154815260200160068201548152602001600782015481526020016008820154815260200160098201600380602002604051908101604052809291908260038015610d32576020028201916000905b82829054906101000a900460ff16600d811115610d1057610d10611e6e565b815260206001928301818104948501949093039092029101808411610cf15790505b5050505050815250509050919050565b600260005403610d995760405162461bcd60e51b815260206004820152601f60248201527f5265656e7472616e637947756172643a207265656e7472616e742063616c6c0060448201526064015b60405180910390fd5b6002600055610dac600c80546001019055565b6000610db7600c5490565b3360009081526011602052604080822081516060810192839052939450919291600901906003908285855b82829054906101000a900460ff16600d811115610e0157610e01611e6e565b815260206001928301818104948501949093039092029101808411610de2579050505050505090506000818460038110610e3d57610e3d61239c565b602002015190506000610e4f82610a66565b90506000610e5d6004611ba5565b9050600080600080856101000151606486600081518110610e8057610e8061239c565b6020026020010151610e929190612415565b1090508015610eba57336000908152601260205260409020805460ff19166002179055611235565b608086015160a0870151610ecf908290612437565b86600181518110610ee257610ee261239c565b6020026020010151610ef49190612415565b610efe919061244e565b93508560c00151606486600281518110610f1a57610f1a61239c565b6020026020010151610f2c9190612415565b1092508560e00151606486600381518110610f4957610f4961239c565b6020026020010151610f5b9190612415565b6040805160038082526080820190925292909110935060009190602082016060803683375050600f54604080516307c97dc760e31b815290519394506001600160a01b0390911692633e4bee38925060048083019260209291908290030181865afa158015610fce573d6000803e3d6000fd5b505050506040513d601f19601f82011682018060405250810190610ff29190612383565b816000815181106110055761100561239c565b602090810291909101810191909152600f5460408051632dc387b360e01b815290516001600160a01b0390921692632dc387b3926004808401938290030181865afa158015611058573d6000803e3d6000fd5b505050506040513d601f19601f8201168201806040525081019061107c9190612383565b8160018151811061108f5761108f61239c565b602090810291909101810191909152600f546040805163df8b193760e01b815290516001600160a01b039092169263df8b1937926004808401938290030181865afa1580156110e2573d6000803e3d6000fd5b505050506040513d601f19601f820116820180604052508101906111069190612383565b816002815181106111195761111961239c565b602090810291909101015260408051600380825260808201909252600091816020016020820280368337019050509050858160008151811061115d5761115d61239c565b60200260200101818152505084611175576000611178565b60015b60ff168160018151811061118e5761118e61239c565b602002602001018181525050836111a65760006111a9565b60015b60ff16816002815181106111bf576111bf61239c565b6020908102919091010152600f54604051631759616b60e11b81526001600160a01b0390911690632eb2c2d6906112009030903390879087906004016124a1565b600060405180830381600087803b15801561121a57600080fd5b505af115801561122e573d6000803e3d6000fd5b5050505050505b3360009081526011602052604090208651815488929190829060ff1916600183600d81111561126657611266611e6e565b021790555060208281015180516112839260018501920190611cba565b506040820151805161129f916002840191602090910190611cba565b50606082015180516112bb916003840191602090910190611cba565b506080820151600482015560a0820151600582015560c0820151600682015560e0820151600782015561010082015160088201556101208201516113059060098301906003611d3e565b509050506040518060e001604052808a815260200188600d81111561132c5761132c611e6e565b81526020808201879052336040808401919091528615156060840152851515608084015284151560a09093019290925260008c81526010825291909120825181559082015160018083018054909160ff199091169083600d81111561139357611393611e6e565b021790555060408201516002820155606082015160039091018054608084015160a085015160c0909501511515600160b01b0260ff60b01b19951515600160a81b029590951661ffff60a81b19911515600160a01b026001600160a81b03199093166001600160a01b039095169490941791909117169190911791909117905586600d81111561142557611425611e6e565b60408051868152336020820152851515818301528415156060820152831515608082015290518b917f431982e792b5c4da0e5b79a3bb8d619c1b7edcfb11b09c5d397ca5336c0227e2919081900360a00190a3505060016000555050505050505050565b600f5460408051632dc387b360e01b8152905160009283926001600160a01b039091169162fdd58e9186918491632dc387b39160048083019260209291908290030181865afa15801561049b573d6000803e3d6000fd5b606060006114ed600c5490565b905060008060005b83811015611558576001600160a01b0386166010600061151684600161244e565b81526020810191909152604001600020600301546001600160a01b0316036115465761154360018461244e565b92505b80611550816123c8565b9150506114f5565b5060008267ffffffffffffffff8111156115745761157461212f565b6040519080825280602002602001820160405280156115db57816020015b6040805160e08101825260008082526020808301829052928201819052606082018190526080820181905260a0820181905260c082015282526000199092019101816115925790505b50905060005b8481101561172b576001600160a01b0387166010600061160284600161244e565b81526020810191909152604001600020600301546001600160a01b03160361171957600060108161163484600161244e565b815260208082019290925260409081016000908120548082526010845290829020825160e081019093528054835260018101549194509283919083019060ff16600d81111561168557611685611e6e565b600d81111561169657611696611e6e565b8152600282015460208201526003909101546001600160a01b038116604083015260ff600160a01b8204811615156060840152600160a81b8204811615156080840152600160b01b90910416151560a09091015284518590879081106116fe576116fe61239c565b602090810291909101015261171460018661244e565b945050505b80611723816123c8565b9150506115e1565b5095945050505050565b6002600054036117875760405162461bcd60e51b815260206004820152601f60248201527f5265656e7472616e637947756172643a207265656e7472616e742063616c6c006044820152606401610d90565b600260005560013360009081526012602052604090205460ff1660028111156117b2576117b2611e6e565b036117f15760405162461bcd60e51b815260206004820152600f60248201526e616c726561647920696e2067616d6560881b6044820152606401610d90565b6117f9610697565b33600090815260116020526040902081518154829060ff1916600183600d81111561182657611826611e6e565b021790555060208281015180516118439260018501920190611cba565b506040820151805161185f916002840191602090910190611cba565b506060820151805161187b916003840191602090910190611cba565b506080820151600482015560a0820151600582015560c0820151600682015560e0820151600782015561010082015160088201556101208201516118c59060098301906003611d3e565b5050336000908152601260205260408120805460ff19166001908117909155905550565b6118f1611c61565b6001600160a01b03821660009081526011602052604090819020815161014081019092528054829060ff16600d81111561192d5761192d611e6e565b600d81111561193e5761193e611e6e565b8152602001600182018054611952906123e1565b80601f016020809104026020016040519081016040528092919081815260200182805461197e906123e1565b80156119cb5780601f106119a0576101008083540402835291602001916119cb565b820191906000526020600020905b8154815290600101906020018083116119ae57829003601f168201915b505050505081526020016002820180546119e4906123e1565b80601f0160208091040260200160405190810160405280929190818152602001828054611a10906123e1565b8015611a5d5780601f10611a3257610100808354040283529160200191611a5d565b820191906000526020600020905b815481529060010190602001808311611a4057829003601f168201915b50505050508152602001600382018054611a76906123e1565b80601f0160208091040260200160405190810160405280929190818152602001828054611aa2906123e1565b8015611aef5780601f10611ac457610100808354040283529160200191611aef565b820191906000526020600020905b815481529060010190602001808311611ad257829003601f168201915b50505050508152602001600482015481526020016005820154815260200160068201548152602001600782015481526020016008820154815260200160098201600380602002604051908101604052809291908260038015610d32576020028201916000905b82829054906101000a900460ff16600d811115611b7457611b74611e6e565b815260206001928301818104948501949093039092029101808411611b555790505050505050815250509050919050565b60608167ffffffffffffffff811115611bc057611bc061212f565b604051908082528060200260200182016040528015611be9578160200160208202803683370190505b50905060005b82811015611c5b57604080514460208201524291810191909152606081018290526080016040516020818303038152906040528051906020012060001c828281518110611c3e57611c3e61239c565b602090810291909101015280611c53816123c8565b915050611bef565b50919050565b60408051610140810190915280600081526020016060815260200160608152602001606081526020016000815260200160008152602001600081526020016000815260200160008152602001611cb5611dda565b905290565b828054611cc6906123e1565b90600052602060002090601f016020900481019282611ce85760008555611d2e565b82601f10611d0157805160ff1916838001178555611d2e565b82800160010185558215611d2e579182015b82811115611d2e578251825591602001919060010190611d13565b50611d3a929150611df8565b5090565b600183019183908215611d2e5791602002820160005b83821115611da057835183826101000a81548160ff0219169083600d811115611d7f57611d7f611e6e565b02179055509260200192600101602081600001049283019260010302611d54565b8015611dcd5782816101000a81549060ff0219169055600101602081600001049283019260010302611da0565b5050611d3a929150611df8565b60405180606001604052806003906020820280368337509192915050565b5b80821115611d3a5760008155600101611df9565b600060208284031215611e1f57600080fd5b81356001600160e01b03198116811461052c57600080fd5b80356001600160a01b0381168114611e4e57600080fd5b919050565b600060208284031215611e6557600080fd5b61052c82611e37565b634e487b7160e01b600052602160045260246000fd5b600e8110611ea257634e487b7160e01b600052602160045260246000fd5b9052565b6000815180845260005b81811015611ecc57602081850181015186830182015201611eb0565b81811115611ede576000602083870101525b50601f01601f19169290920160200192915050565b8060005b6003811015611f1e57611f0b848351611e84565b6020938401939190910190600101611ef7565b50505050565b6000610180611f34848451611e84565b6020830151816020860152611f4b82860182611ea6565b91505060408301518482036040860152611f658282611ea6565b91505060608301518482036060860152611f7f8282611ea6565b9150506080830151608085015260a083015160a085015260c083015160c085015260e083015160e085015261010080840151818601525061012080840151611fc982870182611ef3565b5090949350505050565b6000602080830181845280855180835260408601915060408160051b870101925083870160005b8281101561202857603f19888603018452612016858351611f24565b94509285019290850190600101611ffa565b5092979650505050505050565b60208152600061052c6020830184611f24565b60006020828403121561205a57600080fd5b8135600e811061052c57600080fd5b60208152600061052c6020830184611ea6565b60006020828403121561208e57600080fd5b5035919050565b602080825282518282018190526000919060409081850190868401855b8281101561212257815180518552868101516120d088870182611e84565b5080860151858701526060808201516001600160a01b03169086015260808082015115159086015260a08082015115159086015260c09081015115159085015260e090930192908501906001016120b2565b5091979650505050505050565b634e487b7160e01b600052604160045260246000fd5b604051601f8201601f1916810167ffffffffffffffff8111828210171561216e5761216e61212f565b604052919050565b600082601f83011261218757600080fd5b8135602067ffffffffffffffff8211156121a3576121a361212f565b8160051b6121b2828201612145565b92835284810182019282810190878511156121cc57600080fd5b83870192505b848310156121eb578235825291830191908301906121d2565b979650505050505050565b600082601f83011261220757600080fd5b813567ffffffffffffffff8111156122215761222161212f565b612234601f8201601f1916602001612145565b81815284602083860101111561224957600080fd5b816020850160208301376000918101602001919091529392505050565b600080600080600060a0868803121561227e57600080fd5b61228786611e37565b945061229560208701611e37565b9350604086013567ffffffffffffffff808211156122b257600080fd5b6122be89838a01612176565b945060608801359150808211156122d457600080fd5b6122e089838a01612176565b935060808801359150808211156122f657600080fd5b50612303888289016121f6565b9150509295509295909350565b600080600080600060a0868803121561232857600080fd5b61233186611e37565b945061233f60208701611e37565b93506040860135925060608601359150608086013567ffffffffffffffff81111561236957600080fd5b612303888289016121f6565b6020810161043e8284611e84565b60006020828403121561239557600080fd5b5051919050565b634e487b7160e01b600052603260045260246000fd5b634e487b7160e01b600052601160045260246000fd5b6000600182016123da576123da6123b2565b5060010190565b600181811c908216806123f557607f821691505b602082108103611c5b57634e487b7160e01b600052602260045260246000fd5b60008261243257634e487b7160e01b600052601260045260246000fd5b500690565b600082821015612449576124496123b2565b500390565b60008219821115612461576124616123b2565b500190565b600081518084526020808501945080840160005b838110156124965781518752958201959082019060010161247a565b509495945050505050565b6001600160a01b0385811682528416602082015260a0604082018190526000906124cd90830185612466565b82810360608401526124df8185612466565b8381036080909401939093525050600381526203078360ec1b602082015260400194935050505056fea26469706673582212202eb1260b661376a583e4d265822354df22dd14ab2a6827752fa7bbfbcc73e59f64736f6c634300080d003354686520636f6d666f7274696e6720736d656c6c206f66206120636f6f6b2773206669726520656e746963657320796f752e20596f752066696e6420796f75722077617920746f206120636176652077697468206120736f667420676c6f772c20616e6420736565206120667269656e646c7920776f6d616e20636f6f6b696e672072617420616e6420726f6f7420766567657461626c6573206f7665722074686520666972652e205368652073686172657320736f6d6520666f6f64207769746820796f7520616e642074616c6b732c206576656e7475616c6c7920706f696e74696e6720796f7520696e2074686520726967687420646972656374696f6e2e596f752073706f7420736f6d652062726f6b656e206d696e65206361727420747261636b7320616e64207468696e6b206d617962652074686579206f6e6365206c6564206261636b20746f2074686520737572666163652e2054686520747261636b73206765742068656176696c792065726f64656420617320796f7520636c696d62206869676865722e2e2e206576656e7475616c6c7920636f6c6c617073696e672e20596f752066616c6c206f666620746865207369646520746f2074686520726f636b732062656c6f772e5768696c65206578706c6f72696e67207468657365206c617267652c206d6f73746c7920656d7074792063617665732c20796f75207374756d626c652075706f6e20736f6d6520776f6f64656e20706c616e6b732e204f6e652069732077617270656420617420616e20616e676c6520736f20617320746f20637265617465206120737072696e672e20596f7520676967676c6520617320796f75206a756d7020757020616e6420646f776e2e2054616b696e6720796f7572206c617267657374206a756d70207965742c2074686520776f6f642067697665732077617920617320796f75206a756d7020696e20746865206169722077697468206e6f7468696e672062757420736861727020726f636b7320746f20627265616b20796f75722066616c6c2e4572726f723a2063616e6e6f742064696520617420746865207374617274696e672061726561596f7520656e746572207468652070616c6163652c206f6e6c7920746f2066696e64206974206973206f76657272756e207769746820636c6f616b65642066696775726573206368616e74696e6720696e206120636972636c652e20416c6c2065796573207475726e20746f776172647320796f7520616e6420746865206368616e74696e672067657473206c6f756465722e2041206e756d626572206f66206c617267652063726561747572657320666f726d2066726f6d207468652073616e642061726f756e6420796f752c20616e64207374617274206368617267696e672c206772616262696e6720616e6420736d6f74686572696e6720796f752e20596f752074727920746f206272656174682c206275742063616e206f6e6c7920696e68616c652073616e642e596f752073706f7420736f6d652062726f6b656e206d696e65206361727420747261636b7320616e64207468696e6b206d617962652074686579206f6e6365206c6564206261636b20746f2074686520737572666163652e20556e666f7274756e6174656c792c20746865207061746820686173206265656e207765616b656e65642066726f6d2065726f73696f6e20616e64206173207468652067726f756e64206769766573207761792c20796f7520736c696465206261636b20746f20776865726520796f752063616d652066726f6d2e596f75206177616b656e2061742074686520626f74746f6d206f662061206465657020756e7363616c61626c6520636861736d207769746820636176657320696e20616c6c20646972656374696f6e732e2053696c656e63652066696c6c73207468652073706163652061726f756e6420796f752e20596f752063616e207365652063697479206c69676874732061746f702074686520737572666163652e2049742077696c6c2062652061206c6f6e67206a6f75726e657920746f2066696e6420796f757220776179206261636b2075702e546869732063617665206973207061727469616c6c7920626f617264656420757020616e64206c6f6f6b73206c696b6520697420636f756c6420636f6c6c617073652c2062757420796f75206d616e61676520746f2073717565657a65207468726f7567682e20596f7520726f756e642074686520636f726e657220616e64206c6574206f75742061207465727269666965642073717565616c20617320796f7520636f6d65206661636520746f206661636520776974682061206769616e74207370696465722e204c75636b696c7920666f7220796f752c20697427732061736c65657020666f72206e6f772061667465722061206c61726765206d65616c2e202a67756c702a20596f75206361726566756c6c7920736964657374657020746865206769616e74207765627320616e64206d616b6520796f757220776179206f757420746865206f7468657220736964652e546865206f6c64206c61646465722067726f616e7320616e642073717565616b7320617320796f7520636c696d6220757020746f20636f6e74696e7565206f6e2e54686520736d656c6c206f6620736d6f6b6520616e6420736f756e64206f66206c6175676874657220676976657320796f7520686f70652074686174207468657265206d61792062652070656f706c65206e65617262792077696c6c696e6720746f2068656c702e20556e666f7274756e6174656c792c207468656972206c61756768746572207475726e7320746f206361636b6c696e6720617320796f752067657420636c6f73657220616e6420746865792064656369646520796f75277265207468656972206e657874207461726765742e596f75206865617220612073717565616b20616e64206c6f6f6b20646f776e2e2041206c617267652c2061646f7261626c6520726174207365656d7320746f20626520747279696e6720746f20636f6d6d756e6963617465207769746820796f752e20596f7520666f6c6c6f7720697420646f776e206120706174687761792c2062757420656e642075702067657474696e67206c656420696e746f20612070697420747261702e2057686f20776f756c6420686176652074686f756768743f5768696c65206578706c6f72696e67207468657365206c617267652c206d6f73746c7920656d7074792063617665732c20796f75207374756d626c652075706f6e20736f6d6520776f6f64656e20706c616e6b732e20536f6d65207365656d206c6f6f73652c20616e6420796f752070756c6c206f6e6520757020746f2072657665616c20612074756e6e656c2074686174206c65616473206f75742e596f7520666f6c6c6f772061206d75736b7920736d656c6c20616e642061727269766520617420736f6d65206d757368726f6f6d732067726f77696e6720696e206d616e2d6d61646520626f78657320696e20612063616e646c652d6c69742073656374696f6e206f66206120636176652e20416e206f6c6420707269736f6e657220706f6c6974656c79206f666665727320796f75206f6e652e20596f752074616b65207468652073757374656e616e636520616e64207468616e6b2068696d2c20617320686520706f696e747320796f7520746f776172647320612068696464656e20706174687761792e596f752077616c6b207468652064657365727420666f7220686f75727320616e642066696e616c6c7920736565206c616b6520616e642070616c61636520696e207468652064697374616e63652e20417320796f752067657420636c6f7365722c20796f75207265616c697a652074686520686561742064616e63696e67206f6666207468652073616e6420686173206265656e20706c6179696e6720747269636b73206f6e20796f752c2062757420697420697320746f6f206c6174652e20596f7520636f6c6c617073652066726f6d207468697273742e596f75206865617220612073717565616b20616e64206c6f6f6b20646f776e2e2041206c617267652c2061646f7261626c6520726174207365656d7320746f20626520747279696e6720746f20636f6d6d756e6963617465207769746820796f752e204974207475726e7320616e642073637574746c65732061686561642c207468656e2073746f707320746f206c6f6f6b20617420796f7520616e64207370696e7320696e206120636972636c652e20596f752064656369646520746f20666f6c6c6f772069742e546865206d696e6573206865726520617265206f6c6420616e64206162616e646f6e6564206e6f772074686174207468656972207265736f75726365732068617665206265656e206861727665737465642e205468652074756e6e656c732073747265746368206f6e20666f722077686174207365656d73206c696b6520686f7572732c2062757420796f75206d616b6520796f757220776179207468726f75676820746865206461726b6e6573732e20546865206d696e65206f70656e7320757020746f2077686174207365656d7320746f20626520616e206f70656e2061726561206f6620616e20756e64657267726f756e6420707269736f6e2e596f7520666f6c6c6f772061206d75736b7920736d656c6c20746f20736f6d652063617665206d757368726f6f6d732c20616e6420796f75722068756e67657220676574732074686520626574746572206f6620796f752e20596f7520726567726574206974206d6f6d656e7473206c61746572206173207061696e2073746172747320746f2073686f6f74207468726f75676820796f7572206775742e20506f69736f6e21596f752077616c6b207468726f7567682061206c6f6e672c206475737479206f6c6420636f727269646f7220616e642070617373207468726f75676820612073747572647920646f6f722e596f7520736e65616b2061726f756e64206c6f6f6b696e6720666f722074686520736f75726365206f6620746865206d75726d7572696e672c20616e642066696e6420612067726f7570206f662067756172647320706c6179696e6720646963652e204e6f7420736e65616b696c7920656e6f7567682c206173206120677561726420696e20746865206c6f6f6b6f757420746f77657220626c6f7773206120686f726e20616e6420616c6c20746865206f7468657220677561726473207475726e20746f776172647320796f7520616e6420647261772074686569722073776f7264732e54686520726f636b732061626f7665206c6f6f6b20736861727020616e642066726167696c652e204f6e652066616c6c7320746f207468652067726f756e64206168656164206f6620796f752c2073686174746572696e672061732069742068697473207468652067726f756e642e20596f75206c6f6f6b207570206173206f6e6520636f6d657320637261636b6c696e6720646f776e2c20616e64206974277320746865206c617374207468696e6720796f75207365652e54696d65206861732064656772616465642074686973206f6c64206c6164646572206d6f7265207468616e206669727374207065726365697665642e20274d61796265206974276c6c206c61737420756e74696c20492072656163682074686520746f703f2720796f7520686f70652c20627574207468656e2073637265616d20617320697420636f6c6c617073657320696e2066726f6e74206f6620796f752e596f7520736e65616b2061726f756e64206c6f6f6b696e6720666f722074686520736f75726365206f6620746865206d75726d7572696e672c20616e642073656520612067726f7570206f662072616767656420707269736f6e65727320656e7465727461696e696e67207468656d73656c766573207769746820736f6d65206b696e64206f6620626f6e652d746f7373696e672067616d652e20596f7520736e65616b20627920756e64657465637465642e27537572652c2049276c6c20636865636b206f757420746869732066726167696c65206c6f6f6b696e6720636176652e2720796f75207361792c20617320736861727020726f636b732066616c6c2061726f756e6420796f75206c696b65207370696b79206465617468207261696e2e20536f6d65686f7720796f75206d616e61676520796f757220776179207468726f75676820756e736361746865642e546865206e6172726f7720636176652067657473207468696e6e657220616e64207468696e6e657220617320796f752076656e74757265207468726f7567682e20596f752073717565657a6520796f757220776179207468726f7567682061207475726e20616e642073637261706520796f7572206b6e65652e204974206765747320736f206e6172726f77207468617420796f752063616e207475726e20796f757220686561642e20596f752074727920746f20726576657273652c2062757420796f757220666f6f742069732063617567687420616e642074686520636176652073746172747320746f2066696c6c20776974682077617465722e204166746572206661696c656420617474656d70747320746f207374727567676c6520667265652c20796f752064726f776e20696e2074686520636176652e",
  "linkReferences": {},
  "deployedLinkReferences": {}
}