{
  "_format": "hh-sol-artifact-1",
  "contractName": "Game",
  "sourceName": "contracts/Game.sol",
  "abi": [
    {
      "inputs": [
        {
          "internalType": "address",
          "name": "_gameItemsAddress",
          "type": "address"
        },
        {
          "internalType": "address",
          "name": "_owner",
          "type": "address"
        }
      ],
      "stateMutability": "nonpayable",
      "type": "constructor"
    },
    {
      "inputs": [],
      "name": "NULL",
      "outputs": [
        {
          "internalType": "enum GameData.PathType",
          "name": "",
          "type": "uint8"
        }
      ],
      "stateMutability": "view",
      "type": "function"
    },
    {
      "inputs": [],
      "name": "PATHS_TO_CHOOSE",
      "outputs": [
        {
          "internalType": "uint256",
          "name": "",
          "type": "uint256"
        }
      ],
      "stateMutability": "view",
      "type": "function"
    },
    {
      "inputs": [
        {
          "internalType": "uint256",
          "name": "choiceId",
          "type": "uint256"
        }
      ],
      "name": "choosePath",
      "outputs": [],
      "stateMutability": "payable",
      "type": "function"
    },
    {
      "inputs": [
        {
          "internalType": "address",
          "name": "player",
          "type": "address"
        }
      ],
      "name": "fetchCurrentPath",
      "outputs": [
        {
          "components": [
            {
              "internalType": "enum GameData.PathType",
              "name": "pathType",
              "type": "uint8"
            },
            {
              "internalType": "string",
              "name": "pathName",
              "type": "string"
            },
            {
              "internalType": "string",
              "name": "pathDescription",
              "type": "string"
            },
            {
              "internalType": "string",
              "name": "deathDescription",
              "type": "string"
            },
            {
              "internalType": "uint256",
              "name": "minGold",
              "type": "uint256"
            },
            {
              "internalType": "uint256",
              "name": "maxGold",
              "type": "uint256"
            },
            {
              "internalType": "uint256",
              "name": "percentKey",
              "type": "uint256"
            },
            {
              "internalType": "uint256",
              "name": "percentTreasure",
              "type": "uint256"
            },
            {
              "internalType": "uint256",
              "name": "percentDeath",
              "type": "uint256"
            },
            {
              "internalType": "enum GameData.PathType[3]",
              "name": "nextPathTypes",
              "type": "uint8[3]"
            }
          ],
          "internalType": "struct GameData.PathData",
          "name": "",
          "type": "tuple"
        }
      ],
      "stateMutability": "view",
      "type": "function"
    },
    {
      "inputs": [
        {
          "internalType": "address",
          "name": "player",
          "type": "address"
        }
      ],
      "name": "fetchPathHistory",
      "outputs": [
        {
          "components": [
            {
              "internalType": "uint256",
              "name": "pathId",
              "type": "uint256"
            },
            {
              "internalType": "enum GameData.PathType",
              "name": "pathType",
              "type": "uint8"
            },
            {
              "internalType": "uint256",
              "name": "gold",
              "type": "uint256"
            },
            {
              "internalType": "address payable",
              "name": "player",
              "type": "address"
            },
            {
              "internalType": "bool",
              "name": "key",
              "type": "bool"
            },
            {
              "internalType": "bool",
              "name": "treasure",
              "type": "bool"
            },
            {
              "internalType": "bool",
              "name": "death",
              "type": "bool"
            }
          ],
          "internalType": "struct Game.Path[]",
          "name": "",
          "type": "tuple[]"
        }
      ],
      "stateMutability": "view",
      "type": "function"
    },
    {
      "inputs": [],
      "name": "gameItemsAddress",
      "outputs": [
        {
          "internalType": "address",
          "name": "",
          "type": "address"
        }
      ],
      "stateMutability": "view",
      "type": "function"
    },
    {
      "inputs": [
        {
          "internalType": "address",
          "name": "player",
          "type": "address"
        }
      ],
      "name": "getBalanceOfGold",
      "outputs": [
        {
          "internalType": "uint256",
          "name": "gold",
          "type": "uint256"
        }
      ],
      "stateMutability": "view",
      "type": "function"
    },
    {
      "inputs": [
        {
          "internalType": "address",
          "name": "player",
          "type": "address"
        }
      ],
      "name": "getBalanceOfKey",
      "outputs": [
        {
          "internalType": "uint256",
          "name": "key",
          "type": "uint256"
        }
      ],
      "stateMutability": "view",
      "type": "function"
    },
    {
      "inputs": [
        {
          "internalType": "address",
          "name": "player",
          "type": "address"
        }
      ],
      "name": "getBalanceOfTreasure",
      "outputs": [
        {
          "internalType": "uint256",
          "name": "treasure",
          "type": "uint256"
        }
      ],
      "stateMutability": "view",
      "type": "function"
    },
    {
      "inputs": [],
      "name": "getInitialPath",
      "outputs": [
        {
          "components": [
            {
              "internalType": "enum GameData.PathType",
              "name": "pathType",
              "type": "uint8"
            },
            {
              "internalType": "string",
              "name": "pathName",
              "type": "string"
            },
            {
              "internalType": "string",
              "name": "pathDescription",
              "type": "string"
            },
            {
              "internalType": "string",
              "name": "deathDescription",
              "type": "string"
            },
            {
              "internalType": "uint256",
              "name": "minGold",
              "type": "uint256"
            },
            {
              "internalType": "uint256",
              "name": "maxGold",
              "type": "uint256"
            },
            {
              "internalType": "uint256",
              "name": "percentKey",
              "type": "uint256"
            },
            {
              "internalType": "uint256",
              "name": "percentTreasure",
              "type": "uint256"
            },
            {
              "internalType": "uint256",
              "name": "percentDeath",
              "type": "uint256"
            },
            {
              "internalType": "enum GameData.PathType[3]",
              "name": "nextPathTypes",
              "type": "uint8[3]"
            }
          ],
          "internalType": "struct GameData.PathData",
          "name": "",
          "type": "tuple"
        }
      ],
      "stateMutability": "view",
      "type": "function"
    },
    {
      "inputs": [
        {
          "internalType": "enum GameData.PathType",
          "name": "pathType",
          "type": "uint8"
        }
      ],
      "name": "getPathDataFromType",
      "outputs": [
        {
          "components": [
            {
              "internalType": "enum GameData.PathType",
              "name": "pathType",
              "type": "uint8"
            },
            {
              "internalType": "string",
              "name": "pathName",
              "type": "string"
            },
            {
              "internalType": "string",
              "name": "pathDescription",
              "type": "string"
            },
            {
              "internalType": "string",
              "name": "deathDescription",
              "type": "string"
            },
            {
              "internalType": "uint256",
              "name": "minGold",
              "type": "uint256"
            },
            {
              "internalType": "uint256",
              "name": "maxGold",
              "type": "uint256"
            },
            {
              "internalType": "uint256",
              "name": "percentKey",
              "type": "uint256"
            },
            {
              "internalType": "uint256",
              "name": "percentTreasure",
              "type": "uint256"
            },
            {
              "internalType": "uint256",
              "name": "percentDeath",
              "type": "uint256"
            },
            {
              "internalType": "enum GameData.PathType[3]",
              "name": "nextPathTypes",
              "type": "uint8[3]"
            }
          ],
          "internalType": "struct GameData.PathData",
          "name": "",
          "type": "tuple"
        }
      ],
      "stateMutability": "view",
      "type": "function"
    },
    {
      "inputs": [
        {
          "internalType": "enum GameData.PathType",
          "name": "pathType",
          "type": "uint8"
        }
      ],
      "name": "getPathNameFromType",
      "outputs": [
        {
          "internalType": "string",
          "name": "",
          "type": "string"
        }
      ],
      "stateMutability": "view",
      "type": "function"
    },
    {
      "inputs": [
        {
          "internalType": "address",
          "name": "player",
          "type": "address"
        }
      ],
      "name": "isDead",
      "outputs": [
        {
          "internalType": "bool",
          "name": "_isDead",
          "type": "bool"
        }
      ],
      "stateMutability": "view",
      "type": "function"
    },
    {
      "inputs": [
        {
          "internalType": "address",
          "name": "player",
          "type": "address"
        }
      ],
      "name": "isInGame",
      "outputs": [
        {
          "internalType": "bool",
          "name": "_isInGame",
          "type": "bool"
        }
      ],
      "stateMutability": "view",
      "type": "function"
    },
    {
      "inputs": [
        {
          "internalType": "address",
          "name": "",
          "type": "address"
        },
        {
          "internalType": "address",
          "name": "",
          "type": "address"
        },
        {
          "internalType": "uint256[]",
          "name": "",
          "type": "uint256[]"
        },
        {
          "internalType": "uint256[]",
          "name": "",
          "type": "uint256[]"
        },
        {
          "internalType": "bytes",
          "name": "",
          "type": "bytes"
        }
      ],
      "name": "onERC1155BatchReceived",
      "outputs": [
        {
          "internalType": "bytes4",
          "name": "",
          "type": "bytes4"
        }
      ],
      "stateMutability": "nonpayable",
      "type": "function"
    },
    {
      "inputs": [
        {
          "internalType": "address",
          "name": "",
          "type": "address"
        },
        {
          "internalType": "address",
          "name": "",
          "type": "address"
        },
        {
          "internalType": "uint256",
          "name": "",
          "type": "uint256"
        },
        {
          "internalType": "uint256",
          "name": "",
          "type": "uint256"
        },
        {
          "internalType": "bytes",
          "name": "",
          "type": "bytes"
        }
      ],
      "name": "onERC1155Received",
      "outputs": [
        {
          "internalType": "bytes4",
          "name": "",
          "type": "bytes4"
        }
      ],
      "stateMutability": "nonpayable",
      "type": "function"
    },
    {
      "inputs": [],
      "name": "owner",
      "outputs": [
        {
          "internalType": "address",
          "name": "",
          "type": "address"
        }
      ],
      "stateMutability": "view",
      "type": "function"
    },
    {
      "inputs": [],
      "name": "startGame",
      "outputs": [],
      "stateMutability": "payable",
      "type": "function"
    },
    {
      "inputs": [
        {
          "internalType": "bytes4",
          "name": "interfaceId",
          "type": "bytes4"
        }
      ],
      "name": "supportsInterface",
      "outputs": [
        {
          "internalType": "bool",
          "name": "",
          "type": "bool"
        }
      ],
      "stateMutability": "view",
      "type": "function"
    }
  ],
  "bytecode": "0x60806040523480156200001157600080fd5b506040516200542738038062005427833981016040819052620000349162001ccb565b6001600090815560408051610140810190915290819081526020016040518060400160405280600981526020016854686520436861736d60b81b815250815260200160405180610100016040528060d381526020016200466e60d391398152602001604051806060016040528060268152602001620043ac602691398152602001600081526020016000815260200160008152602001600081526020016000815260200160405180606001604052806001600d811115620000f957620000f962001d03565b600d8111156200010d576200010d62001d03565b815260200160028152602001600390529052600b6000808152602081019190915260400160002081518154829060ff1916600183600d81111562000155576200015562001d03565b0217905550602082810151805162000174926001850192019062001aa9565b50604082015180516200019291600284019160209091019062001aa9565b5060608201518051620001b091600384019160209091019062001aa9565b506080820151600482015560a0820151600582015560c0820151600682015560e082015160078201556101008201516008820155610120820151620001fc906009830190600362001b38565b5050604080516101408101909152905080600181526020016040518060400160405280600c81526020016b46726167696c65206361766560a01b81525081526020016040518060c00160405280609f81526020016200524c609f913981526020016040518060e0016040528060b98152602001620050e060b99139815260200161019081526020016101f48152602001600f8152602001600a81526020016032815260200160405180606001604052806006600d811115620002c257620002c262001d03565b600d811115620002d657620002d662001d03565b815260200160038152602001600490529052600b600060018152602081019190915260400160002081518154829060ff1916600183600d8111156200031f576200031f62001d03565b021790555060208281015180516200033e926001850192019062001aa9565b50604082015180516200035c91600284019160209091019062001aa9565b50606082015180516200037a91600384019160209091019062001aa9565b506080820151600482015560a0820151600582015560c0820151600682015560e082015160078201556101008201516008820155610120820151620003c6906009830190600362001b38565b5050604080516101408101909152905080600281526020016040518060400160405280600c81526020016b42726f6b656e20747261636b60a01b815250815260200160405180610100016040528060d38152602001620044fe60d39139815260200160405180610100016040528060ce8152602001620041b860ce9139815260200160c88152602001610190815260200160058152602001600a81526020016019815260200160405180606001604052806009600d8111156200048d576200048d62001d03565b600d811115620004a157620004a162001d03565b815260200160018152602001600290529052600b600060028152602081019190915260400160002081518154829060ff1916600183600d811115620004ea57620004ea62001d03565b0217905550602082810151805162000509926001850192019062001aa9565b50604082015180516200052791600284019160209091019062001aa9565b50606082015180516200054591600384019160209091019062001aa9565b506080820151600482015560a0820151600582015560c0820151600682015560e08201516007820155610100820151600882015561012082015162000591906009830190600362001b38565b5050604080516101408101909152905080600381526020016040518060400160405280600b81526020016a135a5b99481d1d5b9b995b60aa1b815250815260200160405180610120016040528060fd815260200162004e0d60fd91398152602001604051806020016040528060008152508152602001603281526020016064815260200160198152602001600081526020016000815260200160405180606001604052806007600d8111156200064b576200064b62001d03565b600d8111156200065f576200065f62001d03565b8152602001600a8152602001600b90529052600b600060038152602081019190915260400160002081518154829060ff1916600183600d811115620006a857620006a862001d03565b02179055506020828101518051620006c7926001850192019062001aa9565b5060408201518051620006e591600284019160209091019062001aa9565b50606082015180516200070391600384019160209091019062001aa9565b506080820151600482015560a0820151600582015560c0820151600682015560e0820151600782015561010082015160088201556101208201516200074f906009830190600362001b38565b5050604080516101408101909152905080600481526020016040518060400160405280600b81526020016a4e6172726f77206361766560a81b81525081526020016040518061018001604052806101548152602001620047416101549139815260200160405180610160016040528061013c8152602001620052eb61013c913981526020016064815260200160c881526020016019815260200160058152602001600f815260200160405180606001604052806001600d81111562000818576200081862001d03565b600d8111156200082c576200082c62001d03565b815260200160098152602001600a90529052600b600060048152602081019190915260400160002081518154829060ff1916600183600d81111562000875576200087562001d03565b0217905550602082810151805162000894926001850192019062001aa9565b5060408201518051620008b291600284019160209091019062001aa9565b5060608201518051620008d091600384019160209091019062001aa9565b506080820151600482015560a0820151600582015560c0820151600682015560e0820151600782015561010082015160088201556101208201516200091c906009830190600362001b38565b5050604080516101408101909152905080600581526020016040518060400160405280600d81526020016c536d656c6c206f66206669726560981b81525081526020016040518061014001604052806101018152602001620040b76101019139815260200160405180610100016040528060d48152602001620048d660d49139815260200161032081526020016103e881526020016046815260200160008152602001601e815260200160405180606001604052806006600d811115620009e757620009e762001d03565b600d811115620009fb57620009fb62001d03565b815260200160018152602001600990529052600b600060058152602081019190915260400160002081518154829060ff1916600183600d81111562000a445762000a4462001d03565b0217905550602082810151805162000a63926001850192019062001aa9565b506040820151805162000a8191600284019160209091019062001aa9565b506060820151805162000a9f91600384019160209091019062001aa9565b506080820151600482015560a0820151600582015560c0820151600682015560e08201516007820155610100820151600882015561012082015162000aeb906009830190600362001b38565b5050604080516101408101909152905080600681526020016040518060400160405280600a81526020016927b632103630b23232b960b11b8152508152602001604051806080016040528060418152602001620048956041913981526020016040518060c00160405280609d8152602001620045d1609d9139815260200161019081526020016101f48152602001600f8152602001600a8152602001601e815260200160405180606001604052806007600d81111562000baf5762000baf62001d03565b600d81111562000bc35762000bc362001d03565b815260200160038152602001600590529052600b600060068152602081019190915260400160002081518154829060ff1916600183600d81111562000c0c5762000c0c62001d03565b0217905550602082810151805162000c2b926001850192019062001aa9565b506040820151805162000c4991600284019160209091019062001aa9565b506060820151805162000c6791600384019160209091019062001aa9565b506080820151600482015560a0820151600582015560c0820151600682015560e08201516007820155610100820151600882015561012082015162000cb3906009830190600362001b38565b5050604080516101408101909152905080600781526020016040518060400160405280600c81526020016b27b6321031b7b93934b237b960a11b81525081526020016040518060800160405280604b815260200162004fb0604b913981526020016040518060200160405280600081525081526020016064815260200160c88152602001600f8152602001600a81526020016000815260200160405180606001604052806005600d81111562000d6d5762000d6d62001d03565b600d81111562000d815762000d8162001d03565b815260200160068152602001600c90529052600b600060078152602081019190915260400160002081518154829060ff1916600183600d81111562000dca5762000dca62001d03565b0217905550602082810151805162000de9926001850192019062001aa9565b506040820151805162000e0791600284019160209091019062001aa9565b506060820151805162000e2591600384019160209091019062001aa9565b506080820151600482015560a0820151600582015560c0820151600682015560e08201516007820155610100820151600882015561012082015162000e71906009830190600362001b38565b5050604080516101408101909152905080600881526020016040518060400160405280600b81526020016a135d5cdade481cdb595b1b60aa1b815250815260200160405180610120016040528060ed815260200162004be960ed913981526020016040518060e0016040528060a6815260200162004f0a60a69139815260200160c8815260200161012c8152602001600f8152602001603281526020016032815260200160405180606001604052806005600d81111562000f365762000f3662001d03565b600d81111562000f4a5762000f4a62001d03565b8152602001600c8152602001600d90529052600b600060088152602081019190915260400160002081518154829060ff1916600183600d81111562000f935762000f9362001d03565b0217905550602082810151805162000fb2926001850192019062001aa9565b506040820151805162000fd091600284019160209091019062001aa9565b506060820151805162000fee91600384019160209091019062001aa9565b506080820151600482015560a0820151600582015560c0820151600682015560e0820151600782015561010082015160088201556101208201516200103a906009830190600362001b38565b5050604080516101408101909152905080600981526020016040518060400160405280600c81526020016b4c6f6f736520706c616e6b7360a01b81525081526020016040518060c00160405280609d815260200162004b4c609d913981526020016040518061016001604052806101268152602001620042866101269139815260200161019081526020016101f48152602001600f8152602001600a81526020016023815260200160405180606001604052806005600d81111562001103576200110362001d03565b600d81111562001117576200111762001d03565b8152602001600c8152602001600d90529052600b600060098152602081019190915260400160002081518154829060ff1916600183600d81111562001160576200116062001d03565b021790555060208281015180516200117f926001850192019062001aa9565b50604082015180516200119d91600284019160209091019062001aa9565b5060608201518051620011bb91600384019160209091019062001aa9565b506080820151600482015560a0820151600582015560c0820151600682015560e08201516007820155610100820151600882015561012082015162001207906009830190600362001b38565b5050604080516101408101909152905080600a81526020016040518060400160405280600c81526020016b119c9a595b991b1e481c985d60a21b815250815260200160405180610100016040528060c9815260200162004cd660c9913981526020016040518060e0016040528060c0815260200162004a8c60c0913981526020016064815260200160c88152602001600f8152602001603c81526020016005815260200160405180606001604052806005600d811115620012cc57620012cc62001d03565b600d811115620012e057620012e062001d03565b815260200160048152602001600c90529052600b6000600a8152602081019190915260400160002081518154829060ff1916600183600d81111562001329576200132962001d03565b0217905550602082810151805162001348926001850192019062001aa9565b50604082015180516200136691600284019160209091019062001aa9565b50606082015180516200138491600384019160209091019062001aa9565b506080820151600482015560a0820151600582015560c0820151600682015560e082015160078201556101008201516008820155610120820151620013d0906009830190600362001b38565b5050604080516101408101909152905080600b81526020016040518060400160405280601381526020017f536f756e6473206f66206d75726d7572696e670000000000000000000000000081525081526020016040518060e0016040528060b381526020016200519960b39139815260200160405180610120016040528060e5815260200162004ffb60e5913981526020016103e881526020016109c48152602001600f8152602001600a8152602001601e815260200160405180606001604052806004600d811115620014a857620014a862001d03565b600d811115620014bc57620014bc62001d03565b8152602001600c8152602001600790529052600b6000818152602081019190915260400160002081518154829060ff1916600183600d81111562001504576200150462001d03565b0217905550602082810151805162001523926001850192019062001aa9565b50604082015180516200154191600284019160209091019062001aa9565b50606082015180516200155f91600384019160209091019062001aa9565b506080820151600482015560a0820151600582015560c0820151600682015560e082015160078201556101008201516008820155610120820151620015ab906009830190600362001b38565b5050604080516101408101909152905080600c81526020016040518060400160405280600681526020016511195cd95c9d60d21b81525081526020016040518060a00160405280606e815260200162004d9f606e9139815260200160405180610120016040528060e28152602001620049aa60e2913981526020016103e881526020016109c48152602001600f8152602001600f8152602001601e815260200160405180606001604052806005600d8111156200166c576200166c62001d03565b600d81111562001680576200168062001d03565b8152602001600c8152602001600d90529052600b6000600c8152602081019190915260400160002081518154829060ff1916600183600d811115620016c957620016c962001d03565b02179055506020828101518051620016e8926001850192019062001aa9565b50604082015180516200170691600284019160209091019062001aa9565b50606082015180516200172491600384019160209091019062001aa9565b506080820151600482015560a0820151600582015560c0820151600682015560e08201516007820155610100820151600882015561012082015162001770906009830190600362001b38565b5050604080516101408101909152905080600d81526020016040518060400160405280600681526020016550616c61636560d01b81525081526020016040518060400160405280601481526020017f596f7520656e746572207468652070616c616365000000000000000000000000815250815260200160405180610160016040528061012c8152602001620043d261012c91398152602001611388815260200161c35081526020016000815260200160648152602001600081526020016040518060600160405280600d808111156200184e576200184e62001d03565b600d81111562001862576200186262001d03565b8152602001600d8152602001600d90529052600b6000600d8152602081019190915260400160002081518154829060ff1916600183600d811115620018ab57620018ab62001d03565b02179055506020828101518051620018ca926001850192019062001aa9565b5060408201518051620018e891600284019160209091019062001aa9565b50606082015180516200190691600384019160209091019062001aa9565b506080820151600482015560a0820151600582015560c0820151600682015560e08201516007820155610100820151600882015561012082015162001952906009830190600362001b38565b50506000805250600b6020527fdf7de25b7f1fd6d0b5205f0e18f1f35bd7b8d84cce336588d184533ce43a6f76805460018054909160ff1690829060ff19168183600d811115620019a757620019a762001d03565b02179055506001820181600101908054620019c29062001d19565b620019cf92919062001bde565b506002820181600201908054620019e69062001d19565b620019f392919062001bde565b50600382018160030190805462001a0a9062001d19565b62001a1792919062001bde565b506004820154816004015560058201548160050155600682015481600601556007820154816007015560088201548160080155600982018160090190600362001a6292919062001c62565b5050600d80546001600160a01b039485166001600160a01b03199182168117909255600e8054949095169381169390931790935550600f8054909116909117905562001d55565b82805462001ab79062001d19565b90600052602060002090601f01602090048101928262001adb576000855562001b26565b82601f1062001af657805160ff191683800117855562001b26565b8280016001018555821562001b26579182015b8281111562001b2657825182559160200191906001019062001b09565b5062001b3492915062001c97565b5090565b60018301918390821562001b265791602002820160005b8382111562001ba057835183826101000a81548160ff0219169083600d81111562001b7e5762001b7e62001d03565b0217905550926020019260010160208160000104928301926001030262001b4f565b801562001bcf5782816101000a81549060ff021916905560010160208160000104928301926001030262001ba0565b505062001b3492915062001c97565b82805462001bec9062001d19565b90600052602060002090601f01602090048101928262001c10576000855562001b26565b82601f1062001c23578054855562001b26565b8280016001018555821562001b2657600052602060002091601f016020900482015b8281111562001b2657825482559160010191906001019062001c45565b60018301918390821562001b265791601f016020900482018281111562001b2657825482559160010191906001019062001c45565b5b8082111562001b34576000815560010162001c98565b80516001600160a01b038116811462001cc657600080fd5b919050565b6000806040838503121562001cdf57600080fd5b62001cea8362001cae565b915062001cfa6020840162001cae565b90509250929050565b634e487b7160e01b600052602160045260246000fd5b600181811c9082168062001d2e57607f821691505b60208210810362001d4f57634e487b7160e01b600052602260045260246000fd5b50919050565b6123528062001d656000396000f3fe6080604052600436106101145760003560e01c8063a94320a7116100a0578063d65ab5f211610064578063d65ab5f21461034a578063ef55264314610352578063f23a6e6114610372578063f26be3fc1461039e578063fe693f1e146103c057600080fd5b8063a94320a714610283578063b0917b8714610298578063b75746ca146102b8578063bc197c81146102e5578063bcddf3891461032a57600080fd5b8063607d3c77116100e7578063607d3c77146101be57806365e20d14146101de57806376e033c71461020b578063835dcac41461022b5780638da5cb5b1461024b57600080fd5b806301ffc9a714610119578063106630ba1461014e57806328349c8f1461017c5780633928d57b1461019c575b600080fd5b34801561012557600080fd5b50610139610134366004611c80565b6103d5565b60405190151581526020015b60405180910390f35b34801561015a57600080fd5b5061016e610169366004611cc6565b61040c565b604051908152602001610145565b34801561018857600080fd5b50610139610197366004611cc6565b6104fb565b3480156101a857600080fd5b506101b1610534565b6040516101459190611d97565b3480156101ca57600080fd5b5061016e6101d9366004611cc6565b6107d9565b3480156101ea57600080fd5b506101fe6101f9366004611e5c565b610830565b6040516101459190611e7d565b34801561021757600080fd5b50610139610226366004611cc6565b6108fa565b34801561023757600080fd5b506101b1610246366004611e5c565b610903565b34801561025757600080fd5b50600e5461026b906001600160a01b031681565b6040516001600160a01b039091168152602001610145565b610296610291366004611e90565b610bdf565b005b3480156102a457600080fd5b5061016e6102b3366004611cc6565b6112fc565b3480156102c457600080fd5b506102d86102d3366004611cc6565b611353565b6040516101459190611ea9565b3480156102f157600080fd5b5061031161030036600461207a565b63bc197c8160e01b95945050505050565b6040516001600160e01b03199091168152602001610145565b34801561033657600080fd5b50600d5461026b906001600160a01b031681565b6102966115a8565b34801561035e57600080fd5b506101b161036d366004611cc6565b61175c565b34801561037e57600080fd5b5061031161038d366004612124565b63f23a6e6160e01b95945050505050565b3480156103aa57600080fd5b506103b3600081565b6040516101459190612189565b3480156103cc57600080fd5b5061016e600381565b60006001600160e01b03198216630271189760e51b148061040657506301ffc9a760e01b6001600160e01b03198316145b92915050565b600f546040805163df8b193760e01b8152905160009283926001600160a01b039091169162fdd58e918691849163df8b19379160048083019260209291908290030181865afa158015610463573d6000803e3d6000fd5b505050506040513d601f19601f820116820180604052508101906104879190612197565b6040516001600160e01b031960e085901b1681526001600160a01b0390921660048301526024820152604401602060405180830381865afa1580156104d0573d6000803e3d6000fd5b505050506040513d601f19601f820116820180604052508101906104f49190612197565b9392505050565b600060025b6001600160a01b03831660009081526012602052604090205460ff16600381111561052d5761052d611ce1565b1492915050565b61053c611ad4565b60408051610140810190915260018054829060ff16600d81111561056257610562611ce1565b600d81111561057357610573611ce1565b8152602001600182018054610587906121b0565b80601f01602080910402602001604051908101604052809291908181526020018280546105b3906121b0565b80156106005780601f106105d557610100808354040283529160200191610600565b820191906000526020600020905b8154815290600101906020018083116105e357829003601f168201915b50505050508152602001600282018054610619906121b0565b80601f0160208091040260200160405190810160405280929190818152602001828054610645906121b0565b80156106925780601f1061066757610100808354040283529160200191610692565b820191906000526020600020905b81548152906001019060200180831161067557829003601f168201915b505050505081526020016003820180546106ab906121b0565b80601f01602080910402602001604051908101604052809291908181526020018280546106d7906121b0565b80156107245780601f106106f957610100808354040283529160200191610724565b820191906000526020600020905b81548152906001019060200180831161070757829003601f168201915b505050505081526020016004820154815260200160058201548152602001600682015481526020016007820154815260200160088201548152602001600982016003806020026040519081016040528092919082600380156107cb576020028201916000905b82829054906101000a900460ff16600d8111156107a9576107a9611ce1565b81526020600192830181810494850194909303909202910180841161078a5790505b505050505081525050905090565b600f54604080516307c97dc760e31b8152905160009283926001600160a01b039091169162fdd58e9186918491633e4bee389160048083019260209291908290030181865afa158015610463573d6000803e3d6000fd5b6060600b600083600d81111561084857610848611ce1565b600d81111561085957610859611ce1565b81526020019081526020016000206001018054610875906121b0565b80601f01602080910402602001604051908101604052809291908181526020018280546108a1906121b0565b80156108ee5780601f106108c3576101008083540402835291602001916108ee565b820191906000526020600020905b8154815290600101906020018083116108d157829003601f168201915b50505050509050919050565b60006001610500565b61090b611ad4565b600b600083600d81111561092157610921611ce1565b600d81111561093257610932611ce1565b815260208101919091526040908101600020815161014081019092528054829060ff16600d81111561096657610966611ce1565b600d81111561097757610977611ce1565b815260200160018201805461098b906121b0565b80601f01602080910402602001604051908101604052809291908181526020018280546109b7906121b0565b8015610a045780601f106109d957610100808354040283529160200191610a04565b820191906000526020600020905b8154815290600101906020018083116109e757829003601f168201915b50505050508152602001600282018054610a1d906121b0565b80601f0160208091040260200160405190810160405280929190818152602001828054610a49906121b0565b8015610a965780601f10610a6b57610100808354040283529160200191610a96565b820191906000526020600020905b815481529060010190602001808311610a7957829003601f168201915b50505050508152602001600382018054610aaf906121b0565b80601f0160208091040260200160405190810160405280929190818152602001828054610adb906121b0565b8015610b285780601f10610afd57610100808354040283529160200191610b28565b820191906000526020600020905b815481529060010190602001808311610b0b57829003601f168201915b50505050508152602001600482015481526020016005820154815260200160068201548152602001600782015481526020016008820154815260200160098201600380602002604051908101604052809291908260038015610bcf576020028201916000905b82829054906101000a900460ff16600d811115610bad57610bad611ce1565b815260206001928301818104948501949093039092029101808411610b8e5790505b5050505050815250509050919050565b600260005403610c365760405162461bcd60e51b815260206004820152601f60248201527f5265656e7472616e637947756172643a207265656e7472616e742063616c6c0060448201526064015b60405180910390fd5b6002600055610c49600c80546001019055565b6000610c54600c5490565b3360009081526011602052604080822081516060810192839052939450919291600901906003908285855b82829054906101000a900460ff16600d811115610c9e57610c9e611ce1565b815260206001928301818104948501949093039092029101808411610c7f579050505050505090506000818460038110610cda57610cda6121e4565b602002015190506000610cec82610903565b90506000610cfa6004611a18565b9050600080600080856101000151606486600081518110610d1d57610d1d6121e4565b6020026020010151610d2f91906121fa565b1090508015610d5757336000908152601260205260409020805460ff1916600217905561110d565b608086015160a0870151610d6c908290612232565b86600181518110610d7f57610d7f6121e4565b6020026020010151610d9191906121fa565b610d9b9190612249565b93508560c00151606486600281518110610db757610db76121e4565b6020026020010151610dc991906121fa565b1092508560e00151606486600381518110610de657610de66121e4565b6020026020010151610df891906121fa565b6040805160038082526080820190925292909110935060009190602082016060803683375050600f54604080516307c97dc760e31b815290519394506001600160a01b0390911692633e4bee38925060048083019260209291908290030181865afa158015610e6b573d6000803e3d6000fd5b505050506040513d601f19601f82011682018060405250810190610e8f9190612197565b81600081518110610ea257610ea26121e4565b602090810291909101810191909152600f5460408051632dc387b360e01b815290516001600160a01b0390921692632dc387b3926004808401938290030181865afa158015610ef5573d6000803e3d6000fd5b505050506040513d601f19601f82011682018060405250810190610f199190612197565b81600181518110610f2c57610f2c6121e4565b602090810291909101810191909152600f546040805163df8b193760e01b815290516001600160a01b039092169263df8b1937926004808401938290030181865afa158015610f7f573d6000803e3d6000fd5b505050506040513d601f19601f82011682018060405250810190610fa39190612197565b81600281518110610fb657610fb66121e4565b6020908102919091010152604080516003808252608082019092526000918160200160208202803683370190505090508581600081518110610ffa57610ffa6121e4565b60200260200101818152505084611012576000611015565b60015b60ff168160018151811061102b5761102b6121e4565b60200260200101818152505083611043576000611046565b60015b60ff168160028151811061105c5761105c6121e4565b6020908102919091010152600f54604051631759616b60e11b81526001600160a01b0390911690632eb2c2d69061109d90309033908790879060040161229c565b600060405180830381600087803b1580156110b757600080fd5b505af11580156110cb573d6000803e3d6000fd5b50600d92506110d8915050565b89600d8111156110ea576110ea611ce1565b0361110a57336000908152601260205260409020805460ff191660031790555b50505b3360009081526011602052604090208651815488929190829060ff1916600183600d81111561113e5761113e611ce1565b0217905550602082810151805161115b9260018501920190611b2d565b5060408201518051611177916002840191602090910190611b2d565b5060608201518051611193916003840191602090910190611b2d565b506080820151600482015560a0820151600582015560c0820151600682015560e0820151600782015561010082015160088201556101208201516111dd9060098301906003611bb1565b509050506040518060e001604052808a815260200188600d81111561120457611204611ce1565b81526020808201879052336040808401919091528615156060840152851515608084015284151560a09093019290925260008c81526010825291909120825181559082015160018083018054909160ff199091169083600d81111561126b5761126b611ce1565b021790555060408201516002820155606082015160039091018054608084015160a085015160c0909501511515600160b01b0260ff60b01b19951515600160a81b029590951661ffff60a81b19911515600160a01b026001600160a81b03199093166001600160a01b0390951694909417919091171691909117919091179055505060016000555050505050505050565b600f5460408051632dc387b360e01b8152905160009283926001600160a01b039091169162fdd58e9186918491632dc387b39160048083019260209291908290030181865afa158015610463573d6000803e3d6000fd5b60606000611360600c5490565b905060008060005b838110156113cb576001600160a01b03861660106000611389846001612249565b81526020810191909152604001600020600301546001600160a01b0316036113b9576113b6600184612249565b92505b806113c381612303565b915050611368565b5060008267ffffffffffffffff8111156113e7576113e7611f43565b60405190808252806020026020018201604052801561144e57816020015b6040805160e08101825260008082526020808301829052928201819052606082018190526080820181905260a0820181905260c082015282526000199092019101816114055790505b50905060005b8481101561159e576001600160a01b03871660106000611475846001612249565b81526020810191909152604001600020600301546001600160a01b03160361158c5760006010816114a7846001612249565b815260208082019290925260409081016000908120548082526010845290829020825160e081019093528054835260018101549194509283919083019060ff16600d8111156114f8576114f8611ce1565b600d81111561150957611509611ce1565b8152600282015460208201526003909101546001600160a01b038116604083015260ff600160a01b8204811615156060840152600160a81b8204811615156080840152600160b01b90910416151560a0909101528451859087908110611571576115716121e4565b6020908102919091010152611587600186612249565b945050505b8061159681612303565b915050611454565b5095945050505050565b6002600054036115fa5760405162461bcd60e51b815260206004820152601f60248201527f5265656e7472616e637947756172643a207265656e7472616e742063616c6c006044820152606401610c2d565b600260005560013360009081526012602052604090205460ff16600381111561162557611625611ce1565b036116645760405162461bcd60e51b815260206004820152600f60248201526e616c726561647920696e2067616d6560881b6044820152606401610c2d565b61166c610534565b33600090815260116020526040902081518154829060ff1916600183600d81111561169957611699611ce1565b021790555060208281015180516116b69260018501920190611b2d565b50604082015180516116d2916002840191602090910190611b2d565b50606082015180516116ee916003840191602090910190611b2d565b506080820151600482015560a0820151600582015560c0820151600682015560e0820151600782015561010082015160088201556101208201516117389060098301906003611bb1565b5050336000908152601260205260408120805460ff19166001908117909155905550565b611764611ad4565b6001600160a01b03821660009081526011602052604090819020815161014081019092528054829060ff16600d8111156117a0576117a0611ce1565b600d8111156117b1576117b1611ce1565b81526020016001820180546117c5906121b0565b80601f01602080910402602001604051908101604052809291908181526020018280546117f1906121b0565b801561183e5780601f106118135761010080835404028352916020019161183e565b820191906000526020600020905b81548152906001019060200180831161182157829003601f168201915b50505050508152602001600282018054611857906121b0565b80601f0160208091040260200160405190810160405280929190818152602001828054611883906121b0565b80156118d05780601f106118a5576101008083540402835291602001916118d0565b820191906000526020600020905b8154815290600101906020018083116118b357829003601f168201915b505050505081526020016003820180546118e9906121b0565b80601f0160208091040260200160405190810160405280929190818152602001828054611915906121b0565b80156119625780601f1061193757610100808354040283529160200191611962565b820191906000526020600020905b81548152906001019060200180831161194557829003601f168201915b50505050508152602001600482015481526020016005820154815260200160068201548152602001600782015481526020016008820154815260200160098201600380602002604051908101604052809291908260038015610bcf576020028201916000905b82829054906101000a900460ff16600d8111156119e7576119e7611ce1565b8152602060019283018181049485019490930390920291018084116119c85790505050505050815250509050919050565b60608167ffffffffffffffff811115611a3357611a33611f43565b604051908082528060200260200182016040528015611a5c578160200160208202803683370190505b50905060005b82811015611ace57604080514460208201524291810191909152606081018290526080016040516020818303038152906040528051906020012060001c828281518110611ab157611ab16121e4565b602090810291909101015280611ac681612303565b915050611a62565b50919050565b60408051610140810190915280600081526020016060815260200160608152602001606081526020016000815260200160008152602001600081526020016000815260200160008152602001611b28611c4d565b905290565b828054611b39906121b0565b90600052602060002090601f016020900481019282611b5b5760008555611ba1565b82601f10611b7457805160ff1916838001178555611ba1565b82800160010185558215611ba1579182015b82811115611ba1578251825591602001919060010190611b86565b50611bad929150611c6b565b5090565b600183019183908215611ba15791602002820160005b83821115611c1357835183826101000a81548160ff0219169083600d811115611bf257611bf2611ce1565b02179055509260200192600101602081600001049283019260010302611bc7565b8015611c405782816101000a81549060ff0219169055600101602081600001049283019260010302611c13565b5050611bad929150611c6b565b60405180606001604052806003906020820280368337509192915050565b5b80821115611bad5760008155600101611c6c565b600060208284031215611c9257600080fd5b81356001600160e01b0319811681146104f457600080fd5b80356001600160a01b0381168114611cc157600080fd5b919050565b600060208284031215611cd857600080fd5b6104f482611caa565b634e487b7160e01b600052602160045260246000fd5b600e8110611d1557634e487b7160e01b600052602160045260246000fd5b9052565b6000815180845260005b81811015611d3f57602081850181015186830182015201611d23565b81811115611d51576000602083870101525b50601f01601f19169290920160200192915050565b8060005b6003811015611d9157611d7e848351611cf7565b6020938401939190910190600101611d6a565b50505050565b60208152611da9602082018351611cf7565b600060208301516101806040840152611dc66101a0840182611d19565b90506040840151601f1980858403016060860152611de48383611d19565b9250606086015191508085840301608086015250611e028282611d19565b915050608084015160a084015260a084015160c084015260c084015160e084015260e0840151610100818186015280860151915050610120818186015280860151915050611e54610140850182611d66565b509392505050565b600060208284031215611e6e57600080fd5b8135600e81106104f457600080fd5b6020815260006104f46020830184611d19565b600060208284031215611ea257600080fd5b5035919050565b602080825282518282018190526000919060409081850190868401855b82811015611f365781518051855286810151611ee488870182611cf7565b5080860151858701526060808201516001600160a01b03169086015260808082015115159086015260a08082015115159086015260c09081015115159085015260e09093019290850190600101611ec6565b5091979650505050505050565b634e487b7160e01b600052604160045260246000fd5b604051601f8201601f1916810167ffffffffffffffff81118282101715611f8257611f82611f43565b604052919050565b600082601f830112611f9b57600080fd5b8135602067ffffffffffffffff821115611fb757611fb7611f43565b8160051b611fc6828201611f59565b9283528481018201928281019087851115611fe057600080fd5b83870192505b84831015611fff57823582529183019190830190611fe6565b979650505050505050565b600082601f83011261201b57600080fd5b813567ffffffffffffffff81111561203557612035611f43565b612048601f8201601f1916602001611f59565b81815284602083860101111561205d57600080fd5b816020850160208301376000918101602001919091529392505050565b600080600080600060a0868803121561209257600080fd5b61209b86611caa565b94506120a960208701611caa565b9350604086013567ffffffffffffffff808211156120c657600080fd5b6120d289838a01611f8a565b945060608801359150808211156120e857600080fd5b6120f489838a01611f8a565b9350608088013591508082111561210a57600080fd5b506121178882890161200a565b9150509295509295909350565b600080600080600060a0868803121561213c57600080fd5b61214586611caa565b945061215360208701611caa565b93506040860135925060608601359150608086013567ffffffffffffffff81111561217d57600080fd5b6121178882890161200a565b602081016104068284611cf7565b6000602082840312156121a957600080fd5b5051919050565b600181811c908216806121c457607f821691505b602082108103611ace57634e487b7160e01b600052602260045260246000fd5b634e487b7160e01b600052603260045260246000fd5b60008261221757634e487b7160e01b600052601260045260246000fd5b500690565b634e487b7160e01b600052601160045260246000fd5b6000828210156122445761224461221c565b500390565b6000821982111561225c5761225c61221c565b500190565b600081518084526020808501945080840160005b8381101561229157815187529582019590820190600101612275565b509495945050505050565b6001600160a01b0385811682528416602082015260a0604082018190526000906122c890830185612261565b82810360608401526122da8185612261565b8381036080909401939093525050600381526203078360ec1b6020820152604001949350505050565b6000600182016123155761231561221c565b506001019056fea2646970667358221220b96538137e18c70e2d58b3153c794fb2b25390b1e601dd3de1417417a7f6ea0164736f6c634300080d003354686520636f6d666f7274696e6720736d656c6c206f66206120636f6f6b2773206669726520656e746963657320796f752e20596f752066696e6420796f75722077617920746f206120636176652077697468206120736f667420676c6f772c20616e6420736565206120667269656e646c7920776f6d616e20636f6f6b696e672072617420616e6420726f6f7420766567657461626c6573206f7665722074686520666972652e205368652073686172657320736f6d6520666f6f64207769746820796f7520616e642074616c6b732c206576656e7475616c6c7920706f696e74696e6720796f7520696e2074686520726967687420646972656374696f6e2e596f752073706f7420736f6d652062726f6b656e206d696e65206361727420747261636b7320616e64207468696e6b206d617962652074686579206f6e6365206c6564206261636b20746f2074686520737572666163652e2054686520747261636b73206765742068656176696c792065726f64656420617320796f7520636c696d62206869676865722e2e2e206576656e7475616c6c7920636f6c6c617073696e672e20596f752066616c6c206f666620746865207369646520746f2074686520726f636b732062656c6f772e5768696c65206578706c6f72696e67207468657365206c617267652c206d6f73746c7920656d7074792063617665732c20796f75207374756d626c652075706f6e20736f6d6520776f6f64656e20706c616e6b732e204f6e652069732077617270656420617420616e20616e676c6520736f20617320746f20637265617465206120737072696e672e20596f7520676967676c6520617320796f75206a756d7020757020616e6420646f776e2e2054616b696e6720796f7572206c617267657374206a756d70207965742c2074686520776f6f642067697665732077617920617320796f75206a756d7020696e20746865206169722077697468206e6f7468696e672062757420736861727020726f636b7320746f20627265616b20796f75722066616c6c2e4572726f723a2063616e6e6f742064696520617420746865207374617274696e672061726561596f7520656e746572207468652070616c6163652c206f6e6c7920746f2066696e64206974206973206f76657272756e207769746820636c6f616b65642066696775726573206368616e74696e6720696e206120636972636c652e20416c6c2065796573207475726e20746f776172647320796f7520616e6420746865206368616e74696e672067657473206c6f756465722e2041206e756d626572206f66206c617267652063726561747572657320666f726d2066726f6d207468652073616e642061726f756e6420796f752c20616e64207374617274206368617267696e672c206772616262696e6720616e6420736d6f74686572696e6720796f752e20596f752074727920746f206272656174682c206275742063616e206f6e6c7920696e68616c652073616e642e596f752073706f7420736f6d652062726f6b656e206d696e65206361727420747261636b7320616e64207468696e6b206d617962652074686579206f6e6365206c6564206261636b20746f2074686520737572666163652e20556e666f7274756e6174656c792c20746865207061746820686173206265656e207765616b656e65642066726f6d2065726f73696f6e20616e64206173207468652067726f756e64206769766573207761792c20796f7520736c696465206261636b20746f20776865726520796f752063616d652066726f6d2e54696d65206861732064656772616465642074686973206f6c64206c6164646572206d6f7265207468616e206669727374207065726365697665642e20274d61796265206974276c6c206c61737420756e74696c20492072656163682074686520746f703f2720796f7520686f70652c20627574207468656e2073637265616d20617320697420636f6c6c61707365732062656e6561746820796f752e596f75206177616b656e2061742074686520626f74746f6d206f662061206465657020756e7363616c61626c6520636861736d207769746820636176657320696e20616c6c20646972656374696f6e732e2053696c656e63652066696c6c73207468652073706163652061726f756e6420796f752e20596f752063616e207365652063697479206c69676874732061746f702074686520737572666163652e2049742077696c6c2062652061206c6f6e67206a6f75726e657920746f2066696e6420796f757220776179206261636b2075702e546869732063617665206973207061727469616c6c7920626f617264656420757020616e64206c6f6f6b73206c696b6520697420636f756c6420636f6c6c617073652c2062757420796f75206d616e61676520746f2073717565657a65207468726f7567682e20596f7520726f756e642074686520636f726e657220616e64206c6574206f75742061207465727269666965642073717565616c20617320796f7520636f6d65206661636520746f206661636520776974682061206769616e74207370696465722e204c75636b696c7920666f7220796f752c20697427732061736c65657020666f72206e6f772061667465722061206c61726765206d65616c2e202a67756c702a20596f75206361726566756c6c7920736964657374657020746865206769616e74207765627320616e64206d616b6520796f757220776179206f757420746865206f7468657220736964652e546865206f6c64206c61646465722067726f616e7320616e642073717565616b7320617320796f7520636c696d6220757020746f20636f6e74696e7565206f6e2e54686520736d656c6c206f6620736d6f6b6520616e6420736f756e64206f66206c6175676874657220676976657320796f7520686f70652074686174207468657265206d61792062652070656f706c65206e65617262792077696c6c696e6720746f2068656c702e20556e666f7274756e6174656c792c207468656972206c61756768746572207475726e7320746f206361636b6c696e6720617320796f752067657420636c6f73657220616e6420746865792064656369646520796f75277265207468656972206e657874207461726765742e596f752077616c6b206163726f7373207468652064657365727420666f7220686f75727320616e642066696e616c6c79207365652061206c616b6520616e642070616c61636520696e207468652064697374616e63652e20417320796f752067657420636c6f7365722c20796f75207265616c697a652074686520686561742064616e63696e67206f6666207468652073616e6420686173206265656e20706c6179696e6720747269636b73206f6e20796f752c2062757420697420697320746f6f206c6174652e20596f7520636f6c6c617073652066726f6d207468697273742e596f75206865617220612073717565616b20616e64206c6f6f6b20646f776e2e2041206c617267652c2061646f7261626c6520726174207365656d7320746f20626520747279696e6720746f20636f6d6d756e6963617465207769746820796f752e20596f7520666f6c6c6f7720697420646f776e206120706174687761792c2062757420656e642075702067657474696e67206c656420696e746f20612070697420747261702e2057686f20776f756c6420686176652074686f756768743f5768696c65206578706c6f72696e67207468657365206c617267652c206d6f73746c7920656d7074792063617665732c20796f75207374756d626c652075706f6e20736f6d6520776f6f64656e20706c616e6b732e20536f6d65207365656d206c6f6f73652c20616e6420796f752070756c6c206f6e6520757020746f2072657665616c20612074756e6e656c2074686174206c65616473206f75742e596f7520666f6c6c6f772061206d75736b7920736d656c6c20616e642061727269766520617420736f6d65206d757368726f6f6d732067726f77696e6720696e206d616e2d6d61646520626f78657320696e20612063616e646c652d6c69742073656374696f6e206f66206120636176652e20416e206f6c6420707269736f6e657220706f6c6974656c79206f666665727320796f75206f6e652e20596f752074616b65207468652073757374656e616e636520616e64207468616e6b2068696d2c20617320686520706f696e747320796f7520746f776172647320612068696464656e20706174687761792e596f75206865617220612073717565616b20616e64206c6f6f6b20646f776e2e2041206c617267652c2061646f7261626c6520726174207365656d7320746f20626520747279696e6720746f20636f6d6d756e6963617465207769746820796f752e204974207475726e7320616e642073637574746c65732061686561642c207468656e2073746f707320746f206c6f6f6b20617420796f7520616e64207370696e7320696e206120636972636c652e20596f752064656369646520746f20666f6c6c6f772069742e596f752077616c6b20616c6f6e67207468652064657365727420666f7220736f6d652074696d6520616e64206576656e7475616c6c792073656520612070616c61636520696e207468652064697374616e63652c20616e642061206369747920667572746865722061686561642e546865206d696e6573206865726520617265206f6c6420616e64206162616e646f6e6564206e6f772074686174207468656972207265736f75726365732068617665206265656e206861727665737465642e205468652074756e6e656c732073747265746368206f6e20666f722077686174207365656d73206c696b6520686f7572732c2062757420796f75206d616b6520796f757220776179207468726f75676820746865206461726b6e6573732e20546865206d696e65206f70656e7320757020746f2077686174207365656d7320746f20626520616e206f70656e2061726561206f6620616e20756e64657267726f756e6420707269736f6e2e596f7520666f6c6c6f772061206d75736b7920736d656c6c20746f20736f6d652063617665206d757368726f6f6d732c20616e6420796f75722068756e67657220676574732074686520626574746572206f6620796f752e20596f7520726567726574206974206d6f6d656e7473206c61746572206173207061696e2073746172747320746f2073686f6f74207468726f75676820796f7572206775742e20506f69736f6e21596f752077616c6b207468726f7567682061206c6f6e672c206475737479206f6c6420636f727269646f7220616e642070617373207468726f75676820612073747572647920646f6f722e596f7520736e65616b2061726f756e64206c6f6f6b696e6720666f722074686520736f75726365206f6620746865206d75726d7572696e672c20616e642066696e6420612067726f7570206f662067756172647320706c6179696e6720646963652e204e6f7420736e65616b696c7920656e6f7567682c206173206120677561726420696e20746865206c6f6f6b6f757420746f77657220626c6f7773206120686f726e20616e6420616c6c20746865206f7468657220677561726473207475726e20746f776172647320796f7520616e6420647261772074686569722073776f7264732e54686520726f636b732061626f7665206c6f6f6b20736861727020616e642066726167696c652e204f6e652066616c6c7320746f207468652067726f756e64206168656164206f6620796f752c2073686174746572696e672061732069742068697473207468652067726f756e642e20596f75206c6f6f6b207570206173206f6e6520636f6d657320637261636b6c696e6720646f776e2c20616e64206974277320746865206c617374207468696e6720796f75207365652e596f7520736e65616b2061726f756e64206c6f6f6b696e6720666f722074686520736f75726365206f6620746865206d75726d7572696e672c20616e642073656520612067726f7570206f662072616767656420707269736f6e65727320656e7465727461696e696e67207468656d73656c766573207769746820736f6d65206b696e64206f6620626f6e652d746f7373696e672067616d652e20596f7520736e65616b20627920756e64657465637465642e27537572652c2049276c6c20636865636b206f757420746869732066726167696c65206c6f6f6b696e6720636176652e2720796f75207361792c20617320736861727020726f636b732066616c6c2061726f756e6420796f75206c696b65207370696b79206465617468207261696e2e20536f6d65686f7720796f75206d616e61676520796f757220776179207468726f75676820756e736361746865642e546865206e6172726f7720636176652067657473207468696e6e657220616e64207468696e6e657220617320796f752076656e74757265207468726f7567682e20596f752073717565657a6520796f757220776179207468726f7567682061207475726e20616e642073637261706520796f7572206b6e65652e204974206765747320736f206e6172726f77207468617420796f752063616e207475726e20796f757220686561642e20596f752074727920746f20726576657273652c2062757420796f757220666f6f742069732063617567687420616e642074686520636176652073746172747320746f2066696c6c20776974682077617465722e204166746572206661696c656420617474656d70747320746f207374727567676c6520667265652c20796f752064726f776e20696e2074686520636176652e",
  "linkReferences": {},
  "deployedLinkReferences": {}
}