{
  "_format": "hh-sol-artifact-1",
  "contractName": "GameItems",
  "sourceName": "contracts/GameItems.sol",
  "abi": [
    {
      "inputs": [
        {
          "internalType": "address",
          "name": "_gameAddress",
          "type": "address"
        }
      ],
      "stateMutability": "nonpayable",
      "type": "constructor"
    },
    {
      "anonymous": false,
      "inputs": [
        {
          "indexed": true,
          "internalType": "address",
          "name": "account",
          "type": "address"
        },
        {
          "indexed": true,
          "internalType": "address",
          "name": "operator",
          "type": "address"
        },
        {
          "indexed": false,
          "internalType": "bool",
          "name": "approved",
          "type": "bool"
        }
      ],
      "name": "ApprovalForAll",
      "type": "event"
    },
    {
      "anonymous": false,
      "inputs": [
        {
          "indexed": true,
          "internalType": "address",
          "name": "operator",
          "type": "address"
        },
        {
          "indexed": true,
          "internalType": "address",
          "name": "from",
          "type": "address"
        },
        {
          "indexed": true,
          "internalType": "address",
          "name": "to",
          "type": "address"
        },
        {
          "indexed": false,
          "internalType": "uint256[]",
          "name": "ids",
          "type": "uint256[]"
        },
        {
          "indexed": false,
          "internalType": "uint256[]",
          "name": "values",
          "type": "uint256[]"
        }
      ],
      "name": "TransferBatch",
      "type": "event"
    },
    {
      "anonymous": false,
      "inputs": [
        {
          "indexed": true,
          "internalType": "address",
          "name": "operator",
          "type": "address"
        },
        {
          "indexed": true,
          "internalType": "address",
          "name": "from",
          "type": "address"
        },
        {
          "indexed": true,
          "internalType": "address",
          "name": "to",
          "type": "address"
        },
        {
          "indexed": false,
          "internalType": "uint256",
          "name": "id",
          "type": "uint256"
        },
        {
          "indexed": false,
          "internalType": "uint256",
          "name": "value",
          "type": "uint256"
        }
      ],
      "name": "TransferSingle",
      "type": "event"
    },
    {
      "anonymous": false,
      "inputs": [
        {
          "indexed": false,
          "internalType": "string",
          "name": "value",
          "type": "string"
        },
        {
          "indexed": true,
          "internalType": "uint256",
          "name": "id",
          "type": "uint256"
        }
      ],
      "name": "URI",
      "type": "event"
    },
    {
      "inputs": [],
      "name": "GOLD",
      "outputs": [
        {
          "internalType": "uint256",
          "name": "",
          "type": "uint256"
        }
      ],
      "stateMutability": "view",
      "type": "function"
    },
    {
      "inputs": [],
      "name": "KEY",
      "outputs": [
        {
          "internalType": "uint256",
          "name": "",
          "type": "uint256"
        }
      ],
      "stateMutability": "view",
      "type": "function"
    },
    {
      "inputs": [],
      "name": "TREASURE",
      "outputs": [
        {
          "internalType": "uint256",
          "name": "",
          "type": "uint256"
        }
      ],
      "stateMutability": "view",
      "type": "function"
    },
    {
      "inputs": [
        {
          "internalType": "address",
          "name": "account",
          "type": "address"
        },
        {
          "internalType": "uint256",
          "name": "id",
          "type": "uint256"
        }
      ],
      "name": "balanceOf",
      "outputs": [
        {
          "internalType": "uint256",
          "name": "",
          "type": "uint256"
        }
      ],
      "stateMutability": "view",
      "type": "function"
    },
    {
      "inputs": [
        {
          "internalType": "address[]",
          "name": "accounts",
          "type": "address[]"
        },
        {
          "internalType": "uint256[]",
          "name": "ids",
          "type": "uint256[]"
        }
      ],
      "name": "balanceOfBatch",
      "outputs": [
        {
          "internalType": "uint256[]",
          "name": "",
          "type": "uint256[]"
        }
      ],
      "stateMutability": "view",
      "type": "function"
    },
    {
      "inputs": [
        {
          "internalType": "address",
          "name": "to",
          "type": "address"
        },
        {
          "internalType": "uint256",
          "name": "id",
          "type": "uint256"
        },
        {
          "internalType": "uint256",
          "name": "amount",
          "type": "uint256"
        }
      ],
      "name": "burnToken",
      "outputs": [],
      "stateMutability": "nonpayable",
      "type": "function"
    },
    {
      "inputs": [
        {
          "internalType": "address",
          "name": "to",
          "type": "address"
        },
        {
          "internalType": "uint256[]",
          "name": "ids",
          "type": "uint256[]"
        },
        {
          "internalType": "uint256[]",
          "name": "amounts",
          "type": "uint256[]"
        }
      ],
      "name": "burnTokens",
      "outputs": [],
      "stateMutability": "nonpayable",
      "type": "function"
    },
    {
      "inputs": [
        {
          "internalType": "uint256",
          "name": "id",
          "type": "uint256"
        }
      ],
      "name": "exists",
      "outputs": [
        {
          "internalType": "bool",
          "name": "",
          "type": "bool"
        }
      ],
      "stateMutability": "view",
      "type": "function"
    },
    {
      "inputs": [],
      "name": "gameAddress",
      "outputs": [
        {
          "internalType": "address",
          "name": "",
          "type": "address"
        }
      ],
      "stateMutability": "view",
      "type": "function"
    },
    {
      "inputs": [
        {
          "internalType": "address",
          "name": "account",
          "type": "address"
        },
        {
          "internalType": "address",
          "name": "operator",
          "type": "address"
        }
      ],
      "name": "isApprovedForAll",
      "outputs": [
        {
          "internalType": "bool",
          "name": "",
          "type": "bool"
        }
      ],
      "stateMutability": "view",
      "type": "function"
    },
    {
      "inputs": [
        {
          "internalType": "address",
          "name": "to",
          "type": "address"
        },
        {
          "internalType": "uint256",
          "name": "id",
          "type": "uint256"
        },
        {
          "internalType": "uint256",
          "name": "amount",
          "type": "uint256"
        }
      ],
      "name": "mintToken",
      "outputs": [],
      "stateMutability": "nonpayable",
      "type": "function"
    },
    {
      "inputs": [
        {
          "internalType": "address",
          "name": "to",
          "type": "address"
        },
        {
          "internalType": "uint256[]",
          "name": "ids",
          "type": "uint256[]"
        },
        {
          "internalType": "uint256[]",
          "name": "amounts",
          "type": "uint256[]"
        }
      ],
      "name": "mintTokens",
      "outputs": [],
      "stateMutability": "nonpayable",
      "type": "function"
    },
    {
      "inputs": [
        {
          "internalType": "address",
          "name": "from",
          "type": "address"
        },
        {
          "internalType": "address",
          "name": "to",
          "type": "address"
        },
        {
          "internalType": "uint256[]",
          "name": "ids",
          "type": "uint256[]"
        },
        {
          "internalType": "uint256[]",
          "name": "amounts",
          "type": "uint256[]"
        },
        {
          "internalType": "bytes",
          "name": "data",
          "type": "bytes"
        }
      ],
      "name": "safeBatchTransferFrom",
      "outputs": [],
      "stateMutability": "nonpayable",
      "type": "function"
    },
    {
      "inputs": [
        {
          "internalType": "address",
          "name": "from",
          "type": "address"
        },
        {
          "internalType": "address",
          "name": "to",
          "type": "address"
        },
        {
          "internalType": "uint256",
          "name": "id",
          "type": "uint256"
        },
        {
          "internalType": "uint256",
          "name": "amount",
          "type": "uint256"
        },
        {
          "internalType": "bytes",
          "name": "data",
          "type": "bytes"
        }
      ],
      "name": "safeTransferFrom",
      "outputs": [],
      "stateMutability": "nonpayable",
      "type": "function"
    },
    {
      "inputs": [
        {
          "internalType": "address",
          "name": "operator",
          "type": "address"
        },
        {
          "internalType": "bool",
          "name": "approved",
          "type": "bool"
        }
      ],
      "name": "setApprovalForAll",
      "outputs": [],
      "stateMutability": "nonpayable",
      "type": "function"
    },
    {
      "inputs": [
        {
          "internalType": "bytes4",
          "name": "interfaceId",
          "type": "bytes4"
        }
      ],
      "name": "supportsInterface",
      "outputs": [
        {
          "internalType": "bool",
          "name": "",
          "type": "bool"
        }
      ],
      "stateMutability": "view",
      "type": "function"
    },
    {
      "inputs": [
        {
          "internalType": "uint256",
          "name": "id",
          "type": "uint256"
        }
      ],
      "name": "totalSupply",
      "outputs": [
        {
          "internalType": "uint256",
          "name": "",
          "type": "uint256"
        }
      ],
      "stateMutability": "view",
      "type": "function"
    },
    {
      "inputs": [
        {
          "internalType": "uint256",
          "name": "",
          "type": "uint256"
        }
      ],
      "name": "uri",
      "outputs": [
        {
          "internalType": "string",
          "name": "",
          "type": "string"
        }
      ],
      "stateMutability": "view",
      "type": "function"
    }
  ],
  "bytecode": "0x60806040523480156200001157600080fd5b50604051620020783803806200207883398101604081905262000034916200022e565b6040518060800160405280604c81526020016200202c604c913962000059816200008c565b50600480546001600160a01b0319166001600160a01b03831690811790915562000085906001620000a5565b506200029c565b8051620000a190600290602084019062000188565b5050565b620000a13383836001600160a01b03821683036200011b5760405162461bcd60e51b815260206004820152602960248201527f455243313135353a2073657474696e6720617070726f76616c20737461747573604482015268103337b91039b2b63360b91b606482015260840160405180910390fd5b6001600160a01b03838116600081815260016020908152604080832094871680845294825291829020805460ff191686151590811790915591519182527f17307eab39ab6107e8899845ad3d59bd9653f200f220920489ca2b5937696c31910160405180910390a3505050565b828054620001969062000260565b90600052602060002090601f016020900481019282620001ba576000855562000205565b82601f10620001d557805160ff191683800117855562000205565b8280016001018555821562000205579182015b8281111562000205578251825591602001919060010190620001e8565b506200021392915062000217565b5090565b5b8082111562000213576000815560010162000218565b6000602082840312156200024157600080fd5b81516001600160a01b03811681146200025957600080fd5b9392505050565b600181811c908216806200027557607f821691505b6020821081036200029657634e487b7160e01b600052602260045260246000fd5b50919050565b611d8080620002ac6000396000f3fe608060405234801561001057600080fd5b50600436106101155760003560e01c8063a168d873116100a2578063e26c3c8d11610071578063e26c3c8d14610263578063e985e9c514610276578063ed8c5938146102b2578063f0f31b1d146102c5578063f242432a146102d857600080fd5b8063a168d873146101fd578063a22cb46514610228578063bd85b0391461023b578063df8b19371461025b57600080fd5b80632dc387b3116100e95780632dc387b3146101985780632eb2c2d6146101a05780633e4bee38146101b35780634e1273f4146101bb5780634f558e79146101db57600080fd5b8062fdd58e1461011a57806301ffc9a7146101405780630e89341c1461016357806323a36d2b14610183575b600080fd5b61012d6101283660046113ce565b6102eb565b6040519081526020015b60405180910390f35b61015361014e366004611411565b610382565b6040519015158152602001610137565b610176610171366004611435565b6103d4565b604051610137919061149b565b6101966101913660046114ae565b610468565b005b61012d600181565b6101966101ae36600461162d565b610488565b61012d600081565b6101ce6101c93660046116d7565b61051f565b60405161013791906117dd565b6101536101e9366004611435565b600090815260036020526040902054151590565b600454610210906001600160a01b031681565b6040516001600160a01b039091168152602001610137565b6101966102363660046117f0565b610649565b61012d610249366004611435565b60009081526003602052604090205490565b61012d600281565b61019661027136600461182c565b610658565b6101536102843660046118a0565b6001600160a01b03918216600090815260016020908152604080832093909416825291909152205460ff1690565b6101966102c03660046114ae565b610663565b6101966102d336600461182c565b61066e565b6101966102e63660046118d3565b610689565b60006001600160a01b03831661035c5760405162461bcd60e51b815260206004820152602b60248201527f455243313135353a2062616c616e636520717565727920666f7220746865207a60448201526a65726f206164647265737360a81b60648201526084015b60405180910390fd5b506000908152602081815260408083206001600160a01b03949094168352929052205490565b60006001600160e01b03198216636cdb3d1360e11b14806103b357506001600160e01b031982166303a24d0760e21b145b806103ce57506301ffc9a760e01b6001600160e01b03198316145b92915050565b6060600280546103e390611938565b80601f016020809104026020016040519081016040528092919081815260200182805461040f90611938565b801561045c5780601f106104315761010080835404028352916020019161045c565b820191906000526020600020905b81548152906001019060200180831161043f57829003601f168201915b50505050509050919050565b61048383838360405180602001604052806000815250610710565b505050565b6001600160a01b0385163314806104a457506104a48533610284565b61050b5760405162461bcd60e51b815260206004820152603260248201527f455243313135353a207472616e736665722063616c6c6572206973206e6f74206044820152711bdddb995c881b9bdc88185c1c1c9bdd995960721b6064820152608401610353565b61051885858585856107f9565b5050505050565b606081518351146105845760405162461bcd60e51b815260206004820152602960248201527f455243313135353a206163636f756e747320616e6420696473206c656e677468604482015268040dad2e6dac2e8c6d60bb1b6064820152608401610353565b6000835167ffffffffffffffff8111156105a0576105a06114e1565b6040519080825280602002602001820160405280156105c9578160200160208202803683370190505b50905060005b8451811015610641576106148582815181106105ed576105ed611972565b602002602001015185838151811061060757610607611972565b60200260200101516102eb565b82828151811061062657610626611972565b602090810291909101015261063a8161199e565b90506105cf565b509392505050565b6106543383836109a3565b5050565b610483838383610a83565b610483838383610c20565b61048383838360405180602001604052806000815250610d38565b6001600160a01b0385163314806106a557506106a58533610284565b6107035760405162461bcd60e51b815260206004820152602960248201527f455243313135353a2063616c6c6572206973206e6f74206f776e6572206e6f7260448201526808185c1c1c9bdd995960ba1b6064820152608401610353565b6105188585858585610e92565b6001600160a01b0384166107365760405162461bcd60e51b8152600401610353906119b7565b33600061074285610fca565b9050600061074f85610fca565b905061076083600089858589611015565b6000868152602081815260408083206001600160a01b038b168452909152812080548792906107909084906119f8565b909155505060408051878152602081018790526001600160a01b03808a1692600092918716917fc3d58168c5ae7397731d063d5bbf3d657854427343f4c083240f7aacaa2d0f62910160405180910390a46107f083600089898989611023565b50505050505050565b815183511461081a5760405162461bcd60e51b815260040161035390611a10565b6001600160a01b0384166108405760405162461bcd60e51b815260040161035390611a58565b3361084f818787878787611015565b60005b845181101561093557600085828151811061086f5761086f611972565b60200260200101519050600085838151811061088d5761088d611972565b602090810291909101810151600084815280835260408082206001600160a01b038e1683529093529190912054909150818110156108dd5760405162461bcd60e51b815260040161035390611a9d565b6000838152602081815260408083206001600160a01b038e8116855292528083208585039055908b1682528120805484929061091a9084906119f8565b925050819055505050508061092e9061199e565b9050610852565b50846001600160a01b0316866001600160a01b0316826001600160a01b03167f4a39dc06d4c0dbc64b70af90fd698a233a518aa5d07e595d983b8c0526c8f7fb8787604051610985929190611ae7565b60405180910390a461099b81878787878761117e565b505050505050565b816001600160a01b0316836001600160a01b031603610a165760405162461bcd60e51b815260206004820152602960248201527f455243313135353a2073657474696e6720617070726f76616c20737461747573604482015268103337b91039b2b63360b91b6064820152608401610353565b6001600160a01b03838116600081815260016020908152604080832094871680845294825291829020805460ff191686151590811790915591519182527f17307eab39ab6107e8899845ad3d59bd9653f200f220920489ca2b5937696c31910160405180910390a3505050565b6001600160a01b038316610aa95760405162461bcd60e51b815260040161035390611b15565b8051825114610aca5760405162461bcd60e51b815260040161035390611a10565b6000339050610aed81856000868660405180602001604052806000815250611015565b60005b8351811015610bb2576000848281518110610b0d57610b0d611972565b602002602001015190506000848381518110610b2b57610b2b611972565b602090810291909101810151600084815280835260408082206001600160a01b038c168352909352919091205490915081811015610b7b5760405162461bcd60e51b815260040161035390611b58565b6000928352602083815260408085206001600160a01b038b1686529091529092209103905580610baa8161199e565b915050610af0565b5060006001600160a01b0316846001600160a01b0316826001600160a01b03167f4a39dc06d4c0dbc64b70af90fd698a233a518aa5d07e595d983b8c0526c8f7fb8686604051610c03929190611ae7565b60405180910390a460408051602081019091526000905250505050565b6001600160a01b038316610c465760405162461bcd60e51b815260040161035390611b15565b336000610c5284610fca565b90506000610c5f84610fca565b9050610c7f83876000858560405180602001604052806000815250611015565b6000858152602081815260408083206001600160a01b038a16845290915290205484811015610cc05760405162461bcd60e51b815260040161035390611b58565b6000868152602081815260408083206001600160a01b038b81168086529184528285208a8703905582518b81529384018a90529092908816917fc3d58168c5ae7397731d063d5bbf3d657854427343f4c083240f7aacaa2d0f62910160405180910390a46040805160208101909152600090526107f0565b6001600160a01b038416610d5e5760405162461bcd60e51b8152600401610353906119b7565b8151835114610d7f5760405162461bcd60e51b815260040161035390611a10565b33610d8f81600087878787611015565b60005b8451811015610e2a57838181518110610dad57610dad611972565b6020026020010151600080878481518110610dca57610dca611972565b602002602001015181526020019081526020016000206000886001600160a01b03166001600160a01b031681526020019081526020016000206000828254610e1291906119f8565b90915550819050610e228161199e565b915050610d92565b50846001600160a01b031660006001600160a01b0316826001600160a01b03167f4a39dc06d4c0dbc64b70af90fd698a233a518aa5d07e595d983b8c0526c8f7fb8787604051610e7b929190611ae7565b60405180910390a46105188160008787878761117e565b6001600160a01b038416610eb85760405162461bcd60e51b815260040161035390611a58565b336000610ec485610fca565b90506000610ed185610fca565b9050610ee1838989858589611015565b6000868152602081815260408083206001600160a01b038c16845290915290205485811015610f225760405162461bcd60e51b815260040161035390611a9d565b6000878152602081815260408083206001600160a01b038d8116855292528083208985039055908a16825281208054889290610f5f9084906119f8565b909155505060408051888152602081018890526001600160a01b03808b16928c821692918816917fc3d58168c5ae7397731d063d5bbf3d657854427343f4c083240f7aacaa2d0f62910160405180910390a4610fbf848a8a8a8a8a611023565b505050505050505050565b6040805160018082528183019092526060916000919060208083019080368337019050509050828160008151811061100457611004611972565b602090810291909101015292915050565b61099b868686868686611239565b6001600160a01b0384163b1561099b5760405163f23a6e6160e01b81526001600160a01b0385169063f23a6e61906110679089908990889088908890600401611b9c565b6020604051808303816000875af19250505080156110a2575060408051601f3d908101601f1916820190925261109f91810190611be1565b60015b61114e576110ae611bfe565b806308c379a0036110e757506110c2611c1a565b806110cd57506110e9565b8060405162461bcd60e51b8152600401610353919061149b565b505b60405162461bcd60e51b815260206004820152603460248201527f455243313135353a207472616e7366657220746f206e6f6e20455243313135356044820152732932b1b2b4bb32b91034b6b83632b6b2b73a32b960611b6064820152608401610353565b6001600160e01b0319811663f23a6e6160e01b146107f05760405162461bcd60e51b815260040161035390611ca4565b6001600160a01b0384163b1561099b5760405163bc197c8160e01b81526001600160a01b0385169063bc197c81906111c29089908990889088908890600401611cec565b6020604051808303816000875af19250505080156111fd575060408051601f3d908101601f191682019092526111fa91810190611be1565b60015b611209576110ae611bfe565b6001600160e01b0319811663bc197c8160e01b146107f05760405162461bcd60e51b815260040161035390611ca4565b6001600160a01b0385166112c05760005b83518110156112be5782818151811061126557611265611972565b60200260200101516003600086848151811061128357611283611972565b6020026020010151815260200190815260200160002060008282546112a891906119f8565b909155506112b790508161199e565b905061124a565b505b6001600160a01b03841661099b5760005b83518110156107f05760008482815181106112ee576112ee611972565b60200260200101519050600084838151811061130c5761130c611972565b602002602001015190506000600360008481526020019081526020016000205490508181101561138f5760405162461bcd60e51b815260206004820152602860248201527f455243313135353a206275726e20616d6f756e74206578636565647320746f74604482015267616c537570706c7960c01b6064820152608401610353565b600092835260036020526040909220910390556113ab8161199e565b90506112d1565b80356001600160a01b03811681146113c957600080fd5b919050565b600080604083850312156113e157600080fd5b6113ea836113b2565b946020939093013593505050565b6001600160e01b03198116811461140e57600080fd5b50565b60006020828403121561142357600080fd5b813561142e816113f8565b9392505050565b60006020828403121561144757600080fd5b5035919050565b6000815180845260005b8181101561147457602081850181015186830182015201611458565b81811115611486576000602083870101525b50601f01601f19169290920160200192915050565b60208152600061142e602083018461144e565b6000806000606084860312156114c357600080fd5b6114cc846113b2565b95602085013595506040909401359392505050565b634e487b7160e01b600052604160045260246000fd5b601f8201601f1916810167ffffffffffffffff8111828210171561151d5761151d6114e1565b6040525050565b600067ffffffffffffffff82111561153e5761153e6114e1565b5060051b60200190565b600082601f83011261155957600080fd5b8135602061156682611524565b60405161157382826114f7565b83815260059390931b850182019282810191508684111561159357600080fd5b8286015b848110156115ae5780358352918301918301611597565b509695505050505050565b600082601f8301126115ca57600080fd5b813567ffffffffffffffff8111156115e4576115e46114e1565b6040516115fb601f8301601f1916602001826114f7565b81815284602083860101111561161057600080fd5b816020850160208301376000918101602001919091529392505050565b600080600080600060a0868803121561164557600080fd5b61164e866113b2565b945061165c602087016113b2565b9350604086013567ffffffffffffffff8082111561167957600080fd5b61168589838a01611548565b9450606088013591508082111561169b57600080fd5b6116a789838a01611548565b935060808801359150808211156116bd57600080fd5b506116ca888289016115b9565b9150509295509295909350565b600080604083850312156116ea57600080fd5b823567ffffffffffffffff8082111561170257600080fd5b818501915085601f83011261171657600080fd5b8135602061172382611524565b60405161173082826114f7565b83815260059390931b850182019282810191508984111561175057600080fd5b948201945b8386101561177557611766866113b2565b82529482019490820190611755565b9650508601359250508082111561178b57600080fd5b5061179885828601611548565b9150509250929050565b600081518084526020808501945080840160005b838110156117d2578151875295820195908201906001016117b6565b509495945050505050565b60208152600061142e60208301846117a2565b6000806040838503121561180357600080fd5b61180c836113b2565b91506020830135801515811461182157600080fd5b809150509250929050565b60008060006060848603121561184157600080fd5b61184a846113b2565b9250602084013567ffffffffffffffff8082111561186757600080fd5b61187387838801611548565b9350604086013591508082111561188957600080fd5b5061189686828701611548565b9150509250925092565b600080604083850312156118b357600080fd5b6118bc836113b2565b91506118ca602084016113b2565b90509250929050565b600080600080600060a086880312156118eb57600080fd5b6118f4866113b2565b9450611902602087016113b2565b93506040860135925060608601359150608086013567ffffffffffffffff81111561192c57600080fd5b6116ca888289016115b9565b600181811c9082168061194c57607f821691505b60208210810361196c57634e487b7160e01b600052602260045260246000fd5b50919050565b634e487b7160e01b600052603260045260246000fd5b634e487b7160e01b600052601160045260246000fd5b6000600182016119b0576119b0611988565b5060010190565b60208082526021908201527f455243313135353a206d696e7420746f20746865207a65726f206164647265736040820152607360f81b606082015260800190565b60008219821115611a0b57611a0b611988565b500190565b60208082526028908201527f455243313135353a2069647320616e6420616d6f756e7473206c656e677468206040820152670dad2e6dac2e8c6d60c31b606082015260800190565b60208082526025908201527f455243313135353a207472616e7366657220746f20746865207a65726f206164604082015264647265737360d81b606082015260800190565b6020808252602a908201527f455243313135353a20696e73756666696369656e742062616c616e636520666f60408201526939103a3930b739b332b960b11b606082015260800190565b604081526000611afa60408301856117a2565b8281036020840152611b0c81856117a2565b95945050505050565b60208082526023908201527f455243313135353a206275726e2066726f6d20746865207a65726f206164647260408201526265737360e81b606082015260800190565b60208082526024908201527f455243313135353a206275726e20616d6f756e7420657863656564732062616c604082015263616e636560e01b606082015260800190565b6001600160a01b03868116825285166020820152604081018490526060810183905260a060808201819052600090611bd69083018461144e565b979650505050505050565b600060208284031215611bf357600080fd5b815161142e816113f8565b600060033d1115611c175760046000803e5060005160e01c5b90565b600060443d1015611c285790565b6040516003193d81016004833e81513d67ffffffffffffffff8160248401118184111715611c5857505050505090565b8285019150815181811115611c705750505050505090565b843d8701016020828501011115611c8a5750505050505090565b611c99602082860101876114f7565b509095945050505050565b60208082526028908201527f455243313135353a204552433131353552656365697665722072656a656374656040820152676420746f6b656e7360c01b606082015260800190565b6001600160a01b0386811682528516602082015260a060408201819052600090611d18908301866117a2565b8281036060840152611d2a81866117a2565b90508281036080840152611d3e818561144e565b9897505050505050505056fea2646970667358221220f1d173360d0b758551a08a19eba72c069967f44683d3b575414de84fd06ba7f764736f6c634300080d0033697066733a2f2f626166796265696772736164697264687964793673716f3461696e74717932757968703572717274656f796a666e6d766861646333796a646278652f7b69647d2e6a736f6e",
  "linkReferences": {},
  "deployedLinkReferences": {}
}