{
  "_format": "hh-sol-artifact-1",
  "contractName": "GameItems",
  "sourceName": "contracts/GameItems.sol",
  "abi": [
    {
      "inputs": [
        {
          "internalType": "address",
          "name": "_gameAddress",
          "type": "address"
        }
      ],
      "stateMutability": "nonpayable",
      "type": "constructor"
    },
    {
      "anonymous": false,
      "inputs": [
        {
          "indexed": true,
          "internalType": "address",
          "name": "account",
          "type": "address"
        },
        {
          "indexed": true,
          "internalType": "address",
          "name": "operator",
          "type": "address"
        },
        {
          "indexed": false,
          "internalType": "bool",
          "name": "approved",
          "type": "bool"
        }
      ],
      "name": "ApprovalForAll",
      "type": "event"
    },
    {
      "anonymous": false,
      "inputs": [
        {
          "indexed": true,
          "internalType": "address",
          "name": "operator",
          "type": "address"
        },
        {
          "indexed": true,
          "internalType": "address",
          "name": "from",
          "type": "address"
        },
        {
          "indexed": true,
          "internalType": "address",
          "name": "to",
          "type": "address"
        },
        {
          "indexed": false,
          "internalType": "uint256[]",
          "name": "ids",
          "type": "uint256[]"
        },
        {
          "indexed": false,
          "internalType": "uint256[]",
          "name": "values",
          "type": "uint256[]"
        }
      ],
      "name": "TransferBatch",
      "type": "event"
    },
    {
      "anonymous": false,
      "inputs": [
        {
          "indexed": true,
          "internalType": "address",
          "name": "operator",
          "type": "address"
        },
        {
          "indexed": true,
          "internalType": "address",
          "name": "from",
          "type": "address"
        },
        {
          "indexed": true,
          "internalType": "address",
          "name": "to",
          "type": "address"
        },
        {
          "indexed": false,
          "internalType": "uint256",
          "name": "id",
          "type": "uint256"
        },
        {
          "indexed": false,
          "internalType": "uint256",
          "name": "value",
          "type": "uint256"
        }
      ],
      "name": "TransferSingle",
      "type": "event"
    },
    {
      "anonymous": false,
      "inputs": [
        {
          "indexed": false,
          "internalType": "string",
          "name": "value",
          "type": "string"
        },
        {
          "indexed": true,
          "internalType": "uint256",
          "name": "id",
          "type": "uint256"
        }
      ],
      "name": "URI",
      "type": "event"
    },
    {
      "inputs": [],
      "name": "GOLD",
      "outputs": [
        {
          "internalType": "uint256",
          "name": "",
          "type": "uint256"
        }
      ],
      "stateMutability": "view",
      "type": "function"
    },
    {
      "inputs": [],
      "name": "KEY",
      "outputs": [
        {
          "internalType": "uint256",
          "name": "",
          "type": "uint256"
        }
      ],
      "stateMutability": "view",
      "type": "function"
    },
    {
      "inputs": [],
      "name": "TREASURE",
      "outputs": [
        {
          "internalType": "uint256",
          "name": "",
          "type": "uint256"
        }
      ],
      "stateMutability": "view",
      "type": "function"
    },
    {
      "inputs": [
        {
          "internalType": "address",
          "name": "account",
          "type": "address"
        },
        {
          "internalType": "uint256",
          "name": "id",
          "type": "uint256"
        }
      ],
      "name": "balanceOf",
      "outputs": [
        {
          "internalType": "uint256",
          "name": "",
          "type": "uint256"
        }
      ],
      "stateMutability": "view",
      "type": "function"
    },
    {
      "inputs": [
        {
          "internalType": "address[]",
          "name": "accounts",
          "type": "address[]"
        },
        {
          "internalType": "uint256[]",
          "name": "ids",
          "type": "uint256[]"
        }
      ],
      "name": "balanceOfBatch",
      "outputs": [
        {
          "internalType": "uint256[]",
          "name": "",
          "type": "uint256[]"
        }
      ],
      "stateMutability": "view",
      "type": "function"
    },
    {
      "inputs": [
        {
          "internalType": "uint256",
          "name": "id",
          "type": "uint256"
        }
      ],
      "name": "exists",
      "outputs": [
        {
          "internalType": "bool",
          "name": "",
          "type": "bool"
        }
      ],
      "stateMutability": "view",
      "type": "function"
    },
    {
      "inputs": [],
      "name": "gameAddress",
      "outputs": [
        {
          "internalType": "address",
          "name": "",
          "type": "address"
        }
      ],
      "stateMutability": "view",
      "type": "function"
    },
    {
      "inputs": [
        {
          "internalType": "address",
          "name": "account",
          "type": "address"
        },
        {
          "internalType": "address",
          "name": "operator",
          "type": "address"
        }
      ],
      "name": "isApprovedForAll",
      "outputs": [
        {
          "internalType": "bool",
          "name": "",
          "type": "bool"
        }
      ],
      "stateMutability": "view",
      "type": "function"
    },
    {
      "inputs": [
        {
          "internalType": "address",
          "name": "from",
          "type": "address"
        },
        {
          "internalType": "address",
          "name": "to",
          "type": "address"
        },
        {
          "internalType": "uint256[]",
          "name": "ids",
          "type": "uint256[]"
        },
        {
          "internalType": "uint256[]",
          "name": "amounts",
          "type": "uint256[]"
        },
        {
          "internalType": "bytes",
          "name": "data",
          "type": "bytes"
        }
      ],
      "name": "safeBatchTransferFrom",
      "outputs": [],
      "stateMutability": "nonpayable",
      "type": "function"
    },
    {
      "inputs": [
        {
          "internalType": "address",
          "name": "from",
          "type": "address"
        },
        {
          "internalType": "address",
          "name": "to",
          "type": "address"
        },
        {
          "internalType": "uint256",
          "name": "id",
          "type": "uint256"
        },
        {
          "internalType": "uint256",
          "name": "amount",
          "type": "uint256"
        },
        {
          "internalType": "bytes",
          "name": "data",
          "type": "bytes"
        }
      ],
      "name": "safeTransferFrom",
      "outputs": [],
      "stateMutability": "nonpayable",
      "type": "function"
    },
    {
      "inputs": [
        {
          "internalType": "address",
          "name": "operator",
          "type": "address"
        },
        {
          "internalType": "bool",
          "name": "approved",
          "type": "bool"
        }
      ],
      "name": "setApprovalForAll",
      "outputs": [],
      "stateMutability": "nonpayable",
      "type": "function"
    },
    {
      "inputs": [
        {
          "internalType": "bytes4",
          "name": "interfaceId",
          "type": "bytes4"
        }
      ],
      "name": "supportsInterface",
      "outputs": [
        {
          "internalType": "bool",
          "name": "",
          "type": "bool"
        }
      ],
      "stateMutability": "view",
      "type": "function"
    },
    {
      "inputs": [
        {
          "internalType": "uint256",
          "name": "id",
          "type": "uint256"
        }
      ],
      "name": "totalSupply",
      "outputs": [
        {
          "internalType": "uint256",
          "name": "",
          "type": "uint256"
        }
      ],
      "stateMutability": "view",
      "type": "function"
    },
    {
      "inputs": [
        {
          "internalType": "uint256",
          "name": "",
          "type": "uint256"
        }
      ],
      "name": "uri",
      "outputs": [
        {
          "internalType": "string",
          "name": "",
          "type": "string"
        }
      ],
      "stateMutability": "view",
      "type": "function"
    }
  ],
  "bytecode": "0x60806040523480156200001157600080fd5b50604051620021753803806200217583398101604081905262000034916200082f565b6040518060800160405280604c815260200162002129604c9139620000598162000154565b50600480546001600160a01b0319166001600160a01b0383161790556040805160808101909152604c8082526200009a919062002129602083013962000154565b60045460408051602081019091526000808252620000cc926001600160a01b031691670de0b6b3a7640000906200016d565b60045460408051602081019091526000815262000100916001600160a01b031690600190670de0b6b3a7640000906200016d565b60045460408051602081019091526000815262000134916001600160a01b031690600290670de0b6b3a7640000906200016d565b6004546200014d906001600160a01b03166001620002a0565b5062000abf565b80516200016990600290602084019062000789565b5050565b6001600160a01b038416620001d35760405162461bcd60e51b815260206004820152602160248201527f455243313135353a206d696e7420746f20746865207a65726f206164647265736044820152607360f81b60648201526084015b60405180910390fd5b336000620001e185620002ad565b90506000620001f085620002ad565b90506200020383600089858589620002fb565b6000868152602081815260408083206001600160a01b038b168452909152812080548792906200023590849062000877565b909155505060408051878152602081018790526001600160a01b03808a1692600092918716917fc3d58168c5ae7397731d063d5bbf3d657854427343f4c083240f7aacaa2d0f62910160405180910390a462000297836000898989896200031e565b50505050505050565b62000169338383620004ea565b60408051600180825281830190925260609160009190602080830190803683370190505090508281600081518110620002ea57620002ea62000892565b602090810291909101015292915050565b62000316868686868686620005cc60201b620006471760201c565b505050505050565b6200033d846001600160a01b03166200077a60201b620007ca1760201c565b15620003165760405163f23a6e6160e01b81526001600160a01b0385169063f23a6e6190620003799089908990889088908890600401620008f8565b6020604051808303816000875af1925050508015620003b7575060408051601f3d908101601f19168201909252620003b4918101906200093f565b60015b6200047757620003c66200096b565b806308c379a003620004065750620003dd620009c3565b80620003ea575062000408565b8060405162461bcd60e51b8152600401620001ca919062000a52565b505b60405162461bcd60e51b815260206004820152603460248201527f455243313135353a207472616e7366657220746f206e6f6e204552433131353560448201527f526563656976657220696d706c656d656e7465720000000000000000000000006064820152608401620001ca565b6001600160e01b0319811663f23a6e6160e01b14620002975760405162461bcd60e51b815260206004820152602860248201527f455243313135353a204552433131353552656365697665722072656a656374656044820152676420746f6b656e7360c01b6064820152608401620001ca565b816001600160a01b0316836001600160a01b0316036200055f5760405162461bcd60e51b815260206004820152602960248201527f455243313135353a2073657474696e6720617070726f76616c20737461747573604482015268103337b91039b2b63360b91b6064820152608401620001ca565b6001600160a01b03838116600081815260016020908152604080832094871680845294825291829020805460ff191686151590811790915591519182527f17307eab39ab6107e8899845ad3d59bd9653f200f220920489ca2b5937696c31910160405180910390a3505050565b620005e78686868686866200031660201b620007c21760201c565b6001600160a01b0385166200067b5760005b8351811015620006795782818151811062000618576200061862000892565b60200260200101516003600086848151811062000639576200063962000892565b60200260200101518152602001908152602001600020600082825462000660919062000877565b909155506200067190508162000a67565b9050620005f9565b505b6001600160a01b038416620003165760005b835181101562000297576000848281518110620006ae57620006ae62000892565b602002602001015190506000848381518110620006cf57620006cf62000892565b6020026020010151905060006003600084815260200190815260200160002054905081811015620007545760405162461bcd60e51b815260206004820152602860248201527f455243313135353a206275726e20616d6f756e74206578636565647320746f74604482015267616c537570706c7960c01b6064820152608401620001ca565b60009283526003602052604090922091039055620007728162000a67565b90506200068d565b6001600160a01b03163b151590565b828054620007979062000a83565b90600052602060002090601f016020900481019282620007bb576000855562000806565b82601f10620007d657805160ff191683800117855562000806565b8280016001018555821562000806579182015b8281111562000806578251825591602001919060010190620007e9565b506200081492915062000818565b5090565b5b8082111562000814576000815560010162000819565b6000602082840312156200084257600080fd5b81516001600160a01b03811681146200085a57600080fd5b9392505050565b634e487b7160e01b600052601160045260246000fd5b600082198211156200088d576200088d62000861565b500190565b634e487b7160e01b600052603260045260246000fd5b6000815180845260005b81811015620008d057602081850181015186830182015201620008b2565b81811115620008e3576000602083870101525b50601f01601f19169290920160200192915050565b6001600160a01b03868116825285166020820152604081018490526060810183905260a0608082018190526000906200093490830184620008a8565b979650505050505050565b6000602082840312156200095257600080fd5b81516001600160e01b0319811681146200085a57600080fd5b600060033d1115620009855760046000803e5060005160e01c5b90565b601f8201601f191681016001600160401b0381118282101715620009bc57634e487b7160e01b600052604160045260246000fd5b6040525050565b600060443d1015620009d25790565b6040516003193d81016004833e81513d6001600160401b03808311602484018310171562000a0257505050505090565b828501915081518181111562000a1b5750505050505090565b843d870101602082850101111562000a365750505050505090565b62000a476020828601018762000988565b509095945050505050565b6020815260006200085a6020830184620008a8565b60006001820162000a7c5762000a7c62000861565b5060010190565b600181811c9082168062000a9857607f821691505b60208210810362000ab957634e487b7160e01b600052602260045260246000fd5b50919050565b61165a8062000acf6000396000f3fe608060405234801561001057600080fd5b50600436106100e95760003560e01c80634f558e791161008c578063bd85b03911610066578063bd85b039146101fc578063df8b19371461021c578063e985e9c514610224578063f242432a1461026057600080fd5b80634f558e791461019c578063a168d873146101be578063a22cb465146101e957600080fd5b80632dc387b3116100c85780632dc387b3146101575780632eb2c2d61461015f5780633e4bee38146101745780634e1273f41461017c57600080fd5b8062fdd58e146100ee57806301ffc9a7146101145780630e89341c14610137575b600080fd5b6101016100fc366004610e5f565b610273565b6040519081526020015b60405180910390f35b610127610122366004610ea2565b61030a565b604051901515815260200161010b565b61014a610145366004610ec6565b61035c565b60405161010b9190610f2c565b610101600181565b61017261016d36600461108b565b6103f0565b005b610101600081565b61018f61018a366004611135565b610487565b60405161010b919061123b565b6101276101aa366004610ec6565b600090815260036020526040902054151590565b6004546101d1906001600160a01b031681565b6040516001600160a01b03909116815260200161010b565b6101726101f736600461124e565b6105b1565b61010161020a366004610ec6565b60009081526003602052604090205490565b610101600281565b61012761023236600461128a565b6001600160a01b03918216600090815260016020908152604080832093909416825291909152205460ff1690565b61017261026e3660046112bd565b6105c0565b60006001600160a01b0383166102e45760405162461bcd60e51b815260206004820152602b60248201527f455243313135353a2062616c616e636520717565727920666f7220746865207a60448201526a65726f206164647265737360a81b60648201526084015b60405180910390fd5b506000908152602081815260408083206001600160a01b03949094168352929052205490565b60006001600160e01b03198216636cdb3d1360e11b148061033b57506001600160e01b031982166303a24d0760e21b145b8061035657506301ffc9a760e01b6001600160e01b03198316145b92915050565b60606002805461036b90611322565b80601f016020809104026020016040519081016040528092919081815260200182805461039790611322565b80156103e45780601f106103b9576101008083540402835291602001916103e4565b820191906000526020600020905b8154815290600101906020018083116103c757829003601f168201915b50505050509050919050565b6001600160a01b03851633148061040c575061040c8533610232565b6104735760405162461bcd60e51b815260206004820152603260248201527f455243313135353a207472616e736665722063616c6c6572206973206e6f74206044820152711bdddb995c881b9bdc88185c1c1c9bdd995960721b60648201526084016102db565b61048085858585856107d9565b5050505050565b606081518351146104ec5760405162461bcd60e51b815260206004820152602960248201527f455243313135353a206163636f756e747320616e6420696473206c656e677468604482015268040dad2e6dac2e8c6d60bb1b60648201526084016102db565b6000835167ffffffffffffffff81111561050857610508610f3f565b604051908082528060200260200182016040528015610531578160200160208202803683370190505b50905060005b84518110156105a95761057c8582815181106105555761055561135c565b602002602001015185838151811061056f5761056f61135c565b6020026020010151610273565b82828151811061058e5761058e61135c565b60209081029190910101526105a281611388565b9050610537565b509392505050565b6105bc3383836109bc565b5050565b6001600160a01b0385163314806105dc57506105dc8533610232565b61063a5760405162461bcd60e51b815260206004820152602960248201527f455243313135353a2063616c6c6572206973206e6f74206f776e6572206e6f7260448201526808185c1c1c9bdd995960ba1b60648201526084016102db565b6104808585858585610a9c565b6001600160a01b0385166106ce5760005b83518110156106cc578281815181106106735761067361135c565b6020026020010151600360008684815181106106915761069161135c565b6020026020010151815260200190815260200160002060008282546106b691906113a1565b909155506106c5905081611388565b9050610658565b505b6001600160a01b0384166107c25760005b83518110156107c05760008482815181106106fc576106fc61135c565b60200260200101519050600084838151811061071a5761071a61135c565b602002602001015190506000600360008481526020019081526020016000205490508181101561079d5760405162461bcd60e51b815260206004820152602860248201527f455243313135353a206275726e20616d6f756e74206578636565647320746f74604482015267616c537570706c7960c01b60648201526084016102db565b600092835260036020526040909220910390556107b981611388565b90506106df565b505b505050505050565b6001600160a01b03163b151590565b815183511461083b5760405162461bcd60e51b815260206004820152602860248201527f455243313135353a2069647320616e6420616d6f756e7473206c656e677468206044820152670dad2e6dac2e8c6d60c31b60648201526084016102db565b6001600160a01b0384166108615760405162461bcd60e51b81526004016102db906113b9565b33610870818787878787610bd4565b60005b84518110156109565760008582815181106108905761089061135c565b6020026020010151905060008583815181106108ae576108ae61135c565b602090810291909101810151600084815280835260408082206001600160a01b038e1683529093529190912054909150818110156108fe5760405162461bcd60e51b81526004016102db906113fe565b6000838152602081815260408083206001600160a01b038e8116855292528083208585039055908b1682528120805484929061093b9084906113a1565b925050819055505050508061094f90611388565b9050610873565b50846001600160a01b0316866001600160a01b0316826001600160a01b03167f4a39dc06d4c0dbc64b70af90fd698a233a518aa5d07e595d983b8c0526c8f7fb87876040516109a6929190611448565b60405180910390a46107c2818787878787610be2565b816001600160a01b0316836001600160a01b031603610a2f5760405162461bcd60e51b815260206004820152602960248201527f455243313135353a2073657474696e6720617070726f76616c20737461747573604482015268103337b91039b2b63360b91b60648201526084016102db565b6001600160a01b03838116600081815260016020908152604080832094871680845294825291829020805460ff191686151590811790915591519182527f17307eab39ab6107e8899845ad3d59bd9653f200f220920489ca2b5937696c31910160405180910390a3505050565b6001600160a01b038416610ac25760405162461bcd60e51b81526004016102db906113b9565b336000610ace85610d3d565b90506000610adb85610d3d565b9050610aeb838989858589610bd4565b6000868152602081815260408083206001600160a01b038c16845290915290205485811015610b2c5760405162461bcd60e51b81526004016102db906113fe565b6000878152602081815260408083206001600160a01b038d8116855292528083208985039055908a16825281208054889290610b699084906113a1565b909155505060408051888152602081018890526001600160a01b03808b16928c821692918816917fc3d58168c5ae7397731d063d5bbf3d657854427343f4c083240f7aacaa2d0f62910160405180910390a4610bc9848a8a8a8a8a610d88565b505050505050505050565b6107c2868686868686610647565b6001600160a01b0384163b156107c25760405163bc197c8160e01b81526001600160a01b0385169063bc197c8190610c269089908990889088908890600401611476565b6020604051808303816000875af1925050508015610c61575060408051601f3d908101601f19168201909252610c5e918101906114d4565b60015b610d0d57610c6d6114f1565b806308c379a003610ca65750610c8161150d565b80610c8c5750610ca8565b8060405162461bcd60e51b81526004016102db9190610f2c565b505b60405162461bcd60e51b815260206004820152603460248201527f455243313135353a207472616e7366657220746f206e6f6e20455243313135356044820152732932b1b2b4bb32b91034b6b83632b6b2b73a32b960611b60648201526084016102db565b6001600160e01b0319811663bc197c8160e01b146107c05760405162461bcd60e51b81526004016102db90611597565b60408051600180825281830190925260609160009190602080830190803683370190505090508281600081518110610d7757610d7761135c565b602090810291909101015292915050565b6001600160a01b0384163b156107c25760405163f23a6e6160e01b81526001600160a01b0385169063f23a6e6190610dcc90899089908890889088906004016115df565b6020604051808303816000875af1925050508015610e07575060408051601f3d908101601f19168201909252610e04918101906114d4565b60015b610e1357610c6d6114f1565b6001600160e01b0319811663f23a6e6160e01b146107c05760405162461bcd60e51b81526004016102db90611597565b80356001600160a01b0381168114610e5a57600080fd5b919050565b60008060408385031215610e7257600080fd5b610e7b83610e43565b946020939093013593505050565b6001600160e01b031981168114610e9f57600080fd5b50565b600060208284031215610eb457600080fd5b8135610ebf81610e89565b9392505050565b600060208284031215610ed857600080fd5b5035919050565b6000815180845260005b81811015610f0557602081850181015186830182015201610ee9565b81811115610f17576000602083870101525b50601f01601f19169290920160200192915050565b602081526000610ebf6020830184610edf565b634e487b7160e01b600052604160045260246000fd5b601f8201601f1916810167ffffffffffffffff81118282101715610f7b57610f7b610f3f565b6040525050565b600067ffffffffffffffff821115610f9c57610f9c610f3f565b5060051b60200190565b600082601f830112610fb757600080fd5b81356020610fc482610f82565b604051610fd18282610f55565b83815260059390931b8501820192828101915086841115610ff157600080fd5b8286015b8481101561100c5780358352918301918301610ff5565b509695505050505050565b600082601f83011261102857600080fd5b813567ffffffffffffffff81111561104257611042610f3f565b604051611059601f8301601f191660200182610f55565b81815284602083860101111561106e57600080fd5b816020850160208301376000918101602001919091529392505050565b600080600080600060a086880312156110a357600080fd5b6110ac86610e43565b94506110ba60208701610e43565b9350604086013567ffffffffffffffff808211156110d757600080fd5b6110e389838a01610fa6565b945060608801359150808211156110f957600080fd5b61110589838a01610fa6565b9350608088013591508082111561111b57600080fd5b5061112888828901611017565b9150509295509295909350565b6000806040838503121561114857600080fd5b823567ffffffffffffffff8082111561116057600080fd5b818501915085601f83011261117457600080fd5b8135602061118182610f82565b60405161118e8282610f55565b83815260059390931b85018201928281019150898411156111ae57600080fd5b948201945b838610156111d3576111c486610e43565b825294820194908201906111b3565b965050860135925050808211156111e957600080fd5b506111f685828601610fa6565b9150509250929050565b600081518084526020808501945080840160005b8381101561123057815187529582019590820190600101611214565b509495945050505050565b602081526000610ebf6020830184611200565b6000806040838503121561126157600080fd5b61126a83610e43565b91506020830135801515811461127f57600080fd5b809150509250929050565b6000806040838503121561129d57600080fd5b6112a683610e43565b91506112b460208401610e43565b90509250929050565b600080600080600060a086880312156112d557600080fd5b6112de86610e43565b94506112ec60208701610e43565b93506040860135925060608601359150608086013567ffffffffffffffff81111561131657600080fd5b61112888828901611017565b600181811c9082168061133657607f821691505b60208210810361135657634e487b7160e01b600052602260045260246000fd5b50919050565b634e487b7160e01b600052603260045260246000fd5b634e487b7160e01b600052601160045260246000fd5b60006001820161139a5761139a611372565b5060010190565b600082198211156113b4576113b4611372565b500190565b60208082526025908201527f455243313135353a207472616e7366657220746f20746865207a65726f206164604082015264647265737360d81b606082015260800190565b6020808252602a908201527f455243313135353a20696e73756666696369656e742062616c616e636520666f60408201526939103a3930b739b332b960b11b606082015260800190565b60408152600061145b6040830185611200565b828103602084015261146d8185611200565b95945050505050565b6001600160a01b0386811682528516602082015260a0604082018190526000906114a290830186611200565b82810360608401526114b48186611200565b905082810360808401526114c88185610edf565b98975050505050505050565b6000602082840312156114e657600080fd5b8151610ebf81610e89565b600060033d111561150a5760046000803e5060005160e01c5b90565b600060443d101561151b5790565b6040516003193d81016004833e81513d67ffffffffffffffff816024840111818411171561154b57505050505090565b82850191508151818111156115635750505050505090565b843d870101602082850101111561157d5750505050505090565b61158c60208286010187610f55565b509095945050505050565b60208082526028908201527f455243313135353a204552433131353552656365697665722072656a656374656040820152676420746f6b656e7360c01b606082015260800190565b6001600160a01b03868116825285166020820152604081018490526060810183905260a06080820181905260009061161990830184610edf565b97965050505050505056fea264697066735822122084188fafc5e56c5bcc36e15bde8a6e9012c971e1894d381360dfb68517039f1864736f6c634300080d0033697066733a2f2f626166796265696772736164697264687964793673716f3461696e74717932757968703572717274656f796a666e6d766861646333796a646278652f7b69647d2e6a736f6e",
  "linkReferences": {},
  "deployedLinkReferences": {}
}